:08000000AC1604000000000032
:04000C000C200000C4
:100010001020000014200000182000001C20000008
:100020002020000024200000282000002C200000B8
:100030003020000034200000382000003C20000068
:100040004020000044200000482000004C20000018
:100050005020000054200000582000005C200000C8
:100060006020000064200000682000006C20000078
:100070007020000074200000782000007C20000028
:100080008020000084200000882000008C200000D8
:100090009020000094200000982000009C20000088
:1000A000A0200000A4200000A8200000AC20000038
:1000B000B0200000B4200000B8200000BC200000E8
:1000C000C0200000C4200000C8200000CC20000098
:1000D000D0200000D4200000D8200000DC20000048
:1000E000E0200000E4200000E8200000EC200000F8
:1000F000F0200000F4200000F8200000FC200000A8
:100100000021000004210000082100000C21000053
:100110001021000014210000182100001C21000003
:100120002021000024210000282100002C210000B3
:100130003021000034210000382100003C21000063
:100140004021000044210000482100004C21000013
:100150005021000054210000582100005C210000C3
:100160006021000064210000682100006C21000073
:100170007021000074210000782100007C21000023
:100180008021000084210000882100008C210000D3
:100190009021000094210000982100009C21000083
:1001A000A0210000A4210000A8210000AC21000033
:1001B000B0210000B4210000B8210000BC210000E3
:1001C000C0210000C4210000C8210000CC21000093
:1001D000D0210000D4210000D8210000DC21000043
:1001E000E0210000E4210000E8210000EC210000F3
:1001F000F0210000F4210000F8210000FC210000A3
:100400005420EF00C3202000008041001040BA00BB
:100410000160EF00000006000003000002FF000082
:10042000FFFF0000FFFF0000FFFF0000FFFF0000D4
:10043000FFFF0000FFFF00005420EF008322200098
:10044000008041001040BA000160EF00000006008B
:1004500000FF000002FF0000FFFF0000FFFF0000A0
:10046000FFFF0000FFFF0000FFFF0000FFFF000094
:100470005420EF0023242000008041001000BA0027
:1004800000000600400000000B00000040000000DB
:10049000000000000000000000000000000000005C
:1004A000000000000000000000000000000000004C
:1004B000000000000000000000000000000000003C
:1004C000000000005420EF00C326200000804100FF
:1004D0001000BA000000060040000000000000000C
:1004E00040000000000000000000000000000000CC
:1004F00000000000000000000000000000000000FC
:1005000000000000000000000000000000000000EB
:1005100000000000000000005420EF00E302200073
:100520008301500005003100832A20000080410033
:100530001040BA000160EF0000000600802A200091
:1005400083814100808141001380BA0000000600D1
:1005500009020100430000000201020000800A00BD
:100560003209000004000000000100000202070040
:1005700001000500052402000010020001044000F3
:100580002402000002050100240607000001050006
:1005900005248200010002000107400005810000DF
:1005A000030B010000FA0000090400005420EF00D2
:1005B000232E2000008041001040BA000160EF00AF
:1005C00000000600020000005420EF00032F20006E
:1005D000008041001040BA000160EF0000000600FA
:1005E000121700001B200000FFFF0000FFFF0000AB
:1005F0005420EF0043302000008041001040BA003A
:100600000160EF0000000600120100001001000070
:100610000200000000400000052400000C00000063
:100620000001000001020000000100005420EF0062
:1006300023022000830150000500310023332000F5
:10064000008041001040BA000160EF000000060089
:100650002033200083814100808141001380BA0053
:100660000000060004034F000904000008035400C2
:100670004300000043004C005300000026034F00DD
:1006800043000000430041005300000020004400EC
:1006900043000000440045004300000020005200D9
:1006A000420000004F0000005420EF0003362000FD
:1006B000008041001040BA000160EF000000060019
:1006C000426F00006F7400006C6F000061640000F6
:1006D000657200002052000065610000647900002E
:1006E0000D0A0000000000004200F8003600F8008B
:1006F0005400F800801F7800200020000C00090042
:10070000B01F7800A00120000C0009004F107800F5
:100710004F0078005400F9003600F9004200F9005B
:1007200000400600851F7800D58F800080CAEB004E
:10073000F0CFB30090429800CF027800000006008E
:10074000851F7800861F78000558220006002000CB
:1007500041922000A200200001000900B258780058
:100760002669EF002769EF008042EB0081922000AC
:10077000A2002000B25878008042EB009192200045
:10078000A2002000B258780085C0B300A1922000DA
:10079000A2002000B25878006D69EF002B09A90073
:1007A0002C29EF001D69EF000C08A9006E69EF000D
:1007B0004F037800CF02780000000600851F780004
:1007C0002029EF00FA31EF00D48F80006220E10091
:1007D0000700310024922000D38F800084824100E2
:1007E000804AEB00FA31EC00E40304000000000052
:1007F000A0030200000000000228EF001400200007
:10080000244088000068EF00CF0278000000060056
:100810009424EF008C24EF00E4482000D48F88005B
:100820009203020000000000A4482000D48F88003A
:1008300092030200000000008224EF008804A80058
:10084000A624EF00A824EF009424A8000B68EF0072
:100850009624EF00A14A2000020020001F0009009A
:100860008058EB0001202100020020001700090041
:100870008058EB0024012000C42488009424A9009F
:10088000DE0302000000000094A4A90086E4A90091
:1008900086C4A90086E4A80000000600080402003F
:1008A0000000000000000600851F7800C590800051
:1008B000D49080000960EF00100020000400DD00EB
:1008C000800A7800CF027800000006008824A90082
:1008D0008284A90040C0B3001AF2B7000448200087
:1008E000C4908800540402000000000040C0B3001F
:1008F0001AF2B700A4482000C490880054040200F3
:100900000000000000000600851F78004452E2004D
:100910000A003A004552E20004003200442021005F
:10092000349288009A040400000000000420210092
:1009300034928800B6040400000000002492800075
:100940000960EF00E10252004328DD00E8024000A8
:1009500045D2BF000160EF004200DD00850240008B
:10096000042021000480420046B2B7004612F8007D
:100970000000F900CF0278000000060032D2BF006C
:1009800044F2B70033D2BF0045F2B700840402003E
:100990000000000034B2B700A49180006200420061
:1009A00034B2B7003412F8000000F900000006006D
:1009B00024D2BF0032F2B70025D2BF0033F2B70015
:1009C000BE0402000000000028B2B7004191800080
:1009D0003291800001000900B25878000000060042
:1009E000851F780034D2BF0044F2B70035D2BF0073
:1009F00045F2B700840402000000000038B2B700DE
:100A0000C59180003692BF00900A7800CF0278002E
:100A100000000600A11F21000200200001000900C3
:100A20008058EB0000C02F00FA31B600000420000F
:100A3000FA31B700FBF1A800FB71A8000481200087
:100A4000E48F88002472EF002572EF00C41F21009C
:100A500034918800D8040200000000003472EF00D6
:100A60003572EF00A41F2100B4918800F004020049
:100A700000000000A11F2100020020000100090069
:100A80008058EB003472EF0010C0B30035F2B700AD
:100A9000A41F2100B4918800F004020000000000AF
:100AA00004852000E48F88002472EF0010C0B3009A
:100AB00025F2B700C41F210034918800D804020039
:100AC0000000000000000600AA24AE00030037006A
:100AD0000A05020000000000AA24A90070C0B300AB
:100AE0001AF2B700A4482000C49088005404020001
:100AF0000000000000000600E4482000D48F8800B9
:100B0000920302000000000010C0B3001AF2B70008
:100B1000A4482000C4908800540402000000000093
:100B200000000600851F78002B12A9002AF2AF00F2
:100B30002B12A800A42221001470A100549180005F
:100B40007024E100020036000060EF001C00370056
:100B50002B12AE000E0037002AD2BF000160EF005A
:100B60000002020000000000F40F20000024E10059
:100B700003003A000040EB00C20504000000000042
:100B800010C0B3000E003700E005040000000000B4
:100B90002AD2BF000160EF001C020200000000002A
:100BA000F40F20000024E10003003A000040EB00B5
:100BB000DE0504000000000010C0B3000000370094
:100BC000CF02780000000600851F780026D2BF0003
:100BD0000160EF004100DD00A44A200084024000D3
:100BE000804AEB0000C0B3009042980026D2BF00BC
:100BF0002AF2B70092050200000000000004E000A5
:100C000013003200812221000200200001000900AF
:100C10008058EB0026D2BF0034F2B7003572EF00E7
:100C200084222100B4918800F0040200000000003A
:100C300026D2BF0034F2B70010C0B30035F2B700BF
:100C400084222100B4918800F0040200000000001A
:100C5000CF0278000000060010C0B30024F2B700F5
:100C6000249180007024E1000700310024D2BF00ED
:100C700026F2B700E4050200000000002472EC0038
:100C800030060400000000000000060030C0B30081
:100C90001AF2B700A4482000C4908800540402004F
:100CA0000000000004000900000000000000060031
:100CB000E4482000D48F8800920302000000000066
:100CC000A4482000D48F8800920302000000000096
:100CD000F4092000842488009409200064248800FA
:100CE0009624EF00DE030200000000002C06020044
:100CF00000000000D4002000542588008A64AE0063
:100D00000400370046060200000000007E060400D2
:100D10000000000094A4A9000A05020000000000E1
:100D200030C0B3000BE8B700000006008284A800C2
:100D30008C84A9000000060020C0B3001AF2B7009E
:100D4000A4482000C4908800540402000000000061
:100D500000000600851F78003AD2BF0044F2B700B9
:100D60003BD2BF0045F2B70084040200000000003F
:100D70003EB2B700E59180003E92BF00900A780035
:100D8000CF027800000006001ED2BF000FE8B700B7
:100D900000000600F0CFB3000FE8B7000000060027
:100DA000851F7800861F78001A32EF002009E200C4
:100DB0002A003200D4908000030420000418E100CF
:100DC0002600360006C8BF000160EF000080B200B8
:100DD000050032002080B200090032001080B2000D
:100DE0000D003200120037001E89BF008C02020085
:100DF000000000001CF2B70018070400000000000B
:100E00001E89BF0016030200000000001CF2B7009C
:100E100018070400000000001E89BF00F80202004D
:100E2000000000001CF2B7001807040000000000DA
:100E30001E29EC002029ED001A92BF001A32EC00A6
:100E40008002780004852000048342001C92BF00C9
:100E500000439800D6060400000000002009E200CC
:100E600004003A00D49080000484B20001003200F3
:100E70000068EF001AD2BF001EF2B700C4060200DD
:100E8000000000004F037800CF0278000000060049
:100E9000851F78001872EF001E29EF000668EF002A
:100EA00013C8BF000160EF001080B20007003200DD
:100EB0003080B2000B0032001080B2000D00320012
:100EC0002082B200220032003600370024012000C8
:100ED0000449880030C0B30006E8B700D807040012
:100EE000000000003404200004498800D8070400F2
:100EF0000000000020C0B30006E8B7001872EF0041
:100F000018D2BF00944080000024E10009003600A0
:100F10001E89BF0016030200000000008042780016
:100F20000500FB001E29B4001872EC0080070400C5
:100F3000000000001E89BF00160302000000000030
:100F40000000FB0020A9B700D80704000000000043
:100F500012C8BF000160EF00E402020000000000C0
:100F60000000FB001EA9B700F4488000F48FB20017
:100F7000090032001E89BF008C0202000000000040
:100F80000000FB0020A9B700D80704000000000003
:100F9000D207040000000000CA06020000000000A2
:100FA00011003700CA060200000000000E003700E2
:100FB0001748E20008003A0016C8BF000160EF00C1
:100FC000044980000020E1000300360016C8BF007D
:100FD00020E9B7002169EF0010C0B30000E8B700B6
:100FE000D006020000000000CF02780000000600DA
:100FF000851F78001852E20006003A0040C0B30096
:101000000BE8B7002C06020000000000F408040002
:101010000000000050C0B3000BE8B70004892000B6
:10102000D490880010C0B30019F2B700C4908000BB
:101030004822DE007024E1006B00310019D2BF00AD
:1010400026F2B700E4050200000000001C32EF00A9
:1010500019D2BF000160EF001C0202000000000076
:10106000F40F20000024E1002400320001222100BE
:1010700002002000010009008058EB0084002000DD
:10108000E490880019D2BF000160EF004100DD004C
:1010900062020200000000001EB2B70019D2BF00B9
:1010A00024F2B7002572EF00A421210034918800BA
:1010B000D8040200000000001A92BF001E12B40003
:1010C0001AB2B70021F2A8002172A80000C02F00B8
:1010D0002032B6001E92BF00F03FB2002032B700AF
:1010E00019D2BF0034F2B7003572EF00042221009C
:1010F000B4918800F00402000000000019D2BF0083
:101100000160EF000002020000000000F40F200068
:101110000024E1001D003200012221000200200015
:10112000010009008058EB00C42121001420A00018
:1011300019D2BF0024F2B70010C0B30025F2B700E7
:10114000A421210034918800D8040200000000008E
:1011500019D2BF000160EF004100DD00380202003B
:10116000000000001A32B40021D2A80019D2BF003A
:1011700034F2B70010C0B30035F2B70004222100EA
:10118000B4918800F004020000000000E4908000A8
:101190006C20E10002003A00C4012000E4908800C5
:1011A00019D2BF000160EF00000202000000000041
:1011B0006104E10002003200C42121001400A000FB
:1011C00019D2BF000160EF004100DD00A44A2000F9
:1011D00084024000E4908000840298001972EC00C0
:1011E0001608040000000000CF027800000006008E
:1011F00011C8BF000160EF000080B2000D00320096
:101200001080B200140032002080B20021003200B1
:101210006080B2002C0032003080B2003300320017
:10122000E080B200350032001080B2003B00320096
:101230004900370004C8BF0050E8B7005168EF000C
:1012400020C0B3001EF2B700C40602000000000078
:10125000B409040000000000944080006124E10013
:1012600008003A000488BF006100600004A8B700CD
:101270001E72EF00C40602000000000046090400D0
:1012800000000000CA06020000000000B4090400CB
:1012900000000000944080006124E10006003A0054
:1012A0000428A8001E72EF00C4060200000000001F
:1012B0006009040000000000CA06020000000000EF
:1012C000B40904000000000020C0B30000E8B7002B
:1012D00012C8BF001CE9B7001E72EF00C40602006E
:1012E00000000000B40904000000000048070200EC
:1012F00000000000B40904000000000002C8BF00A4
:1013000050E8B70010C0B3001EF2B700C4060200D8
:1013100000000000B40904000000000094408000B8
:101320006124E1000A003E0012C8BF0002E8B700D5
:101330000368EF0012C8BF0018F2B700F8070200F8
:10134000000000001E72EF00C40602000000000052
:10135000B409040000000000CA06020000000000FA
:10136000B40904000000000000000600851F78009A
:1013700002C8BF0018F2B70011C8BF000160EF003B
:101380000080B20005003200A080B2000B003200E5
:101390001080B20025003200350037005068EF00A1
:1013A0005168EF0020C0B3001EF2B700C40602006F
:1013B00000000000400A0400000000001852E20093
:1013C00016003200C49080000960EF00E102520074
:1013D00005007800D602020000000000A440800052
:1013E0000024E1000D003D00A44080000960EF00F2
:1013F00023922000030042008442800000429000BB
:101400008442880010C0B3001EF2B700C406020078
:1014100000000000120A040000000000CA060200DA
:1014200000000000400A0400000000001852E20022
:101430000B003200A44080000960EF0023922000DE
:10144000830242001288BF00804298001E72EF00A3
:10145000C406020000000000340A0400000000007E
:10146000CA06020000000000400A0400000000005C
:10147000CA06020000000000400A0400000000004C
:10148000CF02780000000600851F78001912A9001D
:1014900018F2AF001912A800842121001470A100D5
:1014A000A121210002002000010009008058EB006A
:1014B0001912AE000C0037001BF2A8001B72A80026
:1014C00018D2BF0034F2B70010C0B30035F2B70035
:1014D000A4212100B4918800F00402000000000063
:1014E000820A04000000000018D2BF0034F2B700E6
:1014F0003572EF00A4212100B4918800F0040200AD
:101500000000000018D2BF000160EF004100DD00C4
:10151000A44A20000400400080027800D0FF2F0081
:1015200025006000800A7800CF02780000000600E5
:10153000851F7800A1212100020020000100090080
:101540008058EB001BF2A8001B52A8001912A9003A
:1015500018F2AF001912A800842121001470A10014
:101560000000EB001912AF000000E8008042780094
:10157000801F780018D2BF0034F2B7004F00780007
:101580003412F800F5FF9F003412F900A421210065
:10159000B4918800F004020000000000CF0278003F
:1015A00000000600851F78001912A90018F2AF008C
:1015B0001912A800842121001470A1000000EB0082
:1015C0001912AF000000E80080427800801F780008
:1015D00018D2BF003AF2B7004F0078003A12F80074
:1015E000F5FF9F003A12F900A4212100E491880040
:1015F000AA060200000000001BF2AE000200370045
:101600001B52AF00030037000040EB000C0B04003E
:101610000000000010C0B300CF02780000000600F8
:1016200014C8BF002AF2B7009205020000000000B3
:101630000004E0002F00320011C8BF000160EF007D
:101640001080B200050032002080B2000C00320091
:101650003080B200130032002200370014C8BF00EF
:1016600018F2B700440A0200000000001E72EF00EA
:10167000C4060200000000007A0B04000000000015
:1016800014C8BF0018F2B700980A0200000000005A
:101690001E72EF00C4060200000000007A0B040076
:1016A000000000005068EF005168EF0014C8BF0050
:1016B00018F2B700D20A0200000000000004E000A7
:1016C0000200320010C0B30050E8B70020C0B300E1
:1016D0001EF2B700C4060200000000007A0B0400EE
:1016E00000000000CA060200000000007A0B04009F
:1016F0000000000000000600E0CFB3000FE8B700D4
:1017000000000600A44080006124E10002003200D5
:101710001448E20044003A0016C8BF0018F2B700AF
:1017200017C8BF0019F2B70011C8BF000160EF0071
:101730000080B2000B0032001080B2000F003200B7
:101740001082B200130032001080B2001800320084
:101750003080B200200032001080B200250032003C
:101760002D00370010C0B3006EE9B7007C0B0200FB
:1017700000000000140C04000000000018D2BF009C
:101780001EF2B700C406020000000000140C0400A2
:101790000000000020C0B3006EE9B7002B09A800CC
:1017A0007C0B020000000000140C0400000000008C
:1017B000018520004292200006000900B2587800FE
:1017C00070C0B3001EF2B700C406020000000000A3
:1017D000140C04000000000012C8BF006DE9B7003F
:1017E0001E72EF00C406020000000000140C04008A
:1017F0000000000013C8BF002CE9B70012C8BF00EA
:101800002DE9B7001E72EF00C406020000000000C0
:10181000140C040000000000CA06020000000000D2
:10182000140C040000000000000006000068EF0037
:1018300010C8BF00F007B2000080B20007003200FD
:101840001080B200090032003080B2000B0032007C
:101850003082B2000D00320010003700F80802009C
:1018600000000000560C040000000000B609020051
:1018700000000000560C040000000000100B0200E5
:1018800000000000560C040000000000820B020063
:1018900000000000560C040000000000CA06020010
:1018A00000000000560C04000000000000000600CC
:1018B000C121210002002000010009008058EB0036
:1018C000D49080004822DE006224E10011003A003A
:1018D0001AD2BF003AF2B7003B72EF00E4212100B8
:1018E000E4918800AA060200000000001B72EF00CD
:1018F0001FD2AF001B72EC001B52E200030032004B
:101900000040EB00880C04000000000010C0B30091
:101910001BF2B700D49080004822DE006324E1006F
:101920000C003A001DF2A8001D52A8001AD2BF00F8
:1019300034F2B70010C0B30035F2B700C421210063
:10194000B4918800F004020000000000C20C040002
:1019500000000000D49080004822DE006124E100F5
:1019600005003A001DF2A8001DD2A8001D72A800B3
:10197000C20C0400000000001DF2A8001DD2A90046
:101980001D72A8001AD2BF000160EF004100DD0007
:101990006202020000000000801F780003C02F00D8
:1019A0001C92BF00830160004F0078004002DD0000
:1019B000F43FB20083017200831F78001C12F9000B
:1019C0001AD2BF0034F2B7003572EF00C4212100F3
:1019D000B4918800F004020000000000000006003E
:1019E000851F780034D2BF003AF2B70010C0B300B0
:1019F0003BF2B70064232100E4918800AA060200AC
:101A00000000000034D2BF000160EF004100DD00A3
:101A1000A44A200004004000900278000500E00085
:101A20000200320037F2AE00030037000040EB0046
:101A30001E0D04000000000010C0B300CF027800AB
:101A400000000600C1222100020020000100090060
:101A50008058EB0028D2BF0034F2B700F00C02002F
:101A6000000000000004E0003B00320000C02F0036
:101A70002C32B6002A92BF00F03FB2002C32B700E1
:101A8000449180004822DE006224E10014003A0004
:101A900028D2BF003AF2B70010C0B3003BF2B70043
:101AA000E4222100E4918800AA0602000000000060
:101AB0002972EF002FD2AF002972EC002952E20008
:101AC000030032000040EB006A0D0400000000003B
:101AD00010C0B30029F2B7008C0D04000000000014
:101AE000449180004822DE006424E1000A003A00AC
:101AF00028D2BF003AF2B7003B72EF00E422210087
:101B0000E4918800AA060200000000002972EF009C
:101B10002FD2AF002972EC002DD2A9002912AF00FC
:101B20002DD2A8002D72A8002DF2A80028D2BF0047
:101B300034F2B70010C0B30035F2B700C422210060
:101B4000B4918800F00402000000000010C0B3004F
:101B500000E0B700010037000060EF000000060061
:101B60006EC9BF000160EF001080B20003003200B8
:101B70003080B20007003200100037001E72EF0004
:101B8000C4060200000000006E69EF00E40D0400CE
:101B900000000000419220000281200006000900A0
:101BA000B25878006E69EF001E72EF00C4060200A2
:101BB00000000000E40D0400000000006E69EF006A
:101BC000E40D040000000000000006001AD2BF006F
:101BD0003AF2B7003B72EF00C4212100E491880083
:101BE000AA060200000000001C92BF004602DD00B1
:101BF0004622DE000400780000A0B70000000600C6
:101C00000C08A90020C0B3001AF2B70020C0B3002E
:101C10001BF2B700580C0200000000000000060094
:101C20000C08A8000E68EF0020C0B3001AF2B7003D
:101C3000E60D0200000000000DE8B7000D48E200CC
:101C400002003A00000E0200000000000000060042
:101C50001852E20004003A00B00D0200000000003B
:101C60003E0E040000000000C49080006224E100E9
:101C700002003A00100E0200000000000000060002
:101C80001AD2BF0096E4B7009764EF001A52E20040
:101C90000400320040C0B3000BE8B700560E040049
:101CA0000000000020C0B3000BE8B70000000600F1
:101CB0000228EF000068EF001CC9BF001AF2B7004D
:101CC000400E0200000000000000060028D2BF0005
:101CD00032F2B70029D2BF0033F2B700BE040200CF
:101CE000000000002CB2B70051918000629180008A
:101CF00001000900B2587800000006001AD2BF00A7
:101D000034F2B700F00C0200000000000004E00014
:101D10001A0032001AD2BF0028F2B70010C0B30078
:101D200029F2B7000422210054918800660E0200B7
:101D30000000000001918000E29080001E92BF0030
:101D40000000E9000200390000800900B258780064
:101D50001AD2BF0028F2B7001BD2BF0029F2B70089
:101D60001E12F8002A12F900220D020000000000E5
:101D700003003700BE0E0400000000000060EF000A
:101D8000000006001D49E2000E00320020C0B30032
:101D90001AF2B7001DC9BF001EF2B7001F72EF0094
:101DA00020C0B3001BF2B700E4922000E49088004A
:101DB0007E0E0200000000000004E000010032007E
:101DC0001D69EF0000000600C20E020000000000C6
:101DD000000006001852E2000E003A0004408000A5
:101DE0006124E10004003A00D00602000000000077
:101DF000060F040000000000044080006224E1009F
:101E000002003A00580E020000000000140F040007
:101E100000000000C49080006224E10002003A004B
:101E2000E40E02000000000000000600851F78009C
:101E30009284BF004400DE00FCF1B70095248000CE
:101E4000850FB2000500E00078003A003A72EF001A
:101E50003B72EF00A41F2100E4918800AA06020053
:101E600000000000FBD1BF004202DE00F400B2001F
:101E7000044078000160EF00FEB1B700FBF1A9005B
:101E8000D48F80004822DE00343CB2000400B3004E
:101E900004407800FBF1B7003472EF003572EF00B8
:101EA000A41F2100B4918800F0040200000000008B
:101EB0004606020000000000F48F80006D20E10063
:101EC0003D003A00A11F210002002000010009008E
:101ED0008058EB003472EF0010C0B30035F2B70049
:101EE000A41F2100B4918800F0040200000000004B
:101EF000160C02000000000094A4A90074408000A9
:101F00004822DE00F4CFB20007003A001A72EF0058
:101F100030C0B3001BF2B700580C020000000000F4
:101F2000D80F0400000000003A72EF003B72EF008F
:101F3000A41F2100E4918800AA060200000000000E
:101F4000FD11A900FBD1AF00FD11A800FD11AA00F1
:101F50001A72EF0020C0B3001BF2B700580C020049
:101F600000000000744080004822DE00E4CFB20090
:101F70000F0032000000EB00FD11AF000000E80090
:101F8000804278002872EF00801F78000FC8BF00E1
:101F90002AF2B7004F0078002B72EF002812F800E9
:101FA000F5FF9F002812F900220D0200000000003A
:101FB0001210040000000000F48F80006120E10096
:101FC00018003A001872EF00280E0200000000000E
:101FD0001A72EF0020C0B3001BF2B700580C0200C9
:101FE00000000000744080004822DE00E4CFB20010
:101FF0000C003200744080004822DE00F4CFB200B2
:10200000080032002872EF000FC8BF002AF2B700A4
:102010002B72EF0010C0B30029F2B700220D0200AE
:1020200000000000681004000000000095248000FB
:10203000850FB2006828E10015003A00460602004C
:1020400000000000F0CFB3000FE8B7001872EF00F7
:10205000EA0E020000000000744080004822DE000A
:10206000F4CFB200080032002872EF000FC8BF00A2
:102070002AF2B7002B72EF0020C0B30029F2B7009C
:10208000220D0200000000006810040000000000A3
:102090009264AF000800370046060200000000000E
:1020A000FCD1BF0018F2B700280E020000000000AB
:1020B0006810040000000000460602000000000056
:1020C000FCD1BF0018F2B700EA0E020000000000C9
:1020D000CF02780000000600851F7800F871EF003D
:1020E0000B48E20001003A003F0037008A84BF003D
:1020F0008C04B600800278000500E00005003A007C
:102100008084BF008204B600800278000500E000F1
:10211000350032008084AE00040037008284AE00B7
:102120000200370066040200000000008824AE00B0
:10213000010037002C0037008AE4AE0004003700AD
:102140008CE4AE00020037006405020000000000CD
:102150008A24AE00040037008C24AE000200370051
:102160007C050200000000008A04AE000400370075
:102170008C04AE0002003700580602000000000088
:102180008A84AE00040037008C84AE000200370061
:1021900096060200000000008A44AE0004003700EA
:1021A0008C44AE00020037009C06020000000000D4
:1021B0008A64AE00060037008C64AE00040037006D
:1021C000160F020000000000EC10040000000000E8
:1021D000F410040000000000F8D1BF00F871EC001A
:1021E0006404E100F2FF3900CF027800000006002D
:1021F000DE030200000000009424EF008C24EF00B6
:10220000A624EF00A824EF009404AF0003003700D9
:102210009404A800041104000000000010C0B300E2
:102220000BE8B70000000600851F78008EC0AE00E6
:10223000020037006C100200000000008464AE0051
:10224000060037009404AF0002003700F8100200C7
:102250000000000036110400000000009404AE00ED
:102260000200370008040200000000005440800013
:102270004822DE006124E1000B003A0094C4AF0064
:1022800009003700A4482000D48F88009203020080
:10229000000000008C24EF0014012000642488005A
:1022A00020C0B3000BE8B700CF02780000000600A2
:1022B00002C8BF0000E0B700000006008460AE0066
:1022C00007003700B831EC000081BF000000E800D3
:1022D0004220AF000021EF008460A9000900370010
:1022E0000081BF008460AE0007003700B831EC0009
:1022F0000081BF000000E8004220AF000021EF0095
:102300008460A9000081BF00C18D800062002000B0
:102310008180D3000080D3000201E900FCFF3A0075
:10232000000006005E1102000000000000A0B700DF
:1023300000000600851F7800E44880004822DE0087
:10234000F3032000041CE10002003E00E0C3B300E0
:102350001DE9B7001DC9BF001D69EC000080FB002E
:10236000E492200084024000F291BF008042980075
:10237000CF02780000000600F0D1BF00F2F1B700F4
:102380009A1102000000000020C0B30034F2B70030
:10239000F00C0200000000000004E00001003A0020
:1023A000040037001411020000000000C20E0200F9
:1023B0000000000000000600F4032000E348800055
:1023C000C819DE00034052000004E0000C003A008F
:1023D00020C0B30034F2B700F00C0200000000008F
:1023E0000004E00002003200C20E02000000000003
:1023F0001411020000000000DC11040000000000C5
:10240000EED1BF00F0F1B700BC11020000000000E7
:1024100000000600851F78000C08AF00040037009C
:1024200014110200000000000C1204000000000063
:102430000EC8BF000E68EC000080FB00B4892000CD
:1024400004004000B48F800000429000B48F8800E8
:102450000DC8BF00744080000024E1000200390074
:10246000000E020000000000F6D1BF0000E0B7003F
:10247000CF02780000000600851F7800F671EF009B
:10248000F771EF00B48F80004822DE006224E10083
:1024900021003100F491BF00140420001024E10059
:1024A0000D003C00F6D1BF000160EF00C402DD006A
:1024B000F491BF0000027800144078000000FB0097
:1024C000850240001504B1006A804200F6F1B700B1
:1024D0008212040000000000F6D1BF000160EF008E
:1024E000C402DD00F491BF000002780014407800BF
:1024F0000000FB008502400004032000048052001D
:10250000F6F1B700F7D1BF00F771EC00F431EC0041
:102510004212040000000000F6D1BF0000E0B70046
:10252000CF027800000006004200F800801F78000B
:1025300081E0A90014028000040EB3001402880098
:1025400081E0A800013B880054052000343B88004E
:10255000A40A2000343B880061E7A80000000000C6
:10256000000000004F00780081E0A9004200F9005F
:1025700081E0A80000000600851F7800C50020004B
:1025800003000900B51F78000300A1000310A1009B
:102590000300E000340032000000A1000200A100AE
:1025A000A102880080007800F4FF2F00F0072000CF
:1025B0000100600008003200811F7800C708DE00BB
:1025C000C708DD008408BB008498BB00620050008F
:1025D000FCFF3A00CF007800F03F200001006000CF
:1025E00006003A008008BB00811F78002104240007
:1025F0009412020000000000CF007800B208BB0077
:10260000B298BB000100E0004220AF005420EC0073
:10261000F00720000080600005003A00811F78006C
:10262000110024009412020000000000CF00780086
:10263000E4815100E8FF3A00F007200000806000CC
:1026400009003200F4FF2F008408BB008498BB000F
:10265000F007200000806000FBFF3A00110024001A
:102660009412020000000000250120000300090070
:10267000CF127800CF02780000000600A44D800041
:10268000F3FF2F000418E10004003A00B44D80006D
:10269000F3FF2F000418E10011003200B489BF00DD
:1026A000B14D8000A10288000008BB002104240075
:1026B0009412020000000000B489BF00B14D8000F8
:1026C000829B200003802000BC120200000000005A
:1026D000F0FF2F00F1FF2F00B4A9B700B14D880023
:1026E00000000600A10288000300E0001300320091
:1026F0000000AF00060037003059BA008301E9003E
:102700000E0032001059BA008301E9000B003200BC
:102710000000E90030D9BA008301E9000700320067
:102720000059EB008301E9000000E8000000E00030
:102730004220AF005420EC00EBFF37000000060001
:10274000851F7800861F7800EE11F800F611F90059
:1027500000C02F00F631B600F011F800F811F900B2
:10276000748F8000B38F800003005200FAB1B7006D
:10277000F411E20050003200F691BF00B409E3000A
:1027800003003A00F891BF00B609E3000C003200E4
:102790003E13020000000000F611F800B409F90031
:1027A000F811F800B609F900F691BF00C18F80005A
:1027B000829B2000038020007213020000000000B2
:1027C000FA91BF004100DD000480200000005200AB
:1027D000FEB1B700B48F800003802A000418E10026
:1027E0000F003A00C48F80006220E1000C003A0024
:1027F000F48F80007020E10003003100FE31EF0013
:102800000A14040000000000F48F800070005200E1
:10281000FEB1B700FE11E20001003A00F431EF0012
:10282000FE91BF00A48F80000020E100040036006C
:10283000FE11F800FC11F90024140400000000004F
:10284000F411F800FC11F900D58F8000C12ADD00D9
:10285000849B20000483420086007800928F8000D1
:10286000FC91BF000000E90002003900008009006F
:10287000B2587800F291BF00FC11B400F2B1B70079
:1028800004402000B38F800004804100F6B1B700FF
:10289000C48F800060004A00F8B1B700FA31EF0041
:1028A000A48F8000E38F800003005200F4B1B700D2
:1028B000B8130400000000004F037800CF02780036
:1028C000000006000000E0004220AF0004003700D6
:1028D0007B3E0900000000000000E900FCFF3A0018
:1028E00000000600851F7800C500200004000900D4
:1028F000B51F7800BC31A900C231EF00CA31EF002A
:10290000EC71EF00BC31AF0000013700648F800034
:102910000960EF00230420000320B8008002780043
:102920002497200004834200004BEB0000C0B3005A
:1029300010439800648F80000960EF00230420009A
:102940000320B80080027800E2824200648F800099
:102950000960EF00230420000320B8000003780082
:102960002497200004004300900378000580430072
:1029700024972000840240000A1202000000000098
:10298000804A7800648F80000960EF0023042000F3
:102990000320B80080027800E2824200648F800049
:1029A0000960EF00230420000320B8000003780032
:1029B000249720008403430017007800970BE80059
:1029C0000004780005004400249720000400400023
:1029D000904278008502FB006D28E1000C00320077
:1029E000648F80000960EF00230420000320B800FA
:1029F00080027800249720000480420010057800AF
:102A0000040420000A20E10001003900C9FF37005A
:102A100030C1B300EEF1B700DC110200000000008D
:102A2000BC11A800A44B8000A4C3B200A7003A00C8
:102A300054972000A48F88003C1202000000000080
:102A4000CAF1B700CB71EF0074972000A48F880003
:102A50003C120200000000008042780094972000A1
:102A6000A48F88003C1202000000000000437800A0
:102A7000C011F800E6FF9F00C011F9000540780082
:102A8000C1F1B700B4972000A48F88003C12020067
:102A900000000000BEF1B700168E8000058E800099
:102AA000258E8800368E8800C631D500C4B1D70087
:102AB000BD71EF0014002000448E8800944B80000C
:102AC00063005200448E80000020E1000E003100BF
:102AD00040972000C811B40080027800A58F8800BC
:102AE0003C1202000000000080427800054078009F
:102AF000BD71B400448E800062004200C8B1B700CE
:102B00005E15040000000000E48D80004822DE0015
:102B1000F30F20008482510061C04200BDF1B70074
:102B2000944B8000E302520044972000048342004B
:102B3000A68F88003C12020000000000BD51E30097
:102B400003003200BC11A90062160400000000005E
:102B5000F48D80006124E10003003A00BC31A8003C
:102B60006216040000000000F48D80006424E1007F
:102B700011003A00D4972000A48F88003C12020074
:102B80000000000080427800F4972000A48F8800A5
:102B90003C1202000000000000437800C211F8005F
:102BA000E6FF9F00C211F90005407800C3F1B700AD
:102BB0006216040000000000BE51E20041003A002D
:102BC00094002000448E8800BF71EF00944B800079
:102BD00063005200448E80000020E10011003100AB
:102BE000BFD1BF00BF71EC000080FB00C41C2100FE
:102BF0008402400040972000C811B4000003780010
:102C0000A68F88003C12020000000000804A780075
:102C1000448E800062004200C8B1B700E61504008F
:102C200000000000348E80006020E10025003900A3
:102C300004003E00248E8000030022000418E100FE
:102C400020003E00558E8000060020001400200069
:102C50000960EF0005007800860078000402E800B3
:102C60000402E900030032008100D1000080D3009B
:102C7000FBFF3700248E800084024000348E8000E9
:102C8000048348006230E1000E003E00030039007A
:102C900084BF2A000520E1000A003900C411F800B1
:102CA000EE11F900C611F800F011F900C41C210062
:102CB000948F8800CA11F800F411F900A0130200E3
:102CC000000000006E16040000000000A44B80000D
:102CD000B4C3B20001003200BC11A900BC11AE00A7
:102CE0000400370060C0B300EEF1B700DC11020051
:102CF0000000000010C1B300EEF1B700DC110200CB
:102D00000000000082140400000000003E130200D6
:102D10000000000060C0B300EEF1B700DC1102005B
:102D20000000000010C1B300EEF1B700DC1102009A
:102D300000000000500020006214020000000000AB
:102D40000000FE004501200004000900CF127800B9
:102D5000CF027800000006000FF82700F0FF2700E0
:102D600020A0B7000000000081E0A8000600FC00E1
:102D7000217420006204200073052000824878003E
:102D80008348780042C7A90090F12300A4A6B700A9
:102D900010F12300ACA6B700B0002000CAA6B7000F
:102DA00030002000D4A6B70000A02000DCA6B700A9
:102DB0000600FC002174200062042000730520003E
:102DC000824878008348780042C7A8000B68EF006B
:102DD000F0FF2F00F1FF2F00B4A9B700B14D88001C
:102DE000B831EF000021EF000421EF0002A1EF0055
:102DF00004032800240888008460A900E224EF006E
:102E0000E424EF00E624EF00EA24EF00EC24EF00D6
:102E10000440200044408800C0C0B3000AE8B70066
:102E20007029EF00E024EF005400200014278800F0
:102E3000E424EF00E624EF00E824EF00EA24EF00AA
:102E4000EC24EF00DE24EF002223EF0040A7A900CE
:102E50004E04020000000000E802A800EA02AF00F1
:102E6000250037000C08AF002100370014110200C4
:102E70000000000058110200000000000004E00003
:102E80001900320092110200000000008002780058
:102E9000D48D80008482520034B720000520E100E8
:102EA000110031009211020000000000BAB1B70019
:102EB00001002000010078000160EF0054030200CF
:102EC000000000008100E800811F7800EEF1B700EB
:102ED000DC11020000000000CF007800100120008B
:102EE0000008E600F3FF370032170400000000007E
:102EF0007214020000000000002004000000000026
:042F00000040FE008F
:020000040005F5
:1057F000FFFF00FFFFFC00FFE24B00FF3E3F00FF0A
:00000001FF
;PIC24FJ256GB206
;CRC=7B46  CREATED="30-Sep-16 08:44"
