:040000000DEF0BF005
:0800080004EF0CF00000000001
:1000100000000000000000000CEF0CF01000F76A78
:100020002E0FF66E000EF7220900F55012000003A5
:1000300002FFFFFFFFFFFFFFFFFFFFFFFFFFF76A6A
:100040004E0FF66E000EF7220900F550120000FF69
:1000500002FFFFFFFFFFFFFFFFFFFFFFFFFFF76A4A
:100060006E0FF66E000EF7220900F55012004000E8
:100070000B00400000000000000000000000000035
:100080000000000000000000000000000000F76A0F
:100090009E0FF66E000EF7220900F5501200400088
:1000A0000000400000000000000000000000000010
:1000B0000000000000000000000000000000F76ADF
:1000C000CE0FF66E000EF7220900F550120009025D
:1000D0004300020100803209040000010202010015
:1000E0000524001001042402020524060001052451
:1000F000010001070581030B00FA09040100020A4F
:1001000000000007050202400001070582024000CE
:100110000100F76A220FF66E010EF7220900F55072
:1001200012000200F76A340FF66E010EF722090082
:10013000F550120012171B20FFFFFFFFF76A4C0F4C
:10014000F66E010EF7220900F5501200120110019F
:100150000200004005240C00000101020001F76AC2
:100160006E0FF66E010EF7220900F550120004031F
:1001700009040803430043005300260343004300DF
:1001800053002000430044004300200042004F0081
:100190004F0054004C004F00410044004500520005
:1001A000426F6F746C6F616465722052656164792F
:1001B0000D0A0000F16BF06B250EEF6F800EEE6FF5
:1001C000EEC01AF0EFC01BF01C6A1D6AEE6BEEC0A9
:1001D0001EF0EE6BEEC01FF0080EEE6FEEC020F0CA
:1001E000646B6391226A216A626B0D90656B0AEF02
:1001F00001F0176A166AED6BED5101080AE3036A14
:10020000ED51180FE96E000E0320EA6EEF6AED2B38
:10021000F3D7D0D7076A010E086E066A1200609203
:10022000606A646A080E626E116AE3DF1200F7DF2B
:1002300039EF0BF06092649465A402D06594FCD70A
:100240006598C2EF07F0400E0401016F040E000133
:10025000EE6F180EEEC003F4E8CF02F4880E04012E
:10026000006F046B040E076F580E066F000112003A
:100270006AA002D0E8DF6A90659AC9EF07F0676A62
:100280006592CEEF07F0FA91F9BFFA81F99FF95123
:10029000100803E2000E016E16D0FAA10BD0036A1B
:1002A000F951BDDEFF0802E1000E01D0010E016E22
:1002B0000AD009D0036AF951C2DEFF0802E1000E3C
:1002C00001D0010E016E1200FE5101010003F3CFB7
:1002D00001F0F4CF00F00103F35000260001FF51BC
:1002E00001010003F3500020026E00011200036AB6
:1002F000F8516A0FE96E0F0E0320EA6EEF6AF8C03C
:10030000F9F0C1DF015226E0FF6BF8C0FEF00101F9
:10031000016B080E006F0001D7DF01C0E9FF040E7A
:100320000224EA6EEF6AFF6BF8C0FEF00101016B78
:10033000080E006F0001C8DF02C0FAF001C0F9F03A
:10034000040EF927000EFA23F9C0E9FF040EFA257E
:10035000EA6EEF6A1200010EF76FF7510F0805E31E
:10036000F7C0F8F0C4DFF72BF8D71200659612003B
:10037000666A646A676A656A636A6A6AECDF39DFBB
:10038000160E6A6E65A602D0F1DFFCD79F0E666E70
:100390003D0E646E609857DF030E116ED3EF07F0C9
:1003A000648464986082D8EF07F0659CDDEF07F005
:1003B000F2C012F0120012681200F06B1650171003
:1003C0002DE0F0513F082AE3095005E0020A09E058
:1003D000010A0DE011D015C003F0145070DEF16F6A
:1003E0000BD015C003F01450BADEF16F05D015C064
:1003F00003F01450A3DEF16F142AD8B4152A165056
:10040000D8B417061606F051F02B580FE96E040EFB
:10041000EA6ED8B0EA2AF1C0EFFFD0D71650171015
:1004200004E1F051400801E0066AF0C0F2F0C0DFDC
:100430001200EF6B156A146A096A04011B51010A64
:10044000000107E0030A0BE0010A0DE0220A25E0A3
:100450003DD0176A120E166E030E096E39D0176A58
:10046000430E166E35D0020E096EEF6B04011A5161
:100470000001EF5D09E215C003F0145070DE142690
:10048000000E1522EF2BF2D715C003F0145067DED3
:10049000036A166E03C017F01BD0036A04011A51D9
:1004A000000140DE036A146E03C015F0143C02D054
:1004B00015520AE015C003F0145001DE036A166EEF
:1004C00003C017F005D002D076DF11D074DF0FD053
:1004D00004011F5308E1175203E116501E5D03E2A9
:1004E000176A1EC416F0010E066E000166DFA9EF42
:1004F00003F0EF5304E1040E116E2DDFD5D0050E8D
:10050000116E040EF26F980EF16F010EF06FF05144
:100510000F08D8A0C9D0F0C0F8F0E9DEF36B036A89
:10052000F0518DDDFF0861E0040EF36FD890F035D7
:10053000036AADDD0900F5CF03F0F46F03C0F5F0F9
:10054000FF6BF0C0FEF00101016B080E006F0001AF
:10055000BBDE01C0F7F0010E0124016E000E022087
:10056000036E01C0E9FF040E0324EA6EF4C0EFFF3E
:10057000FF6BF0C0FEF00101016B080E006F00017F
:10058000A3DE01C0F7F0020E0124016E000E02206E
:10059000036E01C0E9FF040E0324EA6EF2C0ECFF13
:1005A000ED52F1C0EFFFD890F035036A70DD09001D
:1005B000F5CF03F0F1270350F223880EF66FF5A173
:1005C00001D0F681F5A301D0F683FF6BF0C0FEF0F9
:1005D0000101016B080E006F000176DE01C0E9FF2A
:1005E000040E0224EA6EF6C0EFFF036AF05117DD35
:1005F000FF0844E0F383FF6BF0C0FEF00101016BE4
:10060000080E006F000160DE02C0F8F001C0F7F0D4
:10061000040EF727000EF823020EF725016E000ED8
:10062000F821036E01C0E9FF040E0324EA6EF2C054
:10063000ECFFED52F1C0EFFFD890F035036A0FDD0B
:100640000900F5CF03F0F1270350F223FF6BF0C050
:10065000FEF00101016B080E006F000135DE02C0E3
:10066000F8F001C0F7F0040EF727000EF823F7C0EA
:10067000E9FF040EF825EA6E400EEF6EF35106080E
:1006800002E10E0EF36F036AF051C9DC010801E0CC
:10069000F389036AF0516A0FE96E0F0E0320EA6EC8
:1006A000F3C0EFFFF02B33D7A3EF03F00401195190
:1006B000000A00010DE0010A14E0020A1FE0060A28
:1006C00029E0030A2EE00E0A2EE0010A32E040D0B3
:1006D00008C058F40401596B020E0001F26F68DE85
:1006E00038D004011A2D07D0010E08160001F26B54
:1006F0005FDE03D0040100015EDE2BD004011A2D61
:1007000006D008820001F26B53DE03D00401000121
:1007100052DE1FD0020E066E1AC413F0F26B48DED2
:1007200018D087D616D007C058F4010EF26F40DEFD
:1007300010D004011A51010809E31AC407F01AC4C1
:10074000EFF00001D6D6F26B33DE0401000101D0D8
:1007500032DE27EF05F007C0EFF004011951000A5F
:10076000000105E00A0A0BE0010A26E037D0040187
:10077000586B596B020E0001F26F1ADE30D0EF5346
:1007800019E0010EEF5D036AC4DC016E04011C5D1B
:10079000D8A002D000010ED0036A1C51180FE96ED8
:1007A000000E0320EA6EEFCF58F4010E0001F26F45
:1007B000FFDD01D000DE13D0EF530EE0036A040129
:1007C0001C51180FE96E000E0320EA6E1AC4EFFFE9
:1007D0000001F26BEDDD01D0EEDD01D0ECDD27EFA5
:1007E00005F0F091EFBFF081EF9FF0A119D0FF6B02
:1007F000EFC0FEF00101016B080E006F000164DD27
:1008000002C0F2F001C0F1F0040EF127000EF22355
:10081000F1C0E9FF040EF225EA6E880EEF6E0FD0EC
:10082000FF6BEFC0FEF00101016B080E006F0001CD
:100830004BDD01C0E9FF040E0224EA6EEF6A036A91
:10084000EF516A0F016E0F0E032201C0E9FF03C0D2
:10085000EAFFEF90A8EF04F0F091EFBFF081EF9F77
:10086000F0A119D0FF6BEFC0FEF00101016B080E83
:10087000006F000129DD02C0F2F001C0F1F0040EAA
:10088000F127000EF223F1C0E9FF040EF225EA6E13
:10089000840EEF6E10D0FF6BEFC0FEF00101016B14
:1008A000080E006F000110DD01C0E9FF040E0224F4
:1008B000EA6E840EEF6EAEEF04F0F091EFBFF081C0
:1008C000EF9FF0A119D0FF6BEFC0FEF00101016BAB
:1008D000080E006F0001F8DC02C0F3F001C0F2F076
:1008E000040EF227000EF323F2C0E9FF040EF325F5
:1008F000EA6EEFCFF1F010D0FF6BEFC0FEF0010118
:10090000016B080E006F0001DFDC01C0E9FF040E7F
:100910000224EA6EEFCFF1F0F1AF02D0F1B502D0D0
:10092000000E01D0010E016EB8EF04F01CC4F9F006
:10093000AADC015228E004011951010A000105E076
:10094000020A09E0030A0DE01DD01CC4EFF049D7EC
:10095000F26B2EDD18D01CC4EFF07ED7F26B28DDD1
:1009600012D00401586B596B1CC4EFF00001A5D7DD
:10097000015204E0010E0401586F0001020EF26FF3
:1009800017DD01D018DD27EF05F0FE0E126E120004
:1009900004011C2D01D002D01C533FE11FC4F0F014
:1009A0001EC4EFF01951000A00010BE0010A0DE02E
:1009B000210A0FE0010A12E0030A21E0010A24E003
:1009C0002AD0010E656FE1DF27D0EFC0F2F0F0DC36
:1009D00023D0020E656F6381D8DF1ED0040EEA6E4D
:1009E000580EE96EE26A1A0EE16E070E016EE6CF4E
:1009F000EEFF012EFCD7070EF26FDADC0DD01AC421
:100A000064F0F26BD5DC08D01AC422F01BC421F0CC
:100A1000F26BCEDC01D0CFDC0401000127EF05F042
:100A2000066A040118517F0B000A000107E0010A61
:100A300007E0030A07E0230A07E008D037D607D00B
:100A40008AD605D073D703D0A3D701D0B4DC6CEF1E
:100A500007F0FF6BF0C0FEF00101016B080E006FA4
:100A6000000132DC01C0E9FF040E0224EA6EEFCF80
:100A7000F2F0F151020806E1F2AD02D0F16B02D0C2
:100A8000010EF16FF15103081BE1840EF26FFF6B51
:100A9000F0C0FEF00101016B080E006F000114DCD4
:100AA00002C0F6F001C0F5F0040EF527000EF623A3
:100AB000F5C0E9FF040EF625EA6E840EEF6E07D04E
:100AC000F12D03D0C80EF26F02D0880EF26FD890CD
:100AD000F035036A47EC00F00900F5CF03F0F36F3F
:100AE00003C0F4F0FF6BF0C0FEF00101016B080ED3
:100AF000006F000164EC01F001C0F5F0010E01246B
:100B0000016E000E0220036E01C0E9FF040E0324F3
:100B1000EA6EF3C0EFFFF4A101D0F281F4A301D09B
:100B2000F283FF6BF0C0FEF00101016B080E006F55
:100B3000000164EC01F001C0E9FF040E0224EA6E3A
:100B4000F2C0EFFF1200036AFD516A0FE96E0F0E4B
:100B50000320EA6EEF521DE0FF6BFDC0FEF00101C5
:100B6000016B080E006F000164EC01F002C0FFF0A1
:100B700001C0FEF0040EFE27000EFF23FEC0E9FFB9
:100B8000040EFF25EA6EEFCF00F1010100AF03D0A4
:100B90000001000E02D0010E0001016E1200F8C02B
:100BA000FDF0D1DF0152D8B499D0FF6BF8C0FEF050
:100BB0000101016B080E006F000164EC01F002C03E
:100BC000FEF001C0FDF0040EFD27000EFE23010E15
:100BD000FD25016E000EFE21036E01C0E9FF040E2B
:100BE0000324EA6EF9C0EFFFFB51020820E1FF6B1E
:100BF000F8C0FEF00101016B080E006F000164EC0B
:100C000001F002C0FEF001C0FDF0040EFD27000E51
:100C1000FE23FDC0E9FF040EFE25EA6EEFCFFCF0D7
:100C2000FCAD02D0FB6B02D0010EFB6F1AD0FB5162
:100C3000040817E1FF6BF8C0FEF00101016B080E1C
:100C4000006F000164EC01F001C0E9FF040E022412
:100C5000EA6EEFCFFCF0FCAD03D0010EFB6F01D0CC
:100C6000FB6BFB2D03D0480EFC6F02D0080EFC6F0F
:100C7000FF6BF8C0FEF00101016B080E006F000170
:100C800064EC01F002C0FEF001C0FDF0040EFD278F
:100C9000000EFE23FDC0E9FF040EFE25EA6EFCC037
:100CA000EFFFFF6BF8C0FEF00101016B080E006F53
:100CB000000164EC01F002C0FEF001C0FDF0040E82
:100CC000FD27000EFE23FDC0E9FF040EFE25EA6E9F
:100CD000EF508009EF6E010E016E02D0000E016E22
:100CE00012006551010A03E0030A06E017D0F26B17
:100CF000D8EC01F0656B13D0EA6A1A0EE96E040EA7
:100D0000E26E180EE16E070E016EE6CFEEFF012EC9
:100D1000FCD7656BF26BD8EC01F001D0656BC6EFC8
:100D200006F0FF6BF0C0FEF00101016B080E006FD2
:100D3000000164EC01F002C0F2F001C0F1F0010E1C
:100D40000124016E000E0220036E01C0E9FF040EB3
:100D50000324EA6E036AEFCF01F003C002F0BCEF98
:100D600006F00D90020EF06FF16F73DE12000D8031
:100D70000F6A020EF06FD5D701C00EF00E5201E1DE
:100D8000F0DFCBEF06F0EF5302E1ABD704D0EF5129
:100D9000020801E1ECD71200F0C063FFF05303E05A
:100DA000040E116E02D0020E116EDCEF06F0076A1F
:100DB000066A13C0F0F0F0D74BEF07F0F0C0FDF07B
:100DC000C2DE015245E0FF6BF0C0FEF00101016B95
:100DD000080E006F000164EC01F002C0F9F001C0E0
:100DE000F8F0040EF827000EF923020EF825016E24
:100DF000000EF921036E01C0E9FF040E0324EA6E20
:100E0000ECCFF7F0ED52EFCFF6F0F7C0EAFFF6C007
:100E1000E9FFF2C0E2FFF1C0E1FFF4C002F0F3C06D
:100E200001F0015202E0022A02D0025206E0E6CFAF
:100E3000EEFF012EFCD7022EFAD7F0C0F8F0F4C076
:100E4000FAF0F3C0F9F0F5C0FBF0A9DE015002D0D2
:100E5000000E016E39EF07F062530EE0020EF06FE4
:100E6000F26B230EF16FF46B62C0F3F0020EF56FBC
:100E7000A5D7015201E0626B1200EEDF50EF07F0E0
:100E8000EF530AE1062C03D0DDEC01F004D006504C
:100E90000208D8B48CD704D0EF51020801E1EDD795
:100EA00012001030ED6FED33ED331F0EED171052C1
:100EB00041E1040100513C0B0001EE6F430E0401BF
:100EC00000170001EE5134081EE104010451800BAB
:100ED00001E0046B0001A4D56098123C05D0F06BD2
:100EE000030EF16FB6DD0ED0F06B020EF16FB1DDC7
:100EF0001250FE0807E0F86BFA6B12C0F9F0040E0E
:100F0000FB6F4DDE16D0EE51040813E1EF6B3BDFB3
:100F1000F06B020EF16F9DDD1250FE080AE0123CEC
:100F200001D007D0F86BFA6B12C0F9F0010EFB6F1D
:100F300036DE1AD0105004080EE11268EF6BA0DF05
:100F4000123C01D007D0F86BFA6B12C0F9F0020E18
:100F5000FB6F25DE09D010B404D0EDC0EFF013DF35
:100F600003D0EDC0EFF08CDFE7EF07F0A49411524F
:100F7000D8B433D06552D8B430D065A403D064B4AB
:100F80001AEF01F060B229D065AA03D064BA38EF35
:100F900001F065A203D064B23FEF01F065A003D079
:100FA00064B0B8EF01F065A803D064B8D0EF01F0E9
:100FB00065AC03D064BCD5EF01F0EC6B65A608D03E
:100FC00064A606D061CF10F0B6EC01F06AD701D06C
:100FD00004D0EC51EC2B0308F1E203EF08F0F9EC3C
:100FE00000F06092606A608C00D000D00000609CCD
:100FF000140E626E646A6086010E116E09EF08F0CD
:10100000A4A401D0B3D7938481A404D060B601D046
:10101000E6D704D060A602D00FEC01F0112C08D066
:1010200060BA06D0656A646A110E646E020E116EB3
:1010300012000750016E40EF0BF0D650D7CF03F0EF
:10104000F2A405D0AA2BF294D650D7CF03F0006EAD
:1010500003C001F0AAC002F00232013200320232B3
:1010600001320032023201320032023201320032E9
:101070000232013200323EEF08F0DFD701C002F049
:1010800000C001F0120062513E0802E23E0E626FA3
:101090006251622B036A230FE96E000E0320EA6E91
:1010A000E7C0EFFF57EF08F0E6C0E7F0ECD7020E1D
:1010B000FD6F49DD015201E102D0A2DFCDDE70EF0C
:1010C00008F03F0ED880625508E1020EFD6F3BDD4F
:1010D000015201E0C1DE94DFF4D7E5C0E6F0E4D7C9
:1010E00012000900F5520CE0F6CFAFF0F7CFB0F0E8
:1010F000F5CFE5F0E6DFAFC0F6FFB0C0F7FFF1D700
:101100005DEF0BF00DB002D07BDFFCD70F500F2A44
:10111000A30FE96E040EEA6ED8B0EA2AEFCFEBF027
:101120000E500F5C01E31DDEEBC001F059EF09F03A
:10113000EB6BEC6BEC5101082BE3EAC003F0E9C068
:10114000E9FFEAC0EAFFEF50400810E2EB51100D52
:10115000F3CFEDF0EAC003F0E9C0E9FFEAC0EAFF2F
:10116000EF50ED25BF0F0A0FEB6F0CD0EB51100DB8
:10117000F3CFEDF0E9C0E9FFEAC0EAFFEF50ED255B
:10118000D00FEB6FEC51EC2BE92BD8B4EA2BD2D774
:10119000EBC001F01200F250036EF29EA68EA68400
:1011A0000F01550EA76EAA0EA76EA682000003506F
:1011B000F21200011200D08CA69CF6503F0B006E7C
:1011C000C00EF6160A00E6C002F0E5C001F00066A7
:1011D0000BD0EECFF5FF016602D0025206E00F0001
:1011E0000106D8A0020603D000060B000C003F0E3B
:1011F000F6143F0AECE1A688CEDFCDDF0266E7D722
:101200000166E5D7F86A96EF0AF0EA6AE50EE96E3C
:10121000EF500EE00F0E016E006A002EFED7012E79
:10122000FBD78F0E006E002EFED70000EF2EF2D7F8
:101230000AEF0BF0AF93B56BB46BBE6BBD6BDF6B9E
:10124000AFB3DFD1DF51420DF350E66BE56F680EAF
:10125000E525E96E000EE621EA6EEC6AED52EF6AD2
:10126000DF51420DF350E66BE56F020EE527000EED
:10127000E623DF51420DF350E86BE76F680EE72578
:10128000E96E000EE821EA6EECCFEAF0ED52EFCF06
:10129000E9F0E951E525016EEA51E621036E0150BE
:1012A000680F016E000E032201C0E5F003C0E6F0F6
:1012B00029D7E6C0EAFFE5C0E9FF01C0EFFFDF5133
:1012C000420DF350E66BE56F020EE527000EE623B4
:1012D000DF51420DF350E86BE76F680EE725E96ECA
:1012E000000EE821EA6EECCF03F0ED50EFCF00F0F6
:1012F000010EEE2601E3EF2A00C0E9F003C0EAF098
:101300000050E525016E0350E621036E0150680F81
:10131000E96E000E0320EA6EEF500D0815E0DF5174
:10132000420DF350E66BE56F680EE525E96E000EA1
:10133000E621EA6EECCFECF0ED52EFCFEBF0EC53A0
:1013400003E1EB5140088CE2130EE56FBADEAF818A
:101350006A513A08D8A448D1EA6B6B0EE96FE8DE0F
:10136000BE6B01C0BDF0EA6B6D0EE96FE1DE01C03E
:10137000E5F0EA6B6F0EE96FDBDEE5C0B3F001C0AC
:10138000B2F0EA6B710EE96FD3DE01C0B1F0B5C007
:10139000B9F0B4C0B8F0B3C0B7F0B2C0B6F0B06B3B
:1013A000BC6B010EBB6F030E685D006E000E6959C9
:1013B000036E00C001F0BC51035C18E303E101506F
:1013C000BB5D14E26A0EBB25016E000EBC21036EEC
:1013D00001C0E5F0E66FEA6F01C0E9F0A9DE015057
:1013E000B027020EBB27000EBC23DDD7FF0ED8802E
:1013F000B055010FB06F030E685DE56F000E6959BF
:10140000E66F6A0EE525016E000EE621036E01C04F
:10141000E7F0E86FEA6F01C0E9F08ADE0150B05DE5
:1014200002E0AF91E0D0B12D02D0AF83DCD0B1515A
:10143000040811E1EA6B730EE96F7ADE01C0E5F092
:10144000EA6B750EE96F74DE01C0E6F0E5C0B5F039
:1014500001C0B4F0C8D0B153D8A4C5D0BC6B090E3C
:10146000BB6FBA6B030E685D006E000E6959036EA8
:1014700000C001F0BC51035C27E303E10150BB5DF8
:1014800023E2BA51BA2B036ABF0F016E000E03228A
:1014900001C0E5F003C0E6F06A0EBB25016E000E48
:1014A000BC21036E01C0E7F0E86FEA6F01C0E9F00C
:1014B0003FDEE6C0EAFFE5C0E9FF01C0EFFF020E34
:1014C000BB27000EBC23CED7B953D8A405D0B85340
:1014D00003E1B75117082BE2E86BE76BBEC0E6F0FB
:1014E000BD51E56FB625E96FBE51B721EA6FE751EF
:1014F000B821EB6FE851B921EC6FEC5318E1EB53D5
:1015000016E1EA51800813E303E1E95100080FE313
:10151000B8C0F8FFB7C0F7FFB6C0F6FFEA6ABF0E63
:10152000E96EBEC0E6F0BDC0E5F045D65CD0B9536B
:1015300003E1B851EF0857E2B95355E1B851F0084B
:1015400052E303E1B75100084EE3E46B000EB65DD1
:10155000E06F000EB759E16FF00EB859E26F000E60
:10156000B959E36FBEC003F0BD51D8B4BE07BD0783
:10157000031039E0E351036EE251026EE151016E56
:10158000E051006E010EE027D8B0E12BD8B4E22B79
:10159000D8B4E32B03C0E8F002C0E7F001C0E6F0E6
:1015A00000C0E5F0E451E42B036ABF0FE96E000EC2
:1015B0000320EA6EEFCFE9F0F250006EF29EE5C034
:1015C000A9FFE9C0A8FFA69CA69EA6840F01550E00
:1015D000A76EAA0EA76EA682A6B2FED7A69400504A
:1015E000F2120001BFD704D06A513B0801E0AF916D
:1015F000AFA103D0060EE56F64DD110EE56F61DD6E
:101600001FD6060EE56F5DDD110EE56F5ADD050E86
:10161000E56FFBD5FF005FEF0BF0F86AD09EAA6B79
:10162000870ED56ED76AD66AF294AC6BAB6B0F019E
:101630005B6B5C6B5D6B5E6B5F6B0101886B9A6AC9
:10164000996A986A0A6A040E0B6E0C0E0C6E000101
:10165000666B676BC150F00BC16E010E0F015B6FC3
:10166000000E5F6F5C6F5D6F5E6FD190000117EFD2
:1016700001F0928880B823D00DB020D0C1DCD9D43D
:1016800001521BE0FADC02C0B0F001C0AFF0AD5176
:10169000AF5FAE51B05BB05110080FE2FF0A03E13B
:1016A000AF512B080AE2E9DC02C0AEF001C0ADF098
:1016B000A00EF66E010EF76E14D5DED7BBD500EF87
:0416C0000CF0030027
:020000040030CA
:0E00000023225A3E00C181000FC00FC00F40E6
:00000001FF
;PIC18F45K50
;CRC=C5CB  CREATED="30-Sep-16 09:52"
