:08000000FE1B040000000000DB
:04000C000C200000C4
:100010001020000014200000182000001C20000008
:100020002020000024200000282000002C200000B8
:100030003020000034200000382000003C20000068
:100040004020000044200000482000004C20000018
:100050005020000054200000582000005C200000C8
:100060006020000064200000682000006C20000078
:100070007020000074200000782000007C20000028
:100080008020000084200000882000008C200000D8
:100090009020000094200000982000009C20000088
:1000A000A0200000A4200000A8200000AC20000038
:1000B000B0200000B4200000B8200000BC200000E8
:1000C000C0200000C4200000C8200000CC20000098
:1000D000D0200000D4200000D8200000DC20000048
:1000E000E0200000E4200000E8200000EC200000F8
:1000F000F0200000F4200000F8200000FC200000A8
:100100000021000004210000082100000C21000053
:100110001021000014210000182100001C21000003
:100120002021000024210000282100002C210000B3
:100130003021000034210000382100003C21000063
:100140004021000044210000482100004C21000013
:100150005021000054210000582100005C210000C3
:100160006021000064210000682100006C21000073
:100170007021000074210000782100007C21000023
:100180008021000084210000882100008C210000D3
:100190009021000094210000982100009C21000083
:1001A000A0210000A4210000A8210000AC21000033
:1001B000B0210000B4210000B8210000BC210000E3
:1001C000C0210000C4210000C8210000CC21000093
:1001D000D0210000D4210000D8210000DC21000043
:1001E000E0210000E4210000E8210000EC210000F3
:1001F000F0210000F4210000F8210000FC210000A3
:100400005420EF00C3202000008041001040BA00BB
:100410000160EF00000006000003000002FF000082
:10042000FFFF0000FFFF0000FFFF0000FFFF0000D4
:10043000FFFF0000FFFF00005420EF008322200098
:10044000008041001040BA000160EF00000006008B
:1004500000FF000002FF0000FFFF0000FFFF0000A0
:10046000FFFF0000FFFF0000FFFF0000FFFF000094
:100470005420EF0023242000008041001000BA0027
:1004800000000600400000000B00000040000000DB
:10049000000000000000000000000000000000005C
:1004A000000000000000000000000000000000004C
:1004B000000000000000000000000000000000003C
:1004C000000000005420EF00C326200000804100FF
:1004D0001000BA000000060040000000000000000C
:1004E00040000000000000000000000000000000CC
:1004F00000000000000000000000000000000000FC
:1005000000000000000000000000000000000000EB
:1005100000000000000000005420EF00E302200073
:100520008301500005003100832A20000080410033
:100530001040BA000160EF0000000600802A200091
:1005400083814100808141001380BA0000000600D1
:1005500009020100430000000201020000800A00BD
:100560003209000004000000000100000202070040
:1005700001000500052402000010020001044000F3
:100580002402000002050100240607000001050006
:1005900005248200010002000107400005810000DF
:1005A000030B010000FA0000090400005420EF00D2
:1005B000232E2000008041001040BA000160EF00AF
:1005C00000000600020000005420EF00032F20006E
:1005D000008041001040BA000160EF0000000600FA
:1005E000121700001B200000FFFF0000FFFF0000AB
:1005F0005420EF0043302000008041001040BA003A
:100600000160EF0000000600120100001001000070
:100610000200000000400000052400000C00000063
:100620000001000001020000000100005420EF0062
:1006300023022000830150000500310023332000F5
:10064000008041001040BA000160EF000000060089
:100650002033200083814100808141001380BA0053
:100660000000060004034F000904000008035400C2
:100670004300000043004C005300000026034F00DD
:1006800043000000430041005300000020004400EC
:1006900043000000440045004300000020005200D9
:1006A000420000004F0000005420EF0003362000FD
:1006B000008041001040BA000160EF000000060019
:1006C000426F00006F7400006C6F000061640000F6
:1006D000657200002052000065610000647900002E
:1006E0000D0A0000000000004200F8003600F8008B
:1006F0005400F800801F7800200020000C00090042
:10070000B01F7800A00120000C0009004F107800F5
:100710004F0078005400F9003600F9004200F9005B
:10072000004006000000E0004220AF000400370057
:100730007B3E0900000000000000E900FCFF3A00D9
:10074000000006005000200092030200000000009C
:1007500000000600A203020000000000A203020045
:1007600000000000A203020000000000A20302003B
:1007700000000000A20302000000000000000600CC
:10078000851F7800C512810080CAEB00F0CFB3004E
:1007900090429800CF027800000006000458220022
:1007A000944B88007429EF0041922000229720008A
:1007B00001000900B25878002669EF002769EF00B0
:1007C0006F69EF0081922000F2962000B258780005
:1007D0006F69EF0091922000F2962000B2587800E5
:1007E00080C0B3006FE9B700A1922000F29620000C
:1007F000B25878006D69EF002B09A9002C29EF0091
:100800001D69EF000C08A9006E69EF0000000600EA
:10081000851F78002029EF0004002000C412890001
:10082000C01281006200E10009003100C0128100A5
:100830002492200084024000804AEB00C012810014
:100840000000E800C012890010040400000000004D
:10085000CE030200000000000228EF001400200078
:10086000244088000068EF00CF02780000000600F6
:100870006C25EF006425EF0064562000C412890047
:10088000C00302000000000024562000C4128900AA
:10089000C0030200000000005A25EF006005A80018
:1008A0007E25EF008025EF006C25A8000B68EF0087
:1008B0006E25EF0021582000020020001F000900D3
:1008C0008058EB00012021000200200017000900E1
:1008D0008058EB0024012000842B88007A25EF004B
:1008E0007C25EF006C25A900080402000000000030
:1008F0006CA5A9005EE5A9005EC5A9005EE5A8009B
:10090000000006003804020000000000000006009D
:10091000851F7800F5128100041381000960EF0043
:10092000100020000400DD00800A7800CF0278006B
:10093000000006006025A9005A85A9000013810067
:1009400040C0B3000013890084552000F4128900D0
:1009500088040200000000000013810040C0B300C2
:100960000013890024562000F41289008804020034
:100970000000000000000600851F7800F0138100D1
:100980000160EF000004E0000C003A00F013810069
:100990004800DE000004E000040032004420210092
:1009A00004148900DA04040000000000042021007F
:1009B00004148900FA04040000000000F41381000C
:1009C0000960EF00E10252004328DD00E802400028
:1009D0007E22F8004F0078004800DE000160EF0042
:1009E0004200DD0085024000042021000480420016
:1009F000001489008022F8000000F900CF0278007E
:100A000000000600801381007E22F800E0FF9F00B6
:100A10007E22F9007022F8004F0078004800DE00C6
:100A20007E22F800F0FF9F007E22F900BC04020045
:100A300000000000901389009013810062004000C4
:100A4000901389007222F8000000F90000000600EF
:100A5000401381007022F800E0FF9F007022F9002F
:100A60006822F8004F0078004800DE007022F8008D
:100A7000F0FF9F007022F900020502000000000054
:100A80006013890061138100521381000100090085
:100A9000B258780000000600851F7800A01381007E
:100AA0007E22F800E0FF9F007E22F9007422F80009
:100AB0004F0078004800DE007E22F800F0FF9F0023
:100AC0007E22F900BC04020000000000C01389006F
:100AD000C5138100B01381001002780084029800D1
:100AE000CF027800000006008125220002002000CD
:100AF000010009008058EB0004C02F00C3128100E0
:100B0000830162000404200083017200C312890083
:100B1000C012810001E0A800C0128900C01281004B
:100B20000160A800C012890004812000D41289004D
:100B30004013810000C0B3004013890040138100BE
:100B40000160EF0040138900A4252200541389009E
:100B50002805020000000000A013810000C0B300BF
:100B6000A0138900A01381000160EF00A013890089
:100B700084252200B41389004C0502000000000007
:100B80008125220002002000010009008058EB00AE
:100B9000A013810000C0B300A0138900A01381003E
:100BA0000080FD0010C0B3000080FD00A01389008C
:100BB00084252200B41389004C05020000000000C7
:100BC00004852000D41289004013810000C0B300C6
:100BD00040138900401381000080FD0010C0B30065
:100BE0000080FD0040138900A425220054138900D1
:100BF0002805020000000000000006008225AE006B
:100C00000300370074050200000000008225A900DF
:100C10000013810070C0B300001389002456200027
:100C2000F4128900880402000000000000000600A1
:100C300064562000C4128900C003020000000000B6
:100C40000013810010C0B300001389002456200057
:100C5000F412890088040200000000000000060071
:100C6000851F78006E22F8004F0278004822DE00CF
:100C70000800A900731381000370A7000800A800F2
:100C80006E22F800F4FF9F006E22F90070138100BD
:100C90000160EF000070A1006E22F800E0FF9F00ED
:100CA0006E22F900701381000160EF007004E10012
:100CB000020036000060EF001D0037007413810051
:100CC0000480A6000E003700701381000160EF0061
:100CD0000002020000000000F40F20000024E100E8
:100CE00003003A000040EB007A0604000000000018
:100CF00010C0B3000E00370098060400000000008A
:100D0000701381000160EF001C020200000000006F
:100D1000F40F20000024E10003003A000040EB0043
:100D2000960604000000000010C0B3000000370069
:100D3000CF02780000000600851F78005013810064
:100D40000160EF004100DD002458200084024000D3
:100D5000804AEB0000C0B30090429800501381001D
:100D60006E22F800E0FF9F006E22F90030060200BC
:100D7000000000000004E0001C003200C126220038
:100D800002002000010009008058EB005013810090
:100D90007422F800E0FF9F007422F900A013810084
:100DA0000160EF00A0138900C4262200B41389005B
:100DB0004C05020000000000501381007422F8006E
:100DC000E0FF9F007422F900A01381000080FD0065
:100DD00010C0B3000080FD00A0138900C4262200CB
:100DE000B41389004C05020000000000CF02780017
:100DF000000006004013810010C0B30040138900BA
:100E0000401381000160EF007004E1000D0031002B
:100E1000401381006A22F800E0FF9F006A22F90077
:100E20009C06020000000000401381000040E80022
:100E30006822F800E0FF9F006822F9000007040024
:100E400000000000000006000013810030C0B30065
:100E50000013890024562000F4128900880402003F
:100E6000000000000400090000000000000006006F
:100E700064562000C4128900C00302000000000074
:100E800024562000C4128900C003020000000000A4
:100E9000F4092000442B880094092000242B8800AA
:100EA0006E25EF000804020000000000FA060200B0
:100EB00000000000D4002000142C88006265AE0001
:100EC0000400370024070200000000005E07040051
:100ED000000000006CA5A9007405020000000000DD
:100EE00030C0B3000BE8B700000006005A85A80028
:100EF0006485A900000006000013810020C0B30033
:100F00000013890024562000F4128900880402008E
:100F10000000000000000600851F7800C01381005B
:100F20007E22F800E0FF9F007E22F9007822F80080
:100F30004F0078004800DE007E22F800F0FF9F009E
:100F40007E22F900BC04020000000000E0138900CA
:100F5000D5138100E013810010027800840298000C
:100F6000CF02780000000600201381000FE8B700D0
:100F700000000600F0CFB3000FE8B7000000060045
:100F8000851F7800861F7800040020001413890054
:100F90002009E20033003200101381000404200015
:100FA0000020E1002F00360006C8BF000160EF00FE
:100FB0000080B200050032002080B2000B00320039
:100FC0001080B20011003200180037001E89BF00E7
:100FD0008C020200000000006022F800E0FF9F0089
:100FE0006022F90016080400000000001E89BF00FE
:100FF00016030200000000006022F800E0FF9F00DE
:101000006022F90016080400000000001E89BF00DD
:10101000F8020200000000006022F800E0FF9F00DC
:101020006022F90016080400000000001E29EC00F0
:101030002029ED0010138100801F78000000E800D7
:10104000101389004F00780080027800048520008A
:10105000048342000013810000439800C807040085
:10106000000000002009E20005003A001013810092
:10107000040420000020E100010032000068EF00BD
:10108000101381006422F800E0FF9F006422F90041
:10109000B4070200000000004F037800CF02780080
:1010A00000000600851F7800F012810000C0B30028
:1010B000F01289001E29EF000668EF0013C8BF0078
:1010C0000160EF001080B200070032003080B200F3
:1010D0000B0032001080B2000D0032002082B200FE
:1010E000290032003D003700240120000449880017
:1010F00030C0B30006E8B700F408040000000000A8
:101100003404200004498800F408040000000000B2
:1011100020C0B30006E8B700F012810000C0B300A1
:10112000F0128900F01281000160EF00944080000D
:101130000024E1000D0036001E89BF0016030200E6
:1011400000000000804278000500FB001E29B4006A
:10115000F01281000040E8005E22F800E0FF9F00EE
:101160005E22F90092080400000000001E89BF0002
:1011700016030200000000000000FB0020A9B700D9
:10118000F40804000000000012C8BF000160EF0076
:10119000E4020200000000000000FB001EA9B700EE
:1011A000F4488000F48FB200090032001E89BF00AD
:1011B0008C020200000000000000FB0020A9B70024
:1011C000F408040000000000EE0804000000000025
:1011D000BA0702000000000011003700BA07020041
:1011E000000000000E0037001748E20008003A0037
:1011F00016C8BF000160EF00044980000020E10034
:101200000300360016C8BF0020E9B7002169EF00CF
:1012100010C0B30000E8B700C007020000000000E3
:10122000CF02780000000600851F7800F0128100D0
:101230000160EF000004E00006003A0040C0B30087
:101240000BE8B700FA06020000000000960A04004E
:101250000000000050C0B3000BE8B7000489200074
:1012600004138900F01281000080FD0010C0B3005B
:101270000080FD00F0128900F01281004800DE00BD
:101280007004E100A90031005E22F8004F007800F0
:101290004800DE006A22F800E0FF9F006A22F900A1
:1012A0009C060200000000000400200014138900C6
:1012B0005E22F8004F0078004800DE000160EF0079
:1012C0001C02020000000000F40F20000024E100D6
:1012D0003A003200612622000200200001000900CD
:1012E0008058EB0084002000141389005E22F8006F
:1012F0004F0078004800DE000160EF004100DD0093
:101300006202020000000000201389005E22F80043
:101310004F0078004800DE006822F800E0FF9F00E0
:101320006822F900401381000160EF00401389003A
:101330000426220054138900280502000000000042
:101340000013810024138100040040000013890071
:101350003013810001E0A8003013890030138100B0
:101360000160A8003013890020138100331381002D
:10137000CA19DE00CA19DD004002DD00F43FB200E8
:1013800083017200331389005E22F8004F00780059
:101390004800DE007422F800E0FF9F007422F9008C
:1013A000A01381000160EF00A013890064262200D1
:1013B000B41389004C050200000000005E22F80012
:1013C0004F0078004800DE000160EF0000020200DC
:1013D00000000000F40F20000024E1003200320081
:1013E0006126220002002000010009008058EB0065
:1013F000101381000020A000101389005E22F80065
:101400004F0078004800DE006822F800E0FF9F00EF
:101410006822F900401381000080FD0010C0B30075
:101420000080FD0040138900042622005413890027
:1014300028050200000000005E22F8004F0078003E
:101440004800DE000160EF004100DD0038020200CC
:101450000000000004138100040040000013890014
:101460003013810001C0A800301389005E22F8000B
:101470004F0078004800DE007422F800E0FF9F0073
:101480007422F900A01381000080FD0010C0B30099
:101490000080FD00A013890064262200B413890097
:1014A0004C05020000000000101381006C00E100F8
:1014B00002003A00C4012000141389005E22F800E3
:1014C0004F0078004800DE000160EF0000020200DB
:1014D000000000006104E1000300320010138100ED
:1014E0000000A000101389005E22F8004F00780071
:1014F0004800DE000160EF004100DD0024582000BC
:10150000840240001413810084029800F0128100CC
:101510004800DE000040E8005E22F800F0FF9F0077
:101520005E22F9003C09040000000000CF027800B0
:101530000000060011C8BF000160EF000080B2008B
:101540000D0032001080B200150032002080B20081
:10155000240032006080B200310032003080B200DE
:101560003A003200E080B2003C0032001080B2004D
:10157000430032005500370004C8BF0050E8B700F0
:101580005168EF002013810020C0B30020138900B0
:10159000B4070200000000006E0B04000000000011
:1015A000944080006124E1000A003A000488BF00F2
:1015B0006100600004A8B7002013810000C0B300E0
:1015C00020138900B407020000000000EE0A0400A6
:1015D00000000000BA070200000000006E0B0400CB
:1015E00000000000944080006124E10008003A00FF
:1015F0000428A8002013810000C0B3002013890034
:10160000B4070200000000000C0B04000000000002
:10161000BA070200000000006E0B0400000000008A
:1016200020C0B30000E8B70012C8BF001CE9B70033
:101630002013810000C0B30020138900B40702000A
:10164000000000006E0B04000000000052080200C1
:10165000000000006E0B04000000000002C8BF0084
:1016600050E8B7002013810010C0B3002013890098
:10167000B4070200000000006E0B04000000000030
:10168000944080006124E1000E003E0012C8BF00BB
:1016900002E8B7000368EF0012C8BF005E22F8003E
:1016A000E0FF9F005E22F900140902000000000024
:1016B0002013810000C0B30020138900B40702008A
:1016C000000000006E0B040000000000BA070200DA
:1016D000000000006E0B0400000000000000060087
:1016E000851F780002C8BF005E22F800E0FF9F005F
:1016F0005E22F90011C8BF000160EF000080B20057
:1017000005003200A080B2000C0032001080B20050
:10171000290032003D0037005068EF005168EF00AB
:101720002013810020C0B30020138900B4070200F9
:10173000000000000E0C040000000000F012810008
:101740000160EF000004E00017003200F412810095
:101750000960EF00E102520005007800D6020200A5
:1017600000000000A44080000024E1000E003D00C5
:10177000A44080000960EF00239220000300420093
:10178000844280000042900084428800201381003F
:1017900010C0B30020138900B4070200000000004D
:1017A000D80B040000000000BA070200000000008F
:1017B0000E0C040000000000F01281000160EF0038
:1017C0000004E0000D003200A44080000960EF003A
:1017D00023922000830242001288BF0080429800BA
:1017E0002013810000C0B30020138900B407020059
:1017F00000000000020C040000000000BA07020014
:10180000000000000E0C040000000000BA070200F7
:10181000000000000E0C040000000000CF02780061
:1018200000000600851F78005E22F8004F02780055
:101830004822DE000800A900F31281000370A7000F
:101840000800A8005E22F800F4FF9F005E22F90065
:10185000F01281000160EF000070A1005E22F8002C
:10186000E0FF9F005E22F900012622000200200016
:10187000010009008058EB00F41281000480A600EA
:10188000150037000013810001E0A8000013890053
:10189000001381000160A80000138900F01281008C
:1018A0007422F800E0FF9F007422F900A013810069
:1018B0000080FD0010C0B3000080FD00A01389006F
:1018C00004262200B41389004C0502000000000029
:1018D000820C040000000000F01281007422F80065
:1018E000E0FF9F007422F900A01381000160EF0067
:1018F000A013890004262200B41389004C050200BD
:1019000000000000F01281000160EF004100DD00E6
:10191000245820000400400080027800154278001E
:10192000D44FB20084429800CF0278000000060035
:10193000851F780001262200020020000100090016
:101940008058EB000013810001E0A800001389001B
:10195000001381000140A800001389005E22F800F6
:101960004F0278004822DE000800A900F31281002F
:101970000370A7000800A8005E22F800F4FF9F0093
:101980005E22F900F01281000160EF000070A100FA
:101990005E22F800E0FF9F005E22F900F412810051
:1019A0000000EB000480A7000000E80080427800FF
:1019B000801F7800F01281007422F800E0FF9F0081
:1019C0007422F9004F0078007422F800F5FF9F00A0
:1019D0007422F90004262200B41389004C05020089
:1019E00000000000CF02780000000600851F78008C
:1019F0005E22F8004F0278004822DE000800A900AD
:101A0000F31281000370A7000800A8005E22F8000E
:101A1000F4FF9F005E22F900F01281000160EF00E8
:101A20000070A1005E22F800E0FF9F005E22F90036
:101A3000F41281000000EB000480A7000000E80021
:101A400080427800801F7800F01281007822F80030
:101A5000E0FF9F007822F9004F0078007822F8001C
:101A6000F5FF9F007822F90004262200D413890094
:101A70008C070200000000000413810004F0A6009F
:101A8000030037000413810004A0A70003003700FF
:101A90000040EB00500D04000000000010C0B30037
:101AA000CF0278000000060014C8BF006E22F800C4
:101AB000E0FF9F006E22F9003006020000000000E7
:101AC0000004E0003A00320011C8BF000160EF00DE
:101AD0001080B200050032002080B20010003200F9
:101AE0003080B2001B0032002D00370014C8BF0048
:101AF0005E22F800E0FF9F005E22F900120C020057
:101B0000000000002013810000C0B30020138900F2
:101B1000B407020000000000D80D0400000000001F
:101B200014C8BF005E22F800E0FF9F005E22F900AB
:101B3000980C0200000000002013810000C0B300D8
:101B400020138900B407020000000000D80D040033
:101B5000000000005068EF005168EF0014C8BF009B
:101B60005E22F800E0FF9F005E22F900F60C020002
:101B7000000000000004E0000200320010C0B300CA
:101B800050E8B7002013810020C0B3002013890063
:101B9000B407020000000000D80D0400000000009F
:101BA000BA07020000000000D80D04000000000089
:101BB00000000600E0CFB3000FE8B7000000060009
:101BC000A44080006124E100020032001448E200D9
:101BD0004F003A0016C8BF005E22F800E0FF9F00E9
:101BE0005E22F90017C8BF005E22F800F0FF9F00D8
:101BF0005E22F90011C8BF000160EF000080B20052
:101C00000B0032001080B2000F0032001082B200D0
:101C1000150032001080B2001A0032003080B2008D
:101C2000230032001080B2002A0032003400370056
:101C300010C0B3006EE9B700DA0D0200000000002A
:101C4000880E040000000000F01281006422F800F9
:101C5000E0FF9F006422F900B407020000000000CA
:101C6000880E04000000000020C0B3006EE9B70039
:101C70002B09A800DA0D020000000000880E040005
:101C800000000000018520004292200006000900AB
:101C9000B25878002013810070C0B300201389006F
:101CA000B407020000000000880E040000000000DD
:101CB00012C8BF006DE9B7002013810000C0B30057
:101CC00020138900B407020000000000880E040001
:101CD0000000000013C8BF002CE9B70012C8BF0005
:101CE0002DE9B7002013810000C0B3002013890044
:101CF000B407020000000000880E0400000000008D
:101D0000BA07020000000000880E04000000000076
:101D1000000006000068EF0010C8BF000160EF007F
:101D2000F007B2000080B200070032001080B2005D
:101D3000090032003080B2000B0032003082B20065
:101D40000D003200100037009A0A02000000000067
:101D5000CC0E040000000000700B02000000000028
:101D6000CC0E040000000000540D02000000000032
:101D7000CC0E040000000000E00D02000000000096
:101D8000CC0E040000000000BA07020000000000B2
:101D9000CC0E0400000000000000060021262200F6
:101DA00002002000010009008058EB0000138100B0
:101DB0004800DE006204E1001D003A0000138100CB
:101DC0007822F800E0FF9F007822F900C01381001C
:101DD0000160EF00C013890044262200D41389005B
:101DE0008C07020000000000241381008001EB003A
:101DF00004E0A7008301E8006022F800F3FF9F00E1
:101E00006022F900001381004800DE000004E000B9
:101E1000030032000040EB00120F0400000000003D
:101E200010C0B3006022F800F0FF9F006022F900AC
:101E3000001381004800DE006304E10015003A0051
:101E40001013810001E0A800101389001013810015
:101E50000140A80010138900001381007422F800CB
:101E6000E0FF9F007422F900A01381000080FD00B4
:101E700010C0B3000080FD00A013890024262200BA
:101E8000B41389004C050200000000007A0F040022
:101E900000000000001381004800DE006104E10042
:101EA0000B003A001013810001E0A8001013890014
:101EB0001013810001C0A8001013890010138100C5
:101EC0000160A800101389007A0F040000000000D0
:101ED0001013810001E0A800101389001013810085
:101EE00001C0A90010138900101381000160A8002F
:101EF00010138900001381000160EF004100DD0034
:101F0000620202000000000013138100CA19DE0003
:101F1000CA19DD004002DD00F43FB2008301720007
:101F200013138900001381007422F800E0FF9F0062
:101F30007422F900A01381000160EF00A013890052
:101F400024262200B41389004C0502000000000082
:101F500000000600851F7800A01381007822F80099
:101F6000E0FF9F007822F900C01381000080FD008F
:101F700010C0B3000080FD00C01389006427220058
:101F8000D41389008C07020000000000A013810018
:101F90000160EF004100DD002458200004004000F3
:101FA000900278000500E00003003200B4138100C5
:101FB00004F0A600030037000040EB00E40F04002B
:101FC0000000000010C0B300CF027800000006003F
:101FD000E126220002002000010009008058EB00E9
:101FE000501381007422F800E0FF9F007422F90072
:101FF000AA0F0200000000000004E00065003200AB
:102000006013810073138100CA19DE00CA19DD0054
:102010004002DD00F43FB2008301720073138900B7
:10202000501381004800DE006204E10021003A0004
:10203000501381007822F800E0FF9F007822F90019
:10204000C01381000080FD0010C0B3000080FD00BF
:10205000C013890004272200D41389008C070200D2
:1020600000000000841381008001EB0004E0A70061
:102070008301E8006A22F800F3FF9F006A22F9005A
:10208000501381004800DE000004E000030032002D
:102090000040EB00501004000000000010C0B3002E
:1020A0006A22F800F0FF9F006A22F90086100400FF
:1020B00000000000501381004800DE006404E100CD
:1020C00012003A00501381007822F800E0FF9F00D0
:1020D0007822F900C01381000160EF00C01389006D
:1020E00004272200D41389008C070200000000009E
:1020F000841381008001EB0004E0A7008301E80065
:102100006A22F800F3FF9F006A22F9006E22F800AD
:102110004F0278004822DE0008C0A9006A22F800B9
:10212000CF017800C819DE000300A70008C0A8008E
:102130006E22F800F4FF9F006E22F90070138100F8
:102140000160A800701389007013810001E0A800ED
:1021500070138900501381007422F800E0FF9F0083
:102160007422F900A01381000080FD0010C0B300AC
:102170000080FD00A0138900E4262200B41389002A
:102180004C0502000000000010C0B30000E0B700E2
:10219000010037000060EF00000006006EC9BF00BC
:1021A0000160EF001080B200030032003080B20006
:1021B00009003200140037002013810000C0B30072
:1021C00020138900B4070200000000006E69EF00D0
:1021D0000A1104000000000041922000028120004A
:1021E00006000900B25878006E69EF0020138100E4
:1021F00000C0B30020138900B407020000000000F3
:102200000A110400000000006E69EF000A110400CA
:102210000000000000000600001381007822F80092
:10222000E0FF9F007822F900C01381000160EF00F9
:10223000C013890024262200D41389008C070200D1
:102240000000000013138100461ADD004622DE0064
:102250000400780000A0B700000006000C08A900E8
:102260000013810020C0B300001389000013810017
:102270000080FD0020C0B3000080FD000013890035
:10228000CE0E020000000000000006000C08A800AE
:102290000E68EF000013810020C0B3000013890016
:1022A0000C110200000000000DE8B7000D48E2002C
:1022B00002003A002E11020000000000000006009B
:1022C000F01281000160EF000004E00004003A0019
:1022D000CE100200000000007C110400000000008D
:1022E000F01281000160EF006204E10002003A0098
:1022F00046110200000000000000060000138100EB
:102300006EE5B7006F65EF00001381000160EF001C
:102310000004E0000400320040C0B3000BE8B70046
:10232000981104000000000020C0B3000BE8B700C3
:10233000000006000228EF000068EF001CC9BF0083
:102340006022F800E0FF9F006022F9007E11020089
:102350000000000000000600501381007022F80009
:10236000E0FF9F007022F9006A22F8004F00780019
:102370004800DE007022F800F0FF9F007022F90094
:102380000205020000000000701389006113810043
:102390007213810001000900B258780000000600A5
:1023A000001381007422F800E0FF9F007422F900FE
:1023B000AA0F0200000000000004E0002500320027
:1023C000001381006A22F800E0FF9F006A22F900F2
:1023D000501381000080FD0010C0B3000080FD009C
:1023E000501389006426220064138900AC11020096
:1023F00000000000311381001213810020138100BE
:102400000000E9000200390000800900B25878009D
:10241000001381006A22F800E0FF9F006A22F900A1
:102420006022F8004F0078004800DE006A22F800C1
:10243000F0FF9F006A22F9006422F8006C22F90084
:10244000E80F020000000000030037002A12040019
:10245000000000000060EF00000006001D49E200DF
:10246000160032000013810020C0B3000013890061
:102470001DC9BF006422F800E0FF9F006422F9003C
:10248000201381000160EF002013890000138100F8
:102490000080FD0020C0B3000080FD000013890013
:1024A000E492200014138900D01102000000000003
:1024B0000004E000010032001D69EF00000006008A
:1024C0002E1202000000000000000600F012810041
:1024D0000160EF000004E0000E003A0004408000BC
:1024E0006124E10004003A00C0070200000000007F
:1024F0008612040000000000044080006224E10015
:1025000002003A009A110200000000009612040036
:1025100000000000F01281000160EF006204E100A1
:1025200002003A00601202000000000000000600F5
:10253000851F78006A85BF004400DE005822F8003D
:10254000E0FF9F005822F900552B8000850FB20054
:102550000500E000C7003A00C013810000C0B300CE
:10256000C0138900C01381000160EF00C01389000F
:10257000A4252200D41389008C070200000000006B
:102580005A22F8004F0078004800DE004202DE00C8
:10259000F400B200044078000160EF00E01289000E
:1025A000D012810001E0A900D0128900D41281006C
:1025B0004822DE00343CB2000400B3005A22F80086
:1025C000F4FF9F005A22F900A013810000C0B3005D
:1025D000A0138900A01381000160EF00A0138900FF
:1025E000A4252200B41389004C050200000000005D
:1025F0002407020000000000E01281006D00E100ED
:102600006F003A00A125220002002000010009000D
:102610008058EB00A013810000C0B300A013890014
:10262000A01381000080FD0010C0B3000080FD00F9
:10263000A0138900A4252200B41389004C050200D0
:10264000000000008A0E0200000000006CA5A90036
:10265000744080004822DE00F4CFB2000C003A0043
:102660000013810000C0B300001389000013810033
:102670000080FD0030C0B3000080FD000013890021
:10268000CE0E020000000000DC1304000000000079
:10269000C013810000C0B300C0138900C0138100C3
:1026A0000160EF00C0138900A4252200D413890023
:1026B0008C070200000000005822F8004F0278004A
:1026C0004822DE000800A9005A22F800CF01780055
:1026D000C819DE000360A7000800A8005822F8000F
:1026E000F4FF9F005822F9005822F8004F027800AA
:1026F0004822DE000800A9005822F800CF01780027
:10270000C819DE000300A6000800A8005822F8003F
:10271000F4FF9F005822F9000013810000C0B300AD
:1027200000138900001381000080FD0020C0B30069
:102730000080FD0000138900CE0E020000000000A2
:10274000744080004822DE00E4CFB2001A0032005C
:10275000C41281000000EB000480A7000000E80024
:1027600080427800801F78005013810000C0B300C1
:10277000501389004F007800801F78000FC8BF00F9
:102780006C22F800E0FF9F006C22F9004F007800F7
:10279000801F7800601381000160EF0060138900E2
:1027A0004F0078006A22F800F5FF9F006A22F900C6
:1027B000E80F0200000000003614040000000000D2
:1027C000E01281006100E10028003A00F01281006F
:1027D00000C0B300F0128900601102000000000088
:1027E0000013810000C0B3000013890000138100B2
:1027F0000080FD0020C0B3000080FD0000138900B0
:10280000CE0E020000000000744080004822DE006E
:10281000E4CFB20015003200744080004822DE0090
:10282000F4CFB200110032005013810000C0B30099
:10283000501389000FC8BF006C22F800E0FF9F0012
:102840006C22F900601381000160EF0060138900C1
:10285000501381000080FD0010C0B3000080FD0017
:1028600050138900E80F020000000000AA140400C1
:1028700000000000552B8000850FB2006828E100A1
:1028800020003A002407020000000000F0CFB3004F
:102890000FE8B700F012810000C0B300F012890009
:1028A0006612020000000000744080004822DE0032
:1028B000F4CFB200110032005013810000C0B30009
:1028C000501389000FC8BF006C22F800E0FF9F0082
:1028D0006C22F900601381000160EF006013890031
:1028E000501381000080FD0020C0B3000080FD0077
:1028F00050138900E80F020000000000AA14040031
:10290000000000006A65AF000A00370024070200DB
:1029100000000000C01281005E22F800E0FF9F006E
:102920005E22F9006011020000000000AA140400F9
:10293000000000002407020000000000C012810017
:102940005E22F800E0FF9F005E22F900661202009E
:1029500000000000CF02780000000600851F78000C
:10296000B012810000C0B300B01289000B48E20031
:1029700001003A00440037006285BF006405B600DC
:10298000800278000500E00005003A005885BF008D
:102990005A05B600800278000500E0003A003200D7
:1029A0005885AE00040037005A85AE00020037009B
:1029B0009A040200000000006025AE00010037000C
:1029C0003100370062E5AE000400370064E5AE0078
:1029D00002003700FE050200000000006225AE0084
:1029E000040037006425AE0002003700180602001C
:1029F000000000006205AE00040037006405AE0070
:102A00000200370038070200000000006285AE00B7
:102A1000040037006485AE0002003700760702002C
:102A2000000000006245AE00040037006445AE00BF
:102A3000020037007C070200000000006265AE0063
:102A4000060037006465AE000400370098120200EB
:102A500000000000321504000000000044150400CE
:102A600000000000B0128100801F78000040E800E4
:102A70005622F800E0FF9F005622F9004F00780030
:102A80006404E100EDFF3900CF0278000000060089
:102A900008040200000000006C25EF006425EF0030
:102AA0007E25EF008025EF006C05AF0003003700A6
:102AB0006C05A800541504000000000010C0B3000D
:102AC0000BE8B70000000600851F780092C0AE003A
:102AD00002003700AE140200000000005C65AE008A
:102AE000060037006C05AF000200370048150200F1
:102AF0000000000086150400000000006C05AE0018
:102B0000020037003804020000000000544080003A
:102B10004822DE006124E1000B003A006CC5AF00E2
:102B20000900370024562000C4128900C0030200A7
:102B3000000000006425EF0014012000242B880011
:102B400020C0B3000BE8B700CF02780000000600F9
:102B500002C8BF0000E0B700000006008860AE00B9
:102B6000070037007629EC009081BF000000E800E4
:102B70004220AF009021EF008860A90009003700D3
:102B80009081BF008860AE00070037007629EC0016
:102B90009081BF000000E8004220AF009021EF00CC
:102BA0008860A9009081BF00B14B800062002000C6
:102BB0008180D3000080D3000201E900FCFF3A00CD
:102BC00000000600AE1502000000000000A0B700E3
:102BD00000000600851F7800E44880004822DE00DF
:102BE000F3032000041CE10002003E00E0C3B30038
:102BF0001DE9B7001DC9BF001D69EC000080FB0086
:102C0000E4922000840240009012810080429800EB
:102C1000CF02780000000600801281005222F800E6
:102C2000E0FF9F005222F900EA15020000000000B8
:102C3000A013810020C0B300A0138900AA0F0200D6
:102C4000000000000004E00001003A00040037002A
:102C500064150200000000002E12020000000000B7
:102C600000000600E44880004822DE00F303200054
:102C7000048051000000E0000D003A00A013810024
:102C800020C0B300A0138900AA0F020000000000BA
:102C90000004E000020032002E12020000000000DA
:102CA000641502000000000032160400000000005D
:102CB000701281005022F800E0FF9F005022F900BE
:102CC0000C1602000000000000000600851F7800BE
:102CD0000C08AF000400370064150200000000007B
:102CE00068160400000000000EC8BF000E68EC006B
:102CF0000080FB00B489200004004000A412810081
:102D000000429000A41289000DC8BF0074408000EA
:102D10000024E100020039002E1102000000000032
:102D2000A012810000E0B700CF027800000006008A
:102D3000851F7800A012810000C0B300A012890096
:102D4000A01281000160EF00A0128900A012810092
:102D50004800DE006204E1002D0031009012810085
:102D6000140420001024E1000F003C00A012810098
:102D70000160EF00C402DD009012810000027800C3
:102D8000144078000000FB00850240001504B100EB
:102D90006A8042005422F800E0FF9F005422F900AC
:102DA000EE16040000000000A01281000160EF0098
:102DB000C402DD0090128100000278001440780007
:102DC0000000FB0085024000040320000480520044
:102DD0005422F800E0FF9F005422F900A012810065
:102DE0004800DE00801F78000040E8005422F80010
:102DF000F0FF9F005422F9004F00780090128100EC
:102E00000000E80090128900A616040000000000EF
:102E1000A012810000E0B700CF0278000000060099
:102E20004200F800801F780081E0A90014028000B1
:102E3000040EB3001402880081E0A800013B880062
:102E400054052000343B8800A40A2000343B88004D
:102E500061E7A800000000000000000061E7AF008B
:102E6000FEFF37004F00780081E0A9004200F90022
:102E700081E0A80000000600851F7800C500200042
:102E800003000900B51F78000300A1000310A10092
:102E90000320A1000300E0004A0032000000A1006E
:102EA0000010A1000200A100A40F2000A4028800CD
:102EB000213B880080007800F4FF2F0030002000C4
:102EC000010060000C003200811F7800C208DE00A3
:102ED000C208DD00811F78003100B2008408BB0009
:102EE0008498BB00CF0078008180E8006200500029
:102EF000F8FF3A00CF007800F07F2000010060006A
:102F00000A003A00113B8800811F78003100B200AE
:102F10008008BB00811F78003100240010170200D8
:102F200000000000CF007800CF007800811F7800FB
:102F30003100B200B208BB00B298BB00CF007800ED
:102F40008180E800300020000080600008003A0026
:102F5000400020000080500062A7B700811F780069
:102F6000110024001017020000000000CF007800BC
:102F7000E4815100E0FF3A00300020000080600052
:102F800010003200F4FF2F00811F78003100B200E2
:102F90008408BB008498BB00CF0078008180E800E3
:102FA0003000200000806000F7FF3A004000200061
:102FB0000080500062A7B700110024001017020023
:102FC000000000002501200003000900CF12780056
:102FD000CF02780000000600D44D8000F3FF2F00E0
:102FE0000418E10004003A00E44D8000F3FF2F00D4
:102FF0000418E10011003200BA89BF00E14D8000E1
:10300000A1028800213B880062A7B7000008BB002E
:10301000310024001017020000000000BA89BF0030
:10302000E14D800082212100030021003C170200B5
:1030300000000000BAA9EF00BCA9EF0000000600E4
:10304000A10288000300E000130032000000AF007E
:10305000060037003059BA008301E9000E00320043
:103060001059BA008301E9000B0032000000E900AA
:1030700030D9BA008301E900070032000059EB00A3
:103080008301E9000000E8000000E0004220AF00FA
:103090005420EC00EBFF370000000600851F78008D
:1030A000861F7800701281000002780000802F00D7
:1030B00004006000B0128900801281008001780055
:1030C000C312890070128100B41281000400500004
:1030D000D0128900A01281000000E00060003200E0
:1030E000B0128100BA09E30004003A00C412810062
:1030F000E34D80000418E10015003200EC170200D7
:10310000000000005622F800BA09F9005822F80021
:10311000BC09F900C01281006100E100060039001D
:1031200004003E00B0128100048025000020E10070
:10313000010031004A003700B0128100C112810045
:10314000822121000300210020180200000000005D
:10315000D01281004100DD00040021000000520077
:10316000F0128900B0128100048025000020E100E7
:1031700013003A00C41281006120E10010003A00FF
:10318000F0128100042020000020E100040036003D
:1031900004002000F4128900D6180400000000008A
:1031A000F01281000020B100F0128900F0128100BD
:1031B0000000E00002003A0004002000A412890090
:1031C000F0128100A41281000020E100040036000A
:1031D0005E22F8005C22F900F418040000000000F0
:1031E0005422F8005C22F900D5128100C12ADD00CA
:1031F000842121000483420086007800921281001D
:10320000E01281000000E90002003900008009009E
:10321000B258780090128100E4128100040040004E
:1032200090128900B0128100048020000400400048
:10323000B0128900C412810060004A00C0128900E7
:1032400004002000D4128900A0128100E412810041
:1032500004005000A01289006A1804000000000059
:103260004F037800CF02780000000600851F780029
:10327000C500200004000900B51F7800D0108100AF
:103280000020A900D010890004002000141189003A
:103290000400200054118900F010810000C0B30028
:1032A000F0108900D41081000410A7002D01370010
:1032B000F01081000160EF00240420000400B80039
:1032C000800278008497200004834200004BEB00CA
:1032D00000C0B30010439800F01081000160EF00BF
:1032E000240420000400B80080027800E28242003A
:1032F000F01081000160EF00240420000400B800F9
:1033000000037800849720000400430090037800B5
:103310000580430084972000840240006616020066
:1033200000000000804A7800F01081000160EF008A
:10333000240420000400B80080027800E2824200E9
:10334000F01081000160EF00240420000400B800A8
:10335000000378008497200084034300170078005E
:10336000970BE800000478000500440084972000D3
:1033700004004000904278008502FB006D28E100C7
:103380000C003200F01081000160EF0024042000E6
:103390000400B80080027800849720000480420076
:1033A00010057800040420000A20E1000100390023
:1033B000C9FF37007012810030C1B300701289005C
:1033C0003216020000000000D01081000000A800AA
:1033D000D0108900D44B8000A4C3B200CC003A00C6
:1033E000B497200094128900981602000000000093
:1033F0002A22F800E0FF9F002A22F900801F7800AF
:10340000501181000160EF00501189004F007800D9
:10341000D497200094128900981602000000000042
:1034200080427800F49720009412890098160200D8
:1034300000000000004378002022F800E6FF9F0013
:103440002022F9002022F800F5FF9F002022F90039
:1034500014982000941289009816020000000000C1
:103460001C22F800E0FF9F001C22F90016118100C9
:103470000511810035008800460088000820D5002D
:1034800006A0D7002311890034118900D0108100D3
:103490000160EF00D0108900140020004411890061
:1034A000C44B800063005200441181000020E10001
:1034B0001200310040118100A497200080024200D8
:1034C00095128900981602000000000080427800E2
:1034D000D01081004800DE0000C042001A22F8002F
:1034E000F0FF9F001A22F9004011810062004000A5
:1034F00040118900501A040000000000D41081001F
:103500004822DE00F30F20008482510061C0420097
:103510001A22F800F0FF9F001A22F900C44B800025
:10352000E3025200A497200004834200961289000F
:103530009816020000000000D41081004822DE002E
:103540000404E10005003200D01081000000A90051
:10355000D0108900841B040000000000E0108100EE
:103560000160EF006104E10005003A00D010810025
:103570000020A800D0108900841B04000000000077
:10358000E01081000160EF006404E10012003A00E5
:103590003498200094128900981602000000000060
:1035A00080427800549820009412890098160200F6
:1035B00000000000004378002222F800E6FF9F0090
:1035C0002222F9002222F800F5FF9F002222F900B2
:1035D000841B040000000000E01081000160EF0087
:1035E0000004E00048003A009400200044118900E3
:1035F000E01081000160EF00E0108900C44B800002
:1036000063005200441181000020E10017003100E6
:10361000E01081004800DE00801F78000040E800D4
:103620001C22F800F0FF9F001C22F9004F007800D8
:103630000080FB00C422220084024000401181006F
:10364000A4972000000342009612890098160200F9
:1036500000000000804A78004011810062004000B4
:1036600040118900FE1A04000000000030118100A2
:103670006000E1002400390004003E0020118100B8
:10368000040022000020E1001F003E0055118100CF
:103690000600200014002000050078008600780055
:1036A0000402E8000402E900030032008100D100B6
:1036B0000080D300FBFF370024118100840240000A
:1036C00034118100048348006130E1000E003E00A7
:1036D0000300390004F025000520E1000A0039004C
:1036E0002422F8004E22F9002622F8005022F90088
:1036F000C4222200941289002A22F8005422F900E0
:103700004E18020000000000941B0400000000009E
:10371000D44B8000B4C3B20003003200D01081004B
:103720000000A900D0108900D41081000400A60078
:10373000050037007012810060C0B300701289006C
:1037400032160200000000007012810010C1B300A8
:1037500070128900321602000000000052190400A5
:1037600000000000EC170200000000007012810051
:1037700060C0B30070128900321602000000000021
:103780007012810010C1B30070128900321602005D
:1037900000000000E2150200000000006012890035
:1037A000E215020000000000800278006012810033
:1037B00080825200340C20000520E1000900360010
:1037C00064150200000000000C08AE000200370083
:1037D00066160200000000000060FE00D01B04001E
:1037E000000000000000FE00450120000400090068
:1037F000CF127800CF027800000006000FF82700F3
:10380000F0FF270020A0B7000000000081E0A80022
:103810000000200040268800F0FF2F00502688007E
:103820000C21EF000221EF000E00FC001010200020
:103830001110200082072000A30920008248780090
:103840008348780001E1B7004800DE000110200045
:1038500062042000730520008248780083487800C5
:103860008048780004002900340888000B68EF00C5
:103870007629EF009021EF009421EF0092A1EF0054
:1038800004032800A40C88008860A900BAA9EF00EE
:10389000BCA9EF007E26EF009226EF00A626EF00DF
:1038A000BA26EF00CE26EF00E226EF00044020000B
:1038B00044408800C0C0B3000AE8B7007029EF0098
:1038C00010A1A90010A1A900C40F2000F4338800A2
:1038D0004827EF0000002000EA22EF00EC22EF0072
:1038E000EE22EF0004F02900543A88000407280073
:1038F000343A88009F46A900A346A9009F66A90004
:10390000A366A900B226A900B626A900B2A6A900FE
:10391000B6A6A900B206A900B606A900B286A900FB
:10392000B686A900C686A900CA86A900AA03020015
:1039300000000000AA03020000000000AA03020029
:10394000000000008204020000000000AA03020040
:1039500000000000AA03020000000000AA03020009
:10396000000000005C65AE002B003700DB26A800DD
:1039700000000000DD26AF00270037000C08AF0074
:10398000230037006415020000000000A8150200A3
:10399000000000000004E0001B003200E2150200FD
:1039A0000000000080027800C01081008082520078
:1039B00034B720000520E10013003E00E2150200AC
:1039C00000000000C0108900010020000100780004
:1039D0000160EF0054030200000000008100E800D5
:1039E000811F78004E22F800E0FF9F004E22F90070
:1039F0003216020000000000CF0078001001200005
:103A00000008E600F1FF3700BE1C040000000000C3
:103A10003619020000000000002004000000000031
:043A20000040FE0064
:0C4000000020040000000000000006008A
:020000040002F8
:10BE0000FFFEFF00FFFFFF00FFFFFF00FFFFFF003F
:10BE1000FFFFFF00FFFFFF00FFFFFF00FFFFFF002E
:10BE2000FFFFFF00FFFFFF00FF7FFF00FFFFFF009E
:10BE300089FFFF00FFFFFF00D3FFFF00FFFFFF00B0
:10BE4000CCDFFF00FFFFFF00F5FFFF00FFFFFF005B
:10BE5000DFFFFF00FFFFFF00F7FFFF00FFFFFF0016
:00000001FF
;PIC24FJ128GB606
;CRC=72F9  CREATED="03-Apr-20 13:45"
