:0200000400FFFB
:10800000F3072000A3028800C31F20008301500053
:1080100005003100E3012C00008041001040BA004F
:108020000160EF0000000600E0012C0083814100A8
:10803000808141001380BA0000000600000040006B
:1080400000004000000000000000000000000000F0
:10805000005F0000000001000000020000000400BA
:1080600003000000030000000000000000140000F6
:108070003E1420003E14540000005400002454001C
:108080002A7F78002A120000000000000043000050
:1080900033087F006661440000004400003644005D
:1080A0004955380022500000000000000000000088
:1080B00005033800000044000000440000004400B4
:1080C0001C224400410000000000000000000000ED
:1080D000412238001C004400000044000014440009
:1080E000083E7F00081400000000000000080000A7
:1080F000083E3800080854000000540000005400F6
:1081000050301800000000000000000000080000CF
:10811000080804000808040000007E0000000500B4
:10812000606005000000000000000000002000006A
:10813000100808000402540000005400003E5400DF
:1081400051493C00453E00000000000000000000D6
:1081500004027F007F0008000000040000420400C9
:108160006151780049460000000000000022000034
:10817000414900004936440000007D0000184000DD
:10818000141200007F100000000000000027000013
:10819000454520004539400000004400003E3D00B8
:1081A00049490000493200000000000000010000C1
:1081B00001717F000907100000002800003644000C
:1081C0004949000049360000000000000026000078
:1081D00049490000493E410000007F000000400086
:1081E0003636000000000000000000000000000023
:1081F00056367C00000004000000780000080400EF
:10820000142278004100000000000000001400006B
:1082100014147C0014140800000004000000040082
:108220004122780014080000000000000002000055
:10823000015138000906440000004400003E44009B
:1082400041593800555E000000000000007E00002B
:1082500009097C00097E140000001400007F14004E
:10826000494908004936000000000000003E0000B7
:10827000414108004122140000001400007F140056
:1082800041417C00413E000000000000007F0000F2
:108290004949000049417C0000000800007F0400BB
:1082A000090904000901000000000000003E000070
:1082B00041414800493A540000005400007F5400F6
:1082C00008082000087F00000000000000000000F7
:1082D000417F04004100040000003F0000304400E2
:1082E00040404400403F000000000000007F0000CC
:1082F00008143C002241400000004000007F2000A4
:1083000040407C004040000000000000007F000072
:10831000020C1C00027F200000004000007F2000B3
:1083200002041C00087F000000000000003E000066
:1083300041413C00413E400000003000007F4000D1
:1083400009093C000906000000000000001E0000B2
:1083500021214400215E280000001000007F280039
:108360000909440009760000000000000026000012
:1083700049490C00493250000000500000015000F3
:10838000017F3C000101000000000000003F0000F0
:1083900040404400403F640000005400001F4C0077
:1083A00020404400201F000000000000007F00006B
:1083B00020100000207F080000003600004141002E
:1083C000221C4100224100000000000000070000C4
:1083D000087000000807000000007F000061000036
:1083E000514900004543000000000000000000006B
:1083F0007F414100000041000000360000020800FB
:108400000408000010200000000000000000000030
:10841000004102007F00010000000200000404008F
:108420000201020002040000000000000040000001
:1084300040400000F3072000A302880083222C00A4
:10844000008041001040BA000160EF00000006000B
:108450000003000002FF0000FFFF0000FFFF00001C
:10846000FFFF0000FFFF0000FFFF0000FFFF000014
:10847000F3072000A302880063242C000080410041
:108480001040BA000160EF000000060000FF00008D
:1084900002FF0000FFFF0000FFFF0000FFFF0000E1
:1084A000FFFF0000FFFF0000FFFF0000F3072000B8
:1084B000A302880023262C00008041001000BA008F
:1084C00000000600400000000B000000400000001B
:1084D000000000000000000000000000000000009C
:1084E000000000000000000000000000000000008C
:1084F000000000000000000000000000000000007C
:1085000000000000F3072000A3028800E3282C00ED
:10851000008041001000BA0000000600400000008A
:10852000000000004000000000000000000000000B
:10853000000000000000000000000000000000003B
:10854000000000000000000000000000000000002B
:10855000000000000000000000000000F307200001
:10856000A3028800E30220008301500005003100CF
:10857000C32C2C00008041001040BA000160EF00C5
:1085800000000600C02C2C00838141008081410046
:108590001380BA0000000600090201004300000039
:1085A0000201020000800A003209000004000000FD
:1085B000000100000202070001000500052402007E
:1085C0000010020001044000240200000205010026
:1085D00024060700000105000524820001000200B6
:1085E0000107400005810000030B010000FA0000B4
:1085F00009040000F3072000A302880083302C0048
:10860000008041001040BA000160EF000000060049
:1086100002000000F3072000A302880083312C0031
:10862000008041001040BA000160EF000000060029
:10863000121700001B200000FFFF0000FFFF0000DA
:10864000F3072000A3028800E3322C0000804100E1
:108650001040BA000160EF000000060012010000A7
:10866000100100000200000000400000052400008E
:108670000B000000000100000102000000010000EA
:10868000F3072000A3028800E301200083015000CB
:1086900005003100E3352C00008041001040BA0095
:1086A0000160EF0000000600E0352C0083814100EE
:1086B000808141001380BA000000060004037400AA
:1086C0000904000008036F0043000000430020007D
:1086D0005300000020035500430000004300410008
:1086E00053000000200052005500000053005400C9
:1086F0004200000020000000F3072000A3028800D1
:10870000A3382C00008041001040BA000160EF0047
:1087100000000600426F00006F7400006C6F0000E4
:1087200061640000657200002E2E00002E00000023
:10873000F3072000A3028800633A2C000080410068
:108740001040BA000160EF0000000600426F000018
:108750006F7400006C6F00006164000065720000BF
:108760002052000065610000647900000D0A0000DD
:1087700000000000851F7800A51B8100B41B81004C
:108780000960EF00100020000400DD00800A78007E
:10879000CF027800000006009024A9008A84A90076
:1087A000B01B810040C0B300B01B8900844820008A
:1087B000A41B8900BAC302007F000000B01B810027
:1087C00040C0B300B01B8900044C2000A41B8900EA
:1087D000BAC302007F00000000000600851F780079
:1087E000402181000160EF000004E0000C003A002D
:1087F000402181004800DE000004E0000400320057
:1088000004212100542189000CC404007F000000D1
:1088100004202100542189002EC404007F000000A0
:10882000442181000960EF00E10252004528DD008B
:1088300004022000840240002824F8004F00780041
:108840004800DE000160EF004400DD0085024000CA
:108850000420210004804200502189002A24F800CD
:108860000000F900CF02780000000600301F8100F0
:108870002824F800E0FF9F002824F900E623F800F0
:108880004F0078004800DE002824F800F0FF9F0029
:108890002824F900EEC302007F000000401F890079
:1088A000401F810064004000401F8900E823F80059
:1088B0000000F90000000600E01E8100E623F80039
:1088C000E0FF9F00E623F900DC23F8004F0078006A
:1088D0004800DE00E623F800F0FF9F00E623F900E1
:1088E00036C402007F000000001F8900011F8100C4
:1088F000F21E810003000900B25878000000060053
:10890000851F7800D02081002824F800E0FF9F0018
:108910002824F9001A24F8004F0078004800DE00EF
:108920002824F800F0FF9F002824F900EEC302007D
:108930007F000000F0208900F5208100E020810008
:108940000002780003002000B4197800B419780000
:1089500004002000B41A7800B41A7800CF0278001E
:1089600000000600C13622000200200003000900BA
:108970008058EB0004042000741B8900601B8100F8
:1089800000E0A800601B8900601B81000060A80057
:10899000601B8900C4032100841B8900040020009F
:1089A000941B8900E01E810000C0B300E01E890016
:1089B000E01E81000160EF00E01E89000437220004
:1089C000F41E89005CC402007F000000D0208100FA
:1089D00000C0B300D0208900D02081000160EF00EA
:1089E000D0208900C4362200E420890080C402001F
:1089F0007F000000C13622000200200003000900B1
:108A00008058EB00D020810000C0B300D020890046
:108A1000D02081000080FD0010C0B3000080FD0068
:108A2000D0208900C4362200E420890080C40200DE
:108A30007F000000C4072100841B8900040020007F
:108A4000941B8900E01E810000C0B300E01E890075
:108A5000E01E81000080FD0010C0B3000080FD001A
:108A6000E01E890004372200F41E89005CC4020065
:108A70007F00000000000600E024AE000300370085
:108A8000B2C402007F000000E024A900B01B8100F6
:108A900070C0B300B01B8900044C2000A41B8900E7
:108AA000BAC302007F00000000000600851F7800A6
:108AB000651B810080CAEB00F0CFB30090429800A4
:108AC000CF02780000000600444C2000641B89009F
:108AD00056C502007F000000B01B810010C0B3002B
:108AE000B01B8900044C2000A41B8900BAC30200FB
:108AF0007F00000000000600851F7800861F7800B8
:108B0000055822000600200001152100A2002000C7
:108B100001000900B25878005271EF005371EF0064
:108B20008042EB0041152100A2002000B2587800DD
:108B30008042EB0051152100A2002000B2587800BD
:108B400085C0B30061152100A2002000B258780052
:108B50005771EF000870A9005831EF004971EF001C
:108B60003810A9009971EF004F037800CF02780008
:108B700000000600851F78004C31EF000400200043
:108B8000641B8900601B81006200E1000900310064
:108B9000601B8100E414210084024000804AEB0045
:108BA000601B81000000E800601B8900C2C5040052
:108BB0007F0000007CC502007F0000003230EF0023
:108BC00014002000A48188003070EF00CF027800EC
:108BD00000000600851F7800E423F8004F027800AB
:108BE0004822DE000800A900231F81000370A700AF
:108BF0000800A800E423F800F4FF9F00E423F90034
:108C0000201F81000160EF000070A100E423F80044
:108C1000E0FF9F00E423F900201F81000160EF00C6
:108C20007004E100020036000060EF001D00370014
:108C3000241F81000480A6000E003700201F810041
:108C40000160EF001AC202007F000000F40F200054
:108C50000024E10003003A000040EB0034C60400A9
:108C60007F00000010C0B3000E00370052C60400A1
:108C70007F000000201F81000160EF0038C2020069
:108C80007F000000F40F20000024E10003003A0000
:108C90000040EB0050C604007F00000010C0B3008D
:108CA00000003700CF02780000000600851F780022
:108CB000F01E81000160EF004100DD00044E200045
:108CC00084024000804AEB0000C0B300904298004C
:108CD000F01E8100E423F800E0FF9F00E423F90088
:108CE000EAC502007F0000000004E0001C00320022
:108CF000013E220002002000030009008058EB0022
:108D0000F01E81001A24F800E0FF9F001A24F900E9
:108D1000D02081000160EF00D0208900043E2200B5
:108D2000E420890080C402007F000000F01E810062
:108D30001A24F800E0FF9F001A24F900D0208100D7
:108D40000080FD0010C0B3000080FD00D02089002D
:108D5000043E2200E420890080C402007F0000005D
:108D6000CF02780000000600E01E810010C0B300B2
:108D7000E01E8900E01E81000160EF007004E10048
:108D80000D003100E01E8100DE23F800E0FF9F00AF
:108D9000DE23F90056C602007F000000E01E8100BD
:108DA0000040E800DC23F800E0FF9F00DC23F9002E
:108DB000BAC604007F00000000000600B01B81005E
:108DC00030C0B300B01B8900044C2000A41B8900F4
:108DD000BAC302007F000000040009000000000088
:108DE00000000600444C2000641B890056C50200A8
:108DF0007F000000044C2000641B890056C502005F
:108E00007F000000F4092000342688009409200027
:108E100014268800CC24EF00BAC502007F000000B1
:108E2000B4C602007F000000D400200004278800A0
:108E3000C064AE0004003700DEC602007F00000000
:108E400018C704007F000000CAA4A900B2C4020031
:108E50007F00000030C0B30009F0B700000006003A
:108E60008A84A800C284A90000000600B01B81000B
:108E700020C0B300B01B8900044C2000A41B890053
:108E8000BAC302007F00000000000600851F7800C2
:108E9000F02081002824F800E0FF9F002824F9003A
:108EA0001E24F8004F0078004800DE002824F80057
:108EB000F0FF9F002824F900EEC302007F000000AD
:108EC0001021890005218100102181000002780015
:108ED00003002000B4197800B419780004002000C1
:108EE000B41A7800B41A7800CF02780000000600A7
:108EF000701D81003BF0B70000000600F0CFB3000A
:108F00003BF0B70000000600851F7800861F780040
:108F100004002000B41B89004C11E2003300320031
:108F2000B01B8100040420000020E1002F00360067
:108F300036D0BF000160EF000080B20005003200B3
:108F40002080B2000B0032001080B200110032000D
:108F5000180037004A91BF00AEC202007F00000037
:108F60007823F800E0FF9F007823F900DAC70400B7
:108F70007F0000004A91BF0040C302007F00000054
:108F80007823F800E0FF9F007823F900DAC7040097
:108F90007F0000004A91BF0020C302007F00000054
:108FA0007823F800E0FF9F007823F900DAC7040077
:108FB0007F0000004A31EC004C31ED00B01B810015
:108FC000801F78000000E800B01B89004F00780087
:108FD00080027800C407210004834200C01B810086
:108FE000004398008CC704007F0000004C11E20091
:108FF00005003A00B01B8100040420000020E100BD
:10900000010032003070EF00B01B8100AE23F80089
:10901000E0FF9F00AE23F90078C702007F00000048
:109020004F037800CF02780000000600851F78000B
:10903000A01B810000C0B300A01B89004A31EF00D3
:109040003670EF003FD0BF000160EF001080B2002B
:10905000070032003080B2000B0032001080B200F6
:109060000D0032002082B200290032003D0037009E
:1090700024012000648A880030C0B30036F0B700B5
:10908000B8C804007F00000034042000648A88000F
:10909000B8C804007F00000020C0B30036F0B7005D
:1090A000A01B810000C0B300A01B8900A01B810091
:1090B0000160EF00F48180000024E1000D00360023
:1090C0004A91BF0040C302007F0000008042780048
:1090D0000500FB004A31B400A01B81000040E800FD
:1090E0007423F800E0FF9F007423F90056C80400C1
:1090F0007F0000004A91BF0040C302007F000000D3
:109100000000FB004CB1B700B8C804007F000000AD
:109110003ED0BF000160EF000AC302007F000000E4
:109120000000FB004AB1B700548A8000F48FB200FF
:10913000090032004A91BF00AEC202007F00000069
:109140000000FB004CB1B700B8C804007F0000006D
:10915000B2C804007F0000007EC702007F0000004C
:10916000110037007EC702007F0000000E003700AC
:109170004350E20008003A0042D0BF000160EF0017
:10918000648A80000020E1000300360042D0BF0066
:109190004CF1B7004D71EF0010C0B30030F0B700D4
:1091A00084C702007F000000CF02780000000600A4
:1091B000851F7800A01B81000160EF000004E00023
:1091C00006003A0040C0B30009F0B700B4C6020080
:1091D0007F00000060CA04007F00000050C0B300A0
:1091E00009F0B700C40B2100B41B89000400200063
:1091F000C41B8900A01B81000080FD0010C0B300CB
:109200000080FD00A01B8900A01B81004800DE003B
:109210007004E100AA0031007423F8004F007800C8
:109220004800DE00DE23F800E0FF9F00DE23F900A7
:1092300056C602007F00000004002000D41B8900F5
:109240007423F8004F0078004800DE000160EF0052
:1092500038C202007F000000F40F20000024E1006B
:1092600037003200E137220002002000030009002D
:109270008058EB0084002000D41B89007423F80080
:109280004F0078004800DE000160EF004100DD0083
:1092900082C202007F000000E01B89007423F800F6
:1092A0004F0078004800DE00DC23F800E0FF9F005C
:1092B000DC23F900E01E81000160EF00E01E890060
:1092C00064372200F41E89005CC402007F000000A5
:1092D000B01B8100E41B810004004000B01B89002A
:1092E000C31B810060804900C01B8900F01B810006
:1092F00000E0A800F01B8900F01B81000060A800BE
:10930000F01B89007C23F8008023F9007423F80007
:109310004F0078004800DE001A24F800E0FF9F00AC
:109320001A24F900D02081000160EF00D0208900CC
:10933000E4372200E420890080C402007F0000009E
:109340007423F8004F0078004800DE000160EF0051
:109350001AC202007F000000F40F20000024E10088
:1093600036003200E137220002002000030009002D
:109370008058EB00D01B81000020A000D01B89008A
:109380007423F8004F0078004800DE00DC23F8006A
:10939000E0FF9F00DC23F900E01E81000080FD005B
:1093A00010C0B3000080FD00E01E89006437220079
:1093B000F41E89005CC402007F0000007423F800E2
:1093C0004F0078004800DE000160EF004100DD0042
:1093D00056C202007F000000B41B81000400400060
:1093E000B01B8900C31B810002002000030049005C
:1093F000C01B8900F01B810000C0A800F01B890081
:109400007423F8004F0078004800DE001A24F800AA
:10941000E0FF9F001A24F900D02081000080FD00A9
:1094200010C0B3000080FD00D0208900E437220086
:10943000E420890080C402007F000000D01B81006E
:109440006C00E10002003A00C4012000D41B890036
:109450007423F8004F0078004800DE000160EF0040
:109460001AC202007F0000006104E1000300320024
:10947000D01B81000000A000D01B89007423F800DD
:109480004F0078004800DE000160EF004100DD0081
:10949000044E200084024000D41B81008402980006
:1094A000A01B81004800DE000040E8007423F800A3
:1094B000F0FF9F007423F90004C904007F0000003E
:1094C000CF027800000006003DD0BF000160EF0031
:1094D0000080B2000D0032001080B2001500320092
:1094E0002080B200240032006080B20032003200DE
:1094F0003080B2003B003200E080B2003D0032001C
:109500001080B200440032005600370034D0BF0053
:109510007CF0B7007D70EF00701D810020C0B300AB
:10952000701D890078C702007F0000003ACB04005C
:109530007F000000F48180006124E1000A003A000D
:109540003490BF006100600034B0B700701D81002E
:1095500000C0B300701D890078C702007F000000C2
:10956000B8CA04007F0000007EC702007F00000030
:109570003ACB04007F000000F48180006124E10008
:1095800009003A00440321001410A000701D81005E
:1095900000C0B300701D890078C702007F00000082
:1095A000D8CA04007F0000007EC702007F000000D0
:1095B0003ACB04007F00000020C0B30030F0B700B9
:1095C0003ED0BF0048F1B700701D810000C0B3005D
:1095D000701D890078C702007F0000003ACB0400AC
:1095E0007F00000016C802007F0000003ACB040094
:1095F0007F00000032D0BF007CF0B700701D8100FA
:1096000010C0B300701D890078C702007F00000001
:109610003ACB04007F000000F48180006124E10067
:109620000E003E003ED0BF0032F0B7003370EF00B6
:109630003ED0BF007423F800E0FF9F007423F900C0
:10964000D8C802007F000000701D810000C0B30078
:10965000701D890078C702007F0000003ACB04002B
:109660007F0000007EC702007F0000003ACB0400AC
:109670007F00000000000600851F780032D0BF0088
:109680007423F800E0FF9F007423F9003DD0BF0071
:109690000160EF000080B20005003200A080B2003F
:1096A0000C0032001080B200290032003D0037006B
:1096B0007C70EF007D70EF00701D810020C0B30052
:1096C000701D890078C702007F000000DACB04001B
:1096D0007F000000A01B81000160EF000004E0009B
:1096E00017003200A41B81000960EF00E102520064
:1096F00005007800FAC202007F00000004828000AA
:109700000024E1000E003D00048280000960EF00AB
:10971000E314210003004200E48380000042900033
:10972000E4838800701D810010C0B300701D8900A3
:1097300078C702007F000000A4CB04007F00000077
:109740007EC702007F000000DACB04007F0000002B
:10975000A01B81000160EF000004E0000D0032005A
:10976000048280000960EF00E314210083024200BC
:109770003E90BF0080429800701D810000C0B30081
:10978000701D890078C702007F000000CECB040066
:109790007F0000007EC702007F000000DACB0400DB
:1097A0007F0000007EC702007F000000DACB0400CB
:1097B0007F000000CF02780000000600851F7800BF
:1097C0007423F8004F0278004822DE000800A90048
:1097D000A31B81000370A7000800A8007423F800F1
:1097E000F4FF9F007423F900A01B81000160EF00CB
:1097F0000070A1007423F800E0FF9F007423F900BB
:109800006137220002002000030009008058EB00AD
:10981000A41B81000480A60015003700B01B810046
:1098200000E0A800B01B8900B01B81000060A80008
:10983000B01B8900A01B81001A24F800E0FF9F00E4
:109840001A24F900D02081000080FD0010C0B30070
:109850000080FD00D020890064372200E4208900C8
:1098600080C402007F0000004ECC04007F00000096
:10987000A01B81001A24F800E0FF9F001A24F900C1
:10988000D02081000160EF00D020890064372200E1
:10989000E420890080C402007F000000A01B81003A
:1098A0000160EF004100DD00044E20000400400094
:1098B00080027800D0FF2F0025006000800A780029
:1098C000CF02780000000600851F78006137220073
:1098D00002002000030009008058EB00B01B81004B
:1098E00000E0A800B01B8900B01B81000040A80068
:1098F000B01B89007423F8004F0278004822DE0074
:109900000800A900A31B81000370A7000800A8009D
:109910007423F800F4FF9F007423F900A01B81005A
:109920000160EF000070A1007423F800E0FF9F00C9
:109930007423F900A41B81000000EB000480A70041
:109940000000E80080427800801F7800A01B8100A2
:109950001A24F800E0FF9F001A24F9004F00780055
:109960001A24F800F5FF9F001A24F900643722003A
:10997000E420890080C402007F000000CF0278004C
:1099800000000600851F78007423F8004F0278005D
:109990004822DE000800A900A31B81000370A70075
:1099A0000800A8007423F800F4FF9F007423F90056
:1099B000A01B81000160EF000070A1007423F8007B
:1099C000E0FF9F007423F900A41B81000000EB005E
:1099D0000480A7000000E80080427800801F780023
:1099E000A01B81001E24F800E0FF9F001E24F90048
:1099F0004F0078001E24F800F5FF9F001E24F90098
:109A0000643722000421890046C702007F0000005D
:109A1000B41B81000470A60003003700B41B810052
:109A20000420A700030037000040EB001CCD040019
:109A30007F00000010C0B300CF02780000000600D5
:109A400040D0BF00E423F800E0FF9F00E423F900CA
:109A5000EAC502007F0000000004E0003A00320086
:109A60003DD0BF000160EF001080B2000500320061
:109A70002080B200100032003080B2001B003200A3
:109A80002D00370040D0BF007423F800E0FF9F0096
:109A90007423F900DECB02007F000000701D8100FE
:109AA00000C0B300701D890078C702007F0000006D
:109AB000A4CD04007F00000040D0BF007423F80054
:109AC000E0FF9F007423F90064CC02007F000000D7
:109AD000701D810000C0B300701D890078C70200AE
:109AE0007F000000A4CD04007F0000007C70EF0028
:109AF0007D70EF0040D0BF007423F800E0FF9F00AE
:109B00007423F900C2CC02007F0000000004E000D2
:109B10000200320010C0B3007CF0B700701D81005D
:109B200020C0B300701D890078C702007F000000CC
:109B3000A4CD04007F0000007EC702007F0000006B
:109B4000A4CD04007F00000000000600E0CFB300B9
:109B50003BF0B70000000600048280006124E100B1
:109B6000020032004050E2004F003A0042D0BF00F5
:109B70007423F800E0FF9F007423F90043D0BF0076
:109B80007423F800F0FF9F007423F9003DD0BF005C
:109B90000160EF000080B2000B0032001080B200C4
:109BA0000F0032001082B200150032001080B200A7
:109BB0001A0032003080B200230032001080B20060
:109BC0002A0032003400370010C0B30099F1B7000A
:109BD000A6CD02007F00000054CE04007F000000EC
:109BE000A01B8100AE23F800E0FF9F00AE23F90028
:109BF00078C702007F00000054CE04007F00000000
:109C000020C0B30099F1B7000870A800A6CD0200EB
:109C10007F00000054CE04007F000000C107210037
:109C20000215210006000900B2587800701D81005D
:109C300070C0B300701D890078C702007F0000006B
:109C400054CE04007F0000003ED0BF0057F1B700A3
:109C5000701D810000C0B300701D890078C702002C
:109C60007F00000054CE04007F0000003FD0BF0002
:109C700058F1B7003ED0BF0059F1B700701D810008
:109C800000C0B300701D890078C702007F0000008B
:109C900054CE04007F0000007EC702007F00000059
:109CA00054CE04007F000000000006003070EF007A
:109CB0003CD0BF00F007B2000080B20007003200C5
:109CC0001080B200090032003080B2000B00320078
:109CD0003082B2000D0032001000370064CA02006A
:109CE0007F00000096CE04007F0000003CCB020005
:109CF0007F00000096CE04007F00000020CD02000F
:109D00007F00000096CE04007F000000ACCD020072
:109D10007F00000096CE04007F0000007EC7020096
:109D20007F00000096CE04007F00000000000600C7
:109D3000E13A220002002000030009008058EB00F5
:109D4000601D81004800DE006204E1001D003A0051
:109D5000601D81001E24F800E0FF9F001E24F90012
:109D6000F02081000160EF00F0208900243B2200F8
:109D70000421890046C702007F000000941D810075
:109D80008001EB000460A7008301E800AC23F80029
:109D9000F3FF9F00AC23F900601D81004800DE0046
:109DA0000004E000030032000040EB00DCCE0400C1
:109DB0007F00000010C0B300AC23F800F0FF9F004C
:109DC000AC23F900601D81004800DE006304E1005F
:109DD00015003A00701D810000E0A800701D890088
:109DE000701D81000040A800701D8900601D810069
:109DF0001A24F800E0FF9F001A24F900D020810007
:109E00000080FD0010C0B3000080FD00D02089005C
:109E1000E43A2200E420890080C402007F000000B0
:109E200044CF04007F000000601D81004800DE0078
:109E30006104E1000B003A00701D810000E0A80001
:109E4000701D8900701D810000C0A800701D890070
:109E5000701D81000060A800701D890044CF0400BF
:109E60007F000000701D810000E0A800701D8900C7
:109E7000701D810000C0A900701D8900701D810047
:109E80000060A800701D8900601D81000160EF0066
:109E90004100DD0082C202007F000000801D8900B9
:109EA000601D81001A24F800E0FF9F001A24F900C9
:109EB000D02081000160EF00D0208900E43A220028
:109EC000E420890080C402007F000000000006003A
:109ED000851F7800401F81001E24F800E0FF9F00CE
:109EE0001E24F900F02081000080FD0010C0B300A6
:109EF0000080FD00F0208900A43E2200042189009A
:109F000046C702007F000000401F81000160EF0093
:109F10004100DD00044E2000040040009002780063
:109F20000500E00003003200541F81000470A60009
:109F3000030037000040EB00A2CF04007F000000C8
:109F400010C0B300CF02780000000600C13D22001F
:109F500002002000030009008058EB00C01E8100B1
:109F6000E823F800E0FF9F00E823F90068CF020033
:109F70007F0000000004E0005D003200DA23F800FA
:109F8000DE23F900C01E81004800DE006204E1000B
:109F900021003A00C01E81001E24F800E0FF9F004F
:109FA0001E24F900F02081000080FD0010C0B300E5
:109FB0000080FD00F0208900043E22000421890079
:109FC00046C702007F000000041F81008001EB00F3
:109FD0000460A7008301E800D823F800F3FF9F0086
:109FE000D823F900C01E81004800DE000004E00014
:109FF000030032000040EB0002D004007F000000AC
:10A0000010C0B300D823F800F0FF9F00D823F90058
:10A0100038D004007F000000C01E81004800DE0030
:10A020006404E10012003A00C01E81001E24F80002
:10A03000E0FF9F001E24F900F02081000160EF0086
:10A04000F0208900043E22000421890046C7020056
:10A050007F000000041F81008001EB000460A70066
:10A060008301E800D823F800F3FF9F00D823F9000C
:10A07000E41E810008C0A900D823F800CF017800B1
:10A08000C819DE000300A70008C0A800DC23F80000
:10A09000E4FF9F00DC23F900E01E81000060A800BF
:10A0A000E01E8900E01E810000E0A800E01E89009B
:10A0B000C01E81001A24F800E0FF9F001A24F90056
:10A0C000D02081000080FD0010C0B3000080FD00A2
:10A0D000D0208900C43D2200E420890080C4020011
:10A0E0007F00000010C0B30000E0B700010037009F
:10A0F0000060EF000000060099D1BF000160EF0092
:10A100001080B200030032003080B200090032003B
:10A1100014003700701D810000C0B300701D89005D
:10A1200078C702007F0000009971EF00B8D00400EA
:10A130007F00000001152100C20321000600090074
:10A14000B25878009971EF00701D810000C0B30013
:10A15000701D890078C702007F000000B8D004009D
:10A160007F0000009971EF00B8D004007F0000006C
:10A1700000000600601D81001E24F800E0FF9F0023
:10A180001E24F900F02081000160EF00F02089001A
:10A19000E43A22000421890046C702007F00000043
:10A1A000B023F8000000F900000006003810A900F4
:10A1B000601D810020C0B300601D8900601D81000A
:10A1C0000080FD0020C0B3000080FD00601D8900FC
:10A1D00098CE02007F000000000006003810A800A2
:10A1E0003A70EF00601D810020C0B300601D89003F
:10A1F000BAD002007F00000039F0B7003950E20009
:10A2000002003A00D6D002007F00000000000600E5
:10A21000A01B81000160EF000004E00004003A0090
:10A220007CD002007F00000024D104007F000000E9
:10A23000A01B81000160EF006204E10002003A000F
:10A24000EED002007F00000000000600B01B81007D
:10A25000CCE4B700CD64EF00B01B81000160EF00DB
:10A260000004E0000400320040C0B30009F0B70071
:10A2700040D104007F00000020C0B30009F0B70007
:10A28000000006003230EF003070EF0048D1BF0010
:10A290007623F800E0FF9F007623F90026D1020024
:10A2A0007F00000000000600B01D8100E623F800DA
:10A2B000E0FF9F00E623F900B623F8004F00780086
:10A2C0004800DE00E623F800F0FF9F00E623F900D7
:10A2D00036C402007F000000D01D8900C11D81002E
:10A2E000D21D810003000900B2587800000006006A
:10A2F000B01B8100E823F800E0FF9F00E823F9008D
:10A3000068CF02007F0000000004E000250032005A
:10A31000B01B8100B623F800E0FF9F00B623F900D0
:10A32000B01D81000080FD0010C0B3000080FD0062
:10A33000B01D8900C4372200C41D890054D1020019
:10A340007F000000E11B8100C21B8100D01B810047
:10A350000000E9000200390000800900B2587800CE
:10A36000B01B8100D823F800E0FF9F00D823F9003C
:10A370007623F8004F0078004800DE00D823F8006C
:10A38000F0FF9F00D823F9007A23F800DA23F900C0
:10A39000A6CF02007F00000003003700D2D10400E6
:10A3A0007F0000000060EF00000006004951E2005D
:10A3B00016003200B01B810020C0B300B01B890022
:10A3C00049D1BF007A23F800E0FF9F007A23F9000B
:10A3D000D01B81000160EF00D01B8900B01B810001
:10A3E0000080FD0020C0B3000080FD00B01B89008C
:10A3F000A4152100C41B890078D102007F00000051
:10A400000004E000010032004971EF000000060086
:10A41000D6D102007F00000000000600A01B8100D2
:10A420000160EF000004E0000E003A00848180002B
:10A430006124E10004003A0084C702007F000000AC
:10A440002ED204007F000000848180006224E1009D
:10A4500002003A0042D102007F0000003ED2040018
:10A460007F000000A01B81000160EF006204E1009A
:10A4700002003A0008D202007F000000000006003F
:10A48000851F7800C884BF004400DE007023F800F8
:10A49000E0FF9F007023F90045268000850FB20081
:10A4A0000500E000C2003A00F020810000C0B300C7
:10A4B000F0208900F02081000160EF00F020890089
:10A4C000C43622000421890046C702007F00000034
:10A4D000601B81004202DE00F400B20004407800FC
:10A4E0000160EF00901B8900601B810000E0A90063
:10A4F000601B8900641B8100343CB2000400B3007F
:10A500006C23F800E4FF9F006C23F900D020810049
:10A5100000C0B300D0208900D02081000160EF008E
:10A52000D0208900C4362200E420890080C40200C3
:10A530007F000000DEC602007F000000901B81004B
:10A540006D00E1006D003A00C136220002002000DB
:10A55000030009008058EB00D020810000C0B30048
:10A56000D0208900D02081000080FD0010C0B30001
:10A570000080FD00D0208900C4362200E42089003C
:10A5800080C402007F00000056CE02007F00000061
:10A59000CAA4A900D48180004822DE00F4CFB20012
:10A5A0000C003A00601D810000C0B300601D8900EE
:10A5B000601D81000080FD0030C0B3000080FD0000
:10A5C000601D890098CE02007F0000007AD304004D
:10A5D0007F000000F020810000C0B300F02089005F
:10A5E000F02081000160EF00F0208900C4362200D5
:10A5F0000421890046C702007F0000007023F80094
:10A600004F0278004822DE000800A900631B810089
:10A610000360A7000800A8007023F800F4FF9F0063
:10A620007023F9007023F8004F0278004822DE0002
:10A630000800A9007023F800CF017800C819DE00D7
:10A640000300A6000800A8007023F800F4FF9F0094
:10A650007023F900601D810000C0B300601D8900F7
:10A66000601D81000080FD0020C0B3000080FD005F
:10A67000601D890098CE02007F000000D481800018
:10A680004822DE00E4CFB2001A003200841B8100B1
:10A690000000EB000480A7000000E8008042780082
:10A6A000801F7800C01E810000C0B300C01E89005A
:10A6B0004F007800801F78003BD0BF00DA23F800FD
:10A6C000E0FF9F00DA23F9004F007800801F780038
:10A6D000D01E81000160EF00D01E89004F0078007D
:10A6E000D823F800F5FF9F00D823F900A6CF020079
:10A6F0007F000000D4D304007F000000901B810085
:10A700006100E10028003A00A01B810000C0B300F6
:10A71000A01B890008D102007F000000601D81009D
:10A7200000C0B300601D8900601D81000080FD0035
:10A7300020C0B3000080FD00601D890098CE02009B
:10A740007F000000D48180004822DE00E4CFB20008
:10A7500015003200D48180004822DE00F4CFB20020
:10A7600011003200C01E810000C0B300C01E89006D
:10A770003BD0BF00DA23F800E0FF9F00DA23F900A6
:10A78000D01E81000160EF00D01E8900C01E810034
:10A790000080FD0010C0B3000080FD00C01E8900D5
:10A7A000A6CF02007F00000048D404007F00000014
:10A7B00045268000850FB2006828E10020003A009D
:10A7C000DEC602007F000000F0CFB3003BF0B70010
:10A7D000A01B810000C0B300A01B89000ED20200A4
:10A7E0007F000000D48180004822DE00F4CFB20058
:10A7F00011003200C01E810000C0B300C01E8900DD
:10A800003BD0BF00DA23F800E0FF9F00DA23F90015
:10A81000D01E81000160EF00D01E8900C01E8100A3
:10A820000080FD0020C0B3000080FD00C01E890034
:10A83000A6CF02007F00000048D404007F00000083
:10A84000C864AF000A003700DEC602007F000000C7
:10A85000801B81007423F800E0FF9F007423F9003F
:10A8600008D102007F00000048D404007F000000EF
:10A87000DEC602007F000000801B81007423F80008
:10A88000E0FF9F007423F9000ED202007F00000059
:10A89000CF027800000006004200F8003600F80001
:10A8A0005400F800801F7800200020000C000900F0
:10A8B000B01F7800501B810000C0B300501B8900FE
:10A8C0000950E20001003A003F003700C004E200F6
:10A8D00002003A008804E2003A0032008884AE00A8
:10A8E000040037008A84AE0002003700CCC30200A7
:10A8F0007F0000009024AE000100370032003700D6
:10A90000C0E4AE0004003700C2E4AE00020037002D
:10A910003CC502007F000000C024AE0004003700E8
:10A92000C224AE000200370064C502007F000000B0
:10A93000C004AE0004003700C204AE0002003700BD
:10A94000F2C602007F000000C084AE0004003700A1
:10A95000C284AE000200370030C702007F00000052
:10A96000C044AE0004003700C244AE00020037000D
:10A9700036C702007F000000C064AE00060037004A
:10A98000C264AE000400370040D202007F00000025
:10A99000D0D404007F000000E2D404007F00000057
:10A9A000501B8100801F78000040E8006A23F800F7
:10A9B000E0FF9F006A23F9004F0078006404E10083
:10A9C000EDFF39000AC8A900FEE7A900A001200098
:10A9D0000C0009004F1078004F0078005400F90077
:10A9E0003600F9004200F9000040060055AEA8000C
:10A9F00051AEA900548EA800508EA90054AEA800F4
:10AA000050AEA900550EA800510EA900540EA90081
:10AA1000500EA900000006000000E0004220AF0038
:10AA20000A0037005B2A090000000000FE3F090011
:10AA300000000000FE3F090000000000FE3F09008A
:10AA4000000000000000E900F6FF3A0000000600E8
:10AA5000601A81000160EF000004E0000100320094
:10AA6000548EA900302EEF00540EA900501A810018
:10AA70005023F800E0FF9F005023F900801A810066
:10AA80000160EF00801A89005023F800340EF900AD
:10AA9000550EA90000000000550EA800000000009F
:10AAA000540EA8004A23F8004F0078004800DE004A
:10AAB0005023F800E0FF9F005023F900801A810026
:10AAC0000160EF00801A89005023F800340EF9006D
:10AAD000550EA90000000000550EA800000000005F
:10AAE000601A81000160EF000004E0000100320004
:10AAF000548EA80000000600501A810040C0B30028
:10AB0000501A8900501A81000080FD0070C0B30007
:10AB10000080FD00501A8900601A810010C0B30047
:10AB2000601A890028D502007F000000501A8100B9
:10AB300060C0B300501A8900501A81000080FD00E7
:10AB400010C0B3000080FD00501A8900601A810017
:10AB500010C0B300601A890028D502007F000000F1
:10AB6000501A810080C0B300501A8900501A810029
:10AB70000080FD0010C0B3000080FD00501A890065
:10AB8000601A810010C0B300601A890028D5020045
:10AB90007F000000501A8100C0C0B300501A890025
:10ABA000501A81000080FD00A0C1B3000080FD00AC
:10ABB000501A8900601A810010C0B300601A890021
:10ABC00028D502007F000000501A810020C1B30088
:10ABD000501A8900501A81000160EF00501A890054
:10ABE000601A810010C0B300601A890028D50200E5
:10ABF0007F000000501A810040C0B300501A890045
:10AC0000501A81000080FD0070C8B3000080FD0074
:10AC1000501A8900601A810010C0B300601A8900C0
:10AC200028D502007F000000A00020000CD5020003
:10AC30007F000000501A810020C1B300501A890023
:10AC4000501A81000080FD0000C8B3000080FD00A4
:10AC5000501A8900601A810010C0B300601A890080
:10AC600028D502007F00000000000600548EA900D5
:10AC7000302EEF00540EA900001681005023F8007A
:10AC8000E0FF9F005023F900801A81000160EF006F
:10AC9000801A89005023F800340EF900550EA900DF
:10ACA00000000000550EA8000000000030AEEF00CC
:10ACB000540EA80054AEA900320EF800C222F900CA
:10ACC00054AEA800C222F8000000F900C022F8002B
:10ACD000F0FF9F00C022F900548EA800C022F800A7
:10ACE0004F0078004800DE0000000600851F780055
:10ACF000F6D402007F00000055AEA900200020001D
:10AD00000CD502007F00000055AEA80055AEA9008A
:10AD100055AEA8007CD502007F000000501A8100CB
:10AD200040C1B300501A8900501A81000080FD0014
:10AD300040C0B3000080FD00501A8900601A8100F5
:10AD400010C0B300601A890028D502007F000000FF
:10AD5000501A810060C1B300501A8900501A810056
:10AD60000080FD00B0C3B3000080FD00501A8900D0
:10AD7000601A810010C0B300601A890028D5020053
:10AD80007F000000501A810080C1B300501A890072
:10AD9000501A81000080FD0050C1B3000080FD000A
:10ADA000501A8900601A810010C0B300601A89002F
:10ADB00028D502007F000000501A8100A0C1B30016
:10ADC000501A8900501A81000080FD00F0C0B300C5
:10ADD0000080FD00501A8900601A810010C0B30085
:10ADE000601A890028D502007F000000501A8100F7
:10ADF000C0C1B300501A8900501A81000080FD00C4
:10AE000010C0B3000080FD00501A8900601A810054
:10AE100010C0B300601A890028D502007F0000002E
:10AE2000501A8100E0C1B300501A8900501A810005
:10AE30000080FD0070C0B3000080FD00501A890042
:10AE4000601A810010C0B300601A890028D5020082
:10AE50007F000000501A810000C2B300501A890020
:10AE6000501A81000160EF00501A8900601A8100B9
:10AE700010C0B300601A890028D502007F000000CE
:10AE8000501A810020C2B300501A8900501A810064
:10AE90000080FD0050C0B3000080FD00501A890002
:10AEA000601A810010C0B300601A890028D5020022
:10AEB0007F000000501A810040C2B300501A890080
:10AEC000501A81000160EF00501A8900601A810059
:10AED00010C0B300601A890028D502007F0000006E
:10AEE000501A810060C2B300501A8900501A8100C4
:10AEF0000080FD0080C0B3000080FD00501A890072
:10AF0000601A810010C0B300601A890028D50200C1
:10AF10007F000000501A810080C2B300501A8900DF
:10AF2000501A81000160EF00501A8900601A8100F8
:10AF300010C0B300601A890028D502007F0000000D
:10AF4000501A8100A0C6B300501A8900501A81001F
:10AF50000080FD0010C0B3000080FD00501A890081
:10AF6000601A810010C0B300601A890028D5020061
:10AF70007F000000501A810020C8B300501A8900D9
:10AF8000501A81000160EF00501A8900601A810098
:10AF900010C0B300601A890028D502007F000000AD
:10AFA000501A8100C0C8B300501A8900501A81009D
:10AFB0000080FD00F0C5B3000080FD00501A89003C
:10AFC000601A810010C0B300601A890028D5020001
:10AFD0007F000000501A8100E0C8B300501A8900B9
:10AFE000501A81000080FD0010C0B3000080FD00F9
:10AFF000501A8900601A810010C0B300601A8900DD
:10B0000028D502007F000000501A810000C9B3005B
:10B01000501A8900501A81000080FD0000C2B30060
:10B020000080FD00501A8900601A810010C0B30032
:10B03000601A890028D502007F000000501A8100A4
:10B0400080C6B300501A8900501A81000080FD00AC
:10B0500080CEB3000080FD00501A8900601A810084
:10B0600010C0B300601A890028D502007F000000DC
:10B07000501A810080C6B300501A8900501A81000E
:10B080000160EF00501A8900601A810010C0B300FF
:10B09000601A890028D502007F000000501A810044
:10B0A00080C6B300501A8900501A81000080FD004C
:10B0B00010C0B3000080FD00501A8900601A8100A2
:10B0C00010C0B300601A890028D502007F0000007C
:10B0D000501A810040C8B300501A8900501A8100EC
:10B0E0000080FD0020C8B3000080FD00501A8900D8
:10B0F000601A810010C0B300601A890028D50200D0
:10B100007F0000000016810060C8B30000168900AF
:10B1100036D602007F000000BE22F800E0FF9F004C
:10B12000BE22F900F41581000410A600F5FF3700D7
:10B13000501A8100A0C2B300501A8900501A810031
:10B140000160EF00501A8900601A810010C0B3003E
:10B15000601A890028D502007F000000501A810083
:10B1600000C5B300501A8900501A81000080FD000C
:10B1700000C8B3000080FD00501A8900601A8100E9
:10B1800010C0B300601A890028D502007F000000BB
:10B19000501A8100A0C2B300501A8900501A8100D1
:10B1A0000080FD0010C0B3000080FD00501A89002F
:10B1B000601A810010C0B300601A890028D502000F
:10B1C0007F000000A00020000CD502007F000000DE
:10B1D000CF0278000000060015EEA90011EEA900CC
:10B1E000152EA800112EA90015AEA80011AEA900B9
:10B1F000158EA800118EA900156EA900116EA90068
:10B2000015CEA90011CEA900114EA8001B4EA80012
:10B2100000000600F0FF2F001862AE0005003700A6
:10B2200019C2AF00FEFF37009110880019C2AF00AD
:10B23000FEFF37000000200019E2AF000000E80028
:10B2400000000600851F78001862AE000400370079
:10B250001622A8001622AF00FEFF370003003700B9
:10B260001602A8001602AF00FEFF370001C9B300A6
:10B270000AD902007F000000F01581000160EF0094
:10B2800080027800854078000AD902007F00000023
:10B29000BE22F800CF007800C808DE000AD90200FC
:10B2A0007F000000F00120001602B600FDFF3A000A
:10B2B0001642A8001642AF00FEFF3700CF0278000A
:10B2C000000006001862AE00040037001622A80035
:10B2D0001622AF00FEFF3700030037001602A80059
:10B2E0001602AF00FEFF370001C9B3000AD9020001
:10B2F0007F000000F11581000AD902007F000000E4
:10B30000F00120001602B600FDFF3A001642A80028
:10B310001642AF00FEFF370000000600851F7800D0
:10B32000612EA800F0158100F0C1B300F01589006E
:10B33000F01581000080FD00E0CDB3000080FD002D
:10B34000F015890022D902007F000000632EAE00B4
:10B35000FEFF3700F015810000C0B300F015890032
:10B36000F01581000160EF00F015890022D902007C
:10B370007F000000F015810010C0B300F0158900B7
:10B38000F01581000080FD0050C2B3000080FD0078
:10B39000F015890022D902007F000000F01581001D
:10B3A00020C0B300F0158900F01581000080FD0079
:10B3B000B0C0B3000080FD00F015890022D9020062
:10B3C0007F000000F015810030C0B300F015890047
:10B3D000F01581000160EF00F015890022D902000C
:10B3E0007F000000F015810040C0B300F015890017
:10B3F000F01581000080FD0000CCB3000080FD004E
:10B40000F015890022D902007F000000F0158100AC
:10B4100000CEB300F015890062D902007F00000061
:10B42000CF0278000000060015CEA8002E23F800F9
:10B43000340EF900302EEF0015AEA90015AEA800AD
:10B4400015CEA9000200090000000000000006005F
:10B45000851F7800302EEF00801981000160EF0019
:10B4600080198900801981004800DE00841981005C
:10B470000960EF000024E10015003600156EA800F9
:10B4800015AEA900841981004822DE0070198100E0
:10B490000000420090427800340EF800E5FF9F0063
:10B4A000340EF900356EEF0015AEA800156EA90038
:10B4B000801981004800DE000040E8003023F800D9
:10B4C000F0FF9F003023F90032DA04007F00000013
:10B4D000CF02780000000600851F7800C4312200EA
:10B4E0007419890070198100801F78000000E8003D
:10B4F000701989004F007800800278006018810080
:10B50000804A780070198100801F78000000E800F0
:10B51000701989004F007800800278000C23F80031
:10B520004F0078004800DE00804A780070198100E2
:10B53000801F78000000E800701989004F00780033
:10B5400080027800701881000160EF0000437800ED
:10B55000F603B200741881000000EB000480A7001D
:10B560000000E8000160EF004600DD00000373000A
:10B5700080188100E10360004738DD00000073009F
:10B58000804A780070198100801F78000000E80070
:10B59000701989004F0078008002780086188100B9
:10B5A0004133DE0006007800F00FB200804A7800D8
:10B5B00075198100861881004933DE00610063003F
:10B5C000804A7800152EA900040020007419890013
:10B5D00014DA02007F0000008019810050C0B3001F
:10B5E00080198900C43122007419890028DA020008
:10B5F0007F000000040320007419890014DA02009F
:10B600007F000000134EAE00FEFF370030AEEF00AB
:10B6100004002000C418890004002000D418890008
:10B62000D0188100B41881000020E1009900390091
:10B6300004003E00C0188100A41881000020E10031
:10B640009400360060188100044020000020E100D2
:10B6500070003E00701881000040E8000E23F800E2
:10B66000E0FF9F000E23F900701881000160EF00D9
:10B67000040420000024E10018003E00801881002E
:10B680000000E80080188900801881000440200034
:10B690000020E1000E003E000E23F8004F0278006B
:10B6A0004822DE000800A9000E23F800CF01780030
:10B6B000C819DE000300A6000800A8000E23F80049
:10B6C000F4FF9F000E23F900040020008418890075
:10B6D0007018810000C0B3007018890004002000B9
:10B6E00064188900C431220074198900701981001E
:10B6F000801F78000000E800701989004F00780072
:10B700008002780060188100804A780070198100FA
:10B71000801F78000000E800701989004F00780051
:10B72000800278000C23F8004F0078004800DE000B
:10B73000804A780070198100801F78000000E800BE
:10B74000701989004F00780080027800701881001D
:10B750000160EF0000437800F603B2007418810026
:10B760000000EB000480A7000000E8000160EF008B
:10B770004600DD000003730080188100E1036000D3
:10B780004738DD0000007300804A7800701981009E
:10B79000801F78000000E800701989004F007800D1
:10B7A00080027800861881004133DE0006007800B0
:10B7B000F00FB200804A7800751981008618810068
:10B7C0004933DE0061006300804A780004002000F5
:10B7D0007419890014DA02007F00000080198100CA
:10B7E00050C0B30080198900C43122007419890047
:10B7F00028DA02007F000000040320007419890089
:10B8000014DA02007F000000134EAE00FEFF370086
:10B8100030AEEF0090188100801F78000080E800B3
:10B82000901889004F00780080027800851F78000A
:10B83000158EA900158EA800320EF8003023F900ED
:10B840003023F8000000F900CF027800800A780069
:10B85000C0188100D1188100801F7800811F7800F6
:10B860000000E800C0188900D01881004220AF0015
:10B870000000E800D0188900CF0078004F00780061
:10B88000601881000000E8006018890010DB0400E7
:10B890007F000000152EA800CF02780000000600EF
:10B8A00076D602007F000000ECD802007F00000086
:10B8B0008ED902007F00000004002000C41589001A
:10B8C000D015810000C0B300D0158900F43F2000DE
:10B8D000E4158900D01581000100A800D015890069
:10B8E000B822F8000C23F900BA22F8000E23F90060
:10B8F000BC22F8001023F9002402210094188900CA
:10B9000074002000A418890004002000B4188900E5
:10B910006CDA02007F00000024818000F3FF2F001A
:10B920000418E10013003A0014818000F3FF2F0097
:10B930000418E1000F003A0054818000F3FF2F004B
:10B940000418E1000B003A0044818000F3FF2F004F
:10B950000418E10007003A002430EF002230EF0025
:10B960002610A9002A30EF002830EF002C10A90083
:10B970002E10A900C3E8A80000000600CA24EF00AA
:10B98000C224EF00C208F800C3E8A900444C20001C
:10B99000641B890056C502007F000000C208F90040
:10B9A000C208F800C3E8A900044C2000641B890009
:10B9B00056C502007F000000C208F9008A24EF008B
:10B9C0009004A800DC24EF00DE24EF00CA24A800C5
:10B9D0000970EF00CC24EF00014E2000020020008F
:10B9E0001F0009008058EB00012021000200200008
:10B9F0005F0009008058EB002401200074268800B5
:10BA0000D824EF00DA24EF00C208F800C3E8A90048
:10BA1000BAC502007F000000C208F900CAA4A9004C
:10BA20008EE4A9008EC4A9008EE4A80000000600E0
:10BA3000BEDC02007F00000000000600C208F80023
:10BA4000C3E8A900BAC502007F000000C208F900DF
:10BA5000CA24EF00CA24A800C224EF00DC24EF00AF
:10BA6000DE24EF00CA04AF0003003700CA04A800B8
:10BA700032DD04007F00000010C0B30009F0B70001
:10BA800000000600851F78008C64AE0006003700B9
:10BA9000CA04AF00020037001EDD02007F00000074
:10BAA0005CDD04007F000000CA04AE000200370025
:10BAB000BEDC02007F000000448080004822DE00DF
:10BAC0006124E10010003A00CAC4AF000E00370044
:10BAD000C208F800C3E8A900044C2000641B8900D8
:10BAE00056C502007F000000C208F900C224EF0022
:10BAF0002AC8A800C3E8A800140120001426880062
:10BB000020C0B30009F0B700CF02780000000600A3
:10BB1000811F7800B1148100805878008048EB00C4
:10BB2000CF007800B01481000000E800B014890054
:10BB300000000600851F7800EE22F8004F02780012
:10BB40004822DE000800A9002A68AF000800A8000B
:10BB5000EE22F800F4FF9F00EE22F9002A68A90007
:10BB6000448A80004822DE00F3032000041CE10028
:10BB700002003E00E0C3B30049F1B70049D1BF0065
:10BB80004971EC000080FB00A415210084024000F4
:10BB90007017810080429800741781000480A6000D
:10BBA000010037002A68A800CF02780000000600D4
:10BBB00060178100EE22F800E0FF9F00EE22F900FE
:10BBC0009ADD02007F000000C208F800C3E8A90067
:10BBD000D6D102007F000000C208F9000000060074
:10BBE000F4032000438A8000C819DE00034052009D
:10BBF0000004E00011003A00C208F800C3E8A90000
:10BC0000401F810020C0B300401F890068CF0200A0
:10BC10007F000000C208F9000004E00005003200C7
:10BC2000C208F800C3E8A900D6D102007F000000D6
:10BC3000C208F900F0DD04007F0000005017810009
:10BC4000EC22F800E0FF9F00EC22F900D8DD0200B2
:10BC50007F00000000000600851F7800B0198100F9
:10BC600000027800F0FF2F0004006800C01989006E
:10BC700090198100E70260000500E0000700320033
:10BC80009019810067006000941981000000520043
:10BC9000D019890052DE04007F0000003223F80032
:10BCA0003A23F900D019810068004000E0198900AA
:10BCB000548EA900D5198100C22ADE00501A8100D5
:10BCC000A0C5B300501A89004A23F800F5FF9F0071
:10BCD0004A23F900601A810000C0B300601A89008D
:10BCE00028D502007F000000A5198100C22ADE00CD
:10BCF000501A8100C0C5B300501A89004A23F800C9
:10BD0000F5FF9F004A23F900601A810000C0B300CC
:10BD1000601A890028D502007F000000A019810068
:10BD2000E3026000801F7800501A8100E0C5B30074
:10BD3000501A89004F0078004A23F800F5FF9F0051
:10BD40004A23F900801F7800601A810000C0B30008
:10BD5000601A89004F00780028D502007F0000009B
:10BD6000D5198100C22ADE00501A810000C6B30036
:10BD7000501A89004A23F800F5FF9F004A23F90072
:10BD8000601A810000C0B300601A890028D5020043
:10BD90007F000000A5198100C22ADE00501A810030
:10BDA00020C6B300501A89004A23F800F5FF9F000F
:10BDB0004A23F900601A810000C0B300601A8900AC
:10BDC00028D502007F000000A0198100E302600076
:10BDD000801F7800501A810040C6B300501A8900B5
:10BDE0004F0078004A23F800F5FF9F004A23F9002E
:10BDF000801F7800601A810000C0B300601A8900BB
:10BE00004F00780028D502007F000000501A810002
:10BE100020C5B300501A8900501A81000080FD002F
:10BE200080C0B3000080FD00501A8900601A8100B4
:10BE300000C0B300601A890028D502007F0000000E
:10BE40003823F8004F0078004800DE000160EF0062
:10BE500080427800850FB200801F7800501A810060
:10BE600040C5B300501A89004F0078004A23F800FB
:10BE7000F5FF9F004A23F900801F7800601A8100B7
:10BE800000C0B300601A89004F00780028D5020076
:10BE90007F000000C019810000027800007E2000B1
:10BEA00084026000C32ADE00501A810060C5B3001E
:10BEB000501A89004A23F800F5FF9F004A23F90031
:10BEC000601A810000C0B300601A890028D5020002
:10BED0007F000000C01981000160EF00FF026000D8
:10BEE000C32ADD00501A810080C5B300501A8900B2
:10BEF0004A23F800F5FF9F004A23F900601A8100E9
:10BF000000C0B300601A890028D502007F0000003D
:10BF1000302EEF00540EA90064062000841A890018
:10BF20005023F800340EF900550EA900000000005F
:10BF3000550EA80000000000540EA8003A23F80097
:10BF40003E23F900F0198100E41981000020E1008E
:10BF50001D003600F0198100941981000020E100D5
:10BF60000B003A003623F8004623F9004623F80078
:10BF7000340EF900550EA90000000000550EA8006F
:10BF80000D00090000000000DADF04007F0000005F
:10BF90003823F8004623F9004623F800340EF90050
:10BFA000550EA90000000000550EA8000D00090064
:10BFB00000000000F01981000000E800F01989007D
:10BFC000A2DF04007F000000501A810020C5B300EA
:10BFD000501A8900501A81000160EF00501A890040
:10BFE000601A810000C0B300601A890028D50200E1
:10BFF0007F000000548EA800CF02780000000600E9
:10C00000851F7800301781001417810084025000CA
:10C010000500780000F0A6000200370004002000B0
:10C0200005005200A01789004017810024178100E5
:10C03000840250000500780000F0A60002003700DE
:10C040000400200005005200B0178900E222F80029
:10C05000EC22F900E422F800EE22F900301781000A
:10C06000141781000020E10004003600F4FF2F00C7
:10C070008417890042E004007F00000014002000C3
:10C080008417890040178100241781000020E100F7
:10C0900004003600F4FF2F009417890056E00400D6
:10C0A0007F0000001400200094178900B017810061
:10C0B000A41781000020E10050003500B017810076
:10C0C000000278006220B80080027800A01781008A
:10C0D00000805200C017890004002000D417890096
:10C0E000D0178100A41781000020E1004100350035
:10C0F0000850AF000A003700EC22F8003223F900A4
:10C10000EE22F8003423F900EA22F8003623F90081
:10C110002CDE02007F000000ACE004007F00000085
:10C1200060178100041120000020E1000A003500A2
:10C13000601781000411200080025200EE22F800F6
:10C140003223F900A5198900EA22F8003623F90004
:10C150002CDE02007F000000C01781006000E100BB
:10C160000C003D00B0178100000278006220B8008A
:10C17000C417810004004000C017890060178100C7
:10C18000841781000400400060178900F0E004007B
:10C190007F000000B0178100000278006220B80024
:10C1A00080027800A0178100000278006220B800A9
:10C1B00000805200C417810004004000C0178900AD
:10C1C0006017810084178100040040006017890017
:10C1D00070178100941781000400400070178900D7
:10C1E000D01781000000E800D017890070E004003B
:10C1F0007F0000009AE104007F000000A01781008A
:10C20000000278006220B80080027800B017810038
:10C2100000805200C017890004002000D417890054
:10C22000D0178100B41781000020E10041003500E3
:10C230000850AF000A003700EC22F8003223F90062
:10C24000EE22F8003423F900EA22F8003623F90040
:10C250002CDE02007F0000004CE104007F000000A3
:10C2600060178100041120000020E1000A00350061
:10C27000601781000411200080025200EE22F800B5
:10C280003223F900A5198900EA22F8003623F900C3
:10C290002CDE02007F000000C01781006000E1007A
:10C2A0000C003D00A0178100000278006220B80059
:10C2B000C417810004004000C01789007017810076
:10C2C00094178100040040007017890090E1040079
:10C2D0007F000000A0178100000278006220B800F3
:10C2E00080027800B0178100000278006220B80058
:10C2F00000805200C417810004004000C01789006C
:10C3000060178100841781000400400060178900D5
:10C310007017810094178100040040007017890095
:10C32000D01781000000E800D017890010E1040058
:10C330007F000000CF02780000000600851F780013
:10C34000861F7800871F7800881F7800C01581003D
:10C35000E41581000020E10009003600B822F80051
:10C36000C822F900E0158100C41581008402500044
:10C370006180420020168900CEE104007F000000A9
:10C38000BC22F800C822F900C0158100E415810024
:10C39000840250006180420020168900D01581007F
:10C3A000F41581000020E10009003600BA22F800EF
:10C3B000CA22F900F0158100D415810084025000D2
:10C3C0006180420030168900F6E104007F00000021
:10C3D000BE22F800CA22F900D0158100F4158100B0
:10C3E00084025000618042003016890010168100DE
:10C3F0000160EF000004E000210032000400200092
:10C400006416890060168100241681000020E10076
:10C410001900390050168100341681008402400052
:10C42000E1825200C822F800E222F900CA22F80094
:10C43000E422F900C822F800E622F9004517890035
:10C44000C022F800EA22F90000E002007F000000AC
:10C4500060168100801F78000000E80060168900E7
:10C460004F007800401681000000E8004016890067
:10C4700002E204007F000000D4E204007F0000001C
:10C48000401681002416810084024000E18252009F
:10C49000C822F800E222F900CA22F800E422F900DA
:10C4A00035178900CA22F800E822F900C022F800F6
:10C4B000EA22F90000E002007F000000501681002F
:10C4C0003416810084024000E1825200401681004F
:10C4D00024168100040340006103530050168100BC
:10C4E0003416810084034000E1835300C822F80021
:10C4F000E222F900251789003617890047178900BD
:10C50000C022F800EA22F90000E002007F000000EB
:10C5100050168100E102400050168100341681005F
:10C520000403400062035300C822F800E222F9002D
:10C5300025178900C822F800E622F900461789006D
:10C54000C022F800EA22F90000E002007F000000AB
:10C55000401681002416810084024000E1825200CE
:10C5600050168100610340004016810024168100AE
:10C5700084034000E183530050168100341681008B
:10C58000040440006204540015178900261789002E
:10C590003717890048178900C022F800EA22F900FD
:10C5A00000E002007F0000004F047800CF03780015
:10C5B0004F037800CF02780000000600851F780046
:10C5C000861F78003019810044002000800242005C
:10C5D0004019810015027800800A4200301981005C
:10C5E0004400200000004200900278000440200037
:10C5F0000520E10014003E003019810034002000C5
:10C60000800242000A00AA000000EB000A00AF000E
:10C610000000E8000004E00003003A0040C0B3005E
:10C6200000E0B70009003700301981004400200005
:10C63000800242001502780003402000830A520065
:10C64000EEE204007F0000000060EF004F0378007E
:10C65000CF02780000000600851F7800861F780052
:10C66000301981002400200080024200401981001E
:10C6700015427800804A42003019810024002000D1
:10C6800000004200040420001024E10021003E00CC
:10C69000301981004400200080024200950AE80021
:10C6A000044020001520E10012003E0030198100F6
:10C6B00034002000800242000A00AA000000EB00C3
:10C6C0000A00AF000000E8000004E00003003A00A8
:10C6D00040C0B30000E0B7000F0037003019810000
:10C6E0004400200080024200804AEB0000C0B300FA
:10C6F00090429800301981002400200080024200FE
:10C70000154278000444B100844298003CE30400E0
:10C710007F0000000060EF004F037800CF02780038
:10C7200000000600851F7800861F7800C51881006C
:10C73000804AEB0000C0B30090429800C01881000E
:10C740002400200080024200804AEB00C0188100D3
:10C750004400200080024200804AEB0000C0B30089
:10C7600090429800C01881003400200080024200EE
:10C77000E40F2000954A6200D01881000000A90053
:10C78000D0188900B0188100044020000020E1008A
:10C7900027003E0003003900A01881006000E1007E
:10C7A00023003900D41881000800A900D3188100A3
:10C7B0000300A6000800A8001A23F800E4FF9F0069
:10C7C0001A23F900D41881000400A70003003700E1
:10C7D00010C0B30000E0B70067003700C018810048
:10C7E0003400200080024200D41881000400A70019
:10C7F00004003700E40F2000954A620006E40400BC
:10C800007F00000014002000954A7200A0188100EB
:10C8100060005000A0188900B0188100044020007A
:10C8200004005800B0188900C2E304007F00000033
:10C83000B01881006100E1001E00390003003E00D5
:10C84000A01881006000E1001A003900B6188100CC
:10C850001823F8002623F90046198900DEE20200B9
:10C860007F0000000004E0000300320010C0B300AD
:10C8700000E0B70040003700B01881006100E1001F
:10C880000C00390003003E00A01881006000E100A8
:10C8900008003900A018810060005000A01889002D
:10C8A000B018810061005800B01889003CE4040011
:10C8B0007F000000B01881006000E1002A0039000C
:10C8C00004003E00A0188100044020000020E10088
:10C8D00025003E00A4002000A0188100B1188100AE
:10C8E0000402E8000402E900030032008100D100E4
:10C8F0000080D300FBFF3700000378001823F80006
:10C900002623F900461989002CE302007F0000006D
:10C910000004E0000300320010C0B30000E0B700E4
:10C9200015003700B01881006000E1000E003900EA
:10C9300004003E00A0188100044020000020E10017
:10C9400009003E00A01881000440200004005000AF
:10C95000A0188900B018810060005800B018890044
:10C9600092E404007F000000C5188100A418810033
:10C97000840298000060EF004F037800CF02780037
:10C9800000000600851F7800861F780025198100A9
:10C990003019810015027800800A420020198100B8
:10C9A00090027800044020000520E1002A003E00AB
:10C9B000201981002400200080024200954AE800EE
:10C9C000040420001524E1001D003E002019810010
:10C9D0004400200080024200950AE8000440200044
:10C9E0001520E10012003E002019810034002000D3
:10C9F000800242000A00AA000000EB000A00AF001B
:10CA00000000E8000004E00003003A0040C0B3006A
:10CA100000E0B70011003700201981004400200019
:10CA200080024200804AEB0000C0B30090429800B0
:10CA3000201981002400200080024200804AEB007F
:10CA4000251981001502780003402000830A520056
:10CA5000CEE404007F0000000060EF004F03780088
:10CA6000CF02780000000600851F7800861F78003E
:10CA7000C01881006000E1002900390004003E0078
:10CA8000B0188100044020000020E10024003E0096
:10CA9000A4002000B0188100C11881000402E80041
:10CAA0000402E900030032008100D1000080D300BD
:10CAB000FBFF3700000378001423F8002623F90059
:10CAC000461989002CE302007F0000000004E0000A
:10CAD000020032000060EF0023003700C018810020
:10CAE0006000E1000E00390004003E00B018810033
:10CAF000044020000020E10009003E00B018810041
:10CB00000440200004005000B0188900C0188100C3
:10CB100060005800C01889006EE504007F00000026
:10CB2000B01881000000E00003003A00C418810042
:10CB30000400E0000A003200B61881001423F80057
:10CB40002423F90036198900C2E402007F000000A6
:10CB50000004E000020032000060EF000200370035
:10CB600010C0B30000E0B7004F037800CF02780098
:10CB700000000600851F7800861F7800501881008D
:10CB800000C0B30050188900301881000000E00098
:10CB90000400320030188100042020000020E10051
:10CBA0000300310060C0B30000E0B7002A00370086
:10CBB00030188100E10250000500780001002000DB
:10CBC000140120000402E8000402E900030032001E
:10CBD0000000D0008180D200FBFF3700E00240005F
:10CBE0000440200004834800A5188900B618890075
:10CBF0000823F8001823F90092E302007F000000E8
:10CC00000A23F800E0FF9F000A23F9005018810072
:10CC10000160EF000004E0000D003A000823F80076
:10CC20001423F90004C02700B41889001400200060
:10CC3000C418890034E502007F0000000004E00011
:10CC400003003A0050188100A0C0B30050188900BA
:10CC50005018810000E0B7004F037800CF02780041
:10CC600000000600851F7800F622F8000623F90070
:10CC7000C42F220044188900BAE502007F0000009A
:10CC8000FA22F800E0FF9F00FA22F900D017810095
:10CC90000160EF000004E00020003A00FC22F800F0
:10CCA0000C23F900FE22F8000E23F9000023F800FF
:10CCB0001023F900F822F8001223F9006400200084
:10CCC000A418890004002000B41889006CDA02005E
:10CCD0007F000000C017810090027800F4FF2F0051
:10CCE0000520E10005003A00D017810090C0B30094
:10CCF000D01789008EE604007F000000C017810075
:10CD000090027800B01781000500E10003003200B6
:10CD1000D017810060C0B300D0178900D017810000
:10CD200000E0B700CF02780000000600851F780001
:10CD30000A23F8000C23F9006518810044188100CB
:10CD400084029800601881002400200080024200C4
:10CD5000804AEB0000C0B300904298000C23F8001A
:10CD60000000F900CF02780000000600851F78005F
:10CD7000101881002400200000004200900278007A
:10CD80000500E00008003A0020188100240020007F
:10CD900080024200804AEB0000C0B300904298003D
:10CDA000E2E604007F00000020188100240020003B
:10CDB0008002420010188100240020000000420080
:10CDC000900A7800101881002400200080024200A0
:10CDD0002418810084029800CF0278000000060029
:10CDE000851F78003518810044188100840298005E
:10CDF000CF02780000000600851F7800861F7800AB
:10CE0000C0178100610060000000E00003003200F4
:10CE1000C01781000000E800C0178900E211F80087
:10CE2000FA22F900D01781000000E0003F00320034
:10CE3000D01781009002780005F0A7003400370079
:10CE4000D017810010037800C01781000600E100B0
:10CE50002F003E00D0178100901F7800FE22F900BD
:10CE6000C017810064004000F41781000020E10039
:10CE70001D003600F0178100C417810084025000A5
:10CE8000E4825200D017810064034000C017810083
:10CE900000034300451889005618890096E60200F1
:10CEA0007F000000E0178900FA22F8000223F90051
:10CEB000FC22F8000423F900B6E602007F0000001F
:10CEC000C01781000400280084024000FA22F80004
:10CED0000623F90045188900F0E602007F000000F3
:10CEE00084E704007F000000F017810004002800A0
:10CEF00084024000FA22F8000623F9004518890050
:10CF0000F0E602007F00000096E704007F000000CA
:10CF1000D01781002400200000004200901F7800FC
:10CF2000FA22F90012E704007F000000D017810008
:10CF30000000E00004003A000020EF000600370087
:10CF4000ACE704007F000000D017810064004000BF
:10CF500000A0B700000037004F037800CF02780030
:10CF600000000600851F7800E211F8000823F90090
:10CF70004018810024002000000042009002780048
:10CF8000301881000500E1000700320040188100E0
:10CF90002400200000004200901F78000823F900C0
:10CFA000B8E704007F000000401881002400200042
:10CFB000800242003018810024002000000042005E
:10CFC000900A78000400200034188900CF0278000D
:10CFD00000000600851F7800861F7800E211F80027
:10CFE000FE22F900F01781000000E0003900320055
:10CFF000F01781009002780005F0A7002E0037009E
:10D00000F0178100901F78000223F900F0178100CB
:10D010002400200000004200901F78000023F90047
:10D02000001881009002780005F0A7001B0037006F
:10D03000F0178100141881000403400064004300CD
:10D04000041881000400E10014003A000018810077
:10D05000901F78000423F90020188100640040002C
:10D060001418810004004000101889000023F80003
:10D070000623F900B2E702007F000000FE22F8005C
:10D080000623F9000223F8000823F900F0E6020065
:10D090007F00000058E804007F000000F0178100C6
:10D0A0002400200000004200901F7800FE22F900BA
:10D0B00066E804007F000000F017810024002000D3
:10D0C00000004200901F7800FE22F900F2E7040001
:10D0D0007F0000004F037800CF02780000000600B8
:10D0E000851F7800B01781000000E00003003A00BF
:10D0F0001D003700B0E804007F000000B017810079
:10D1000064005000C0178900C017810090027800A9
:10D1100005F0A6000F003700C017810090027800CC
:10D120000400280004805200D0178900F822F8007B
:10D130000623F900FA22F8000823F900F0E60200BD
:10D140007F00000004002000B4178900B0E804004C
:10D150007F00000004002000B4178900020037009F
:10D16000EAE702007F000000CF027800000006001E
:10D17000851F7800C500200003000900B51F780056
:10D180000202B8000303B8004200A9008502430070
:10D1900060844B00020BB80085024B0008844B00F2
:10D1A000030BB800080443000780B0008701780033
:10D1B000080178008500780004007800250120002F
:10D1C00003000900CF127800CF02780000000600AB
:10D1D000851F7800861F7800871F7800C0178100A0
:10D1E000900278000500E00024003A00D01781008A
:10D1F0000160EF000042B100FE22F800E0FF9F0056
:10D20000FE22F900D01781000160EF00D0178900DD
:10D21000D01781004800DE006804E10015003100ED
:10D22000D41781004822DE00E0178100800242000E
:10D23000F01781000160EF004303DD00D417810087
:10D240004822DE000400430000C002007F0000000E
:10D25000804A7800D01781004800DE000040E800D6
:10D26000FA22F800F0FF9F00FA22F90008E9040012
:10D270007F000000EAE904007F000000C017810081
:10D2800054002000000042000002780014407800A2
:10D29000D41781000960EF0000405200FE22F80020
:10D2A000E0FF9F00FE22F900C0178100640020000B
:10D2B00080024200013022000501780005000900CB
:10D2C000B2587800C01781003400200000004200EE
:10D2D000104078000160EF000020D5000020D5004C
:10D2E0000020D50030188900C017810034002000CC
:10D2F00000004200104078000160EF00E70260008B
:10D300000500E00003003200301881000000E80052
:10D3100030188900C017810024002000000042005E
:10D320000002780014407800341881000160EF009A
:10D330000020B80030188900341881000400A600CD
:10D3400003003700301881000000E8003018890021
:10D35000301881000020D50030188900361881006F
:10D3600007002000F21781000560EF000300200095
:10D370000600780087007800B8E802007F0000000F
:10D380000003BE0004302200A4188900B6188900EA
:10D39000C718890034E502007F0000000023F80070
:10D3A0000C23F9000223F8000E23F9000423F800EF
:10D3B0001023F900FC22F8001223F9000623F800DC
:10D3C0001423F90004002000B41889006CDA02006C
:10D3D0007F000000CF0378004F037800CF02780071
:10D3E00000000600851F7800861F780085188100E0
:10D3F0000600200090188100010020000001780044
:10D40000810178000500780086007800B8E8020005
:10D410007F000000D0188900E118890060188100A1
:10D42000E70260000500E00016053A008018810060
:10D43000E70260000500E00012053A00548EA900E2
:10D4400065188100C22ADE00501A8100A0C5B30011
:10D45000501A89004A23F800F5FF9F004A23F9007B
:10D46000601A810000C0B300601A890028D502004C
:10D470007F00000075188100C22ADE00501A81006A
:10D48000C0C5B300501A89004A23F800F5FF9F0079
:10D490004A23F900601A810000C0B300601A8900B5
:10D4A00028D502007F00000070188100E3026000B0
:10D4B000801F7800501A8100E0C5B300501A89001F
:10D4C0004F0078004A23F800F5FF9F004A23F90037
:10D4D000801F7800601A810000C0B300601A8900C4
:10D4E0004F00780028D502007F00000065188100F9
:10D4F000C22ADE00801881004200DE008502400062
:10D50000E2825200501A810000C6B300501A89000E
:10D510004A23F800F5FF9F004A23F900601A8100B2
:10D5200000C0B300601A890028D502007F00000007
:10D53000701881009418810084024000E18252003A
:10D54000C22ADE00501A810020C6B300501A89009A
:10D550004A23F800F5FF9F004A23F900601A810072
:10D5600000C0B300601A890028D502007F000000C7
:10D57000701881009418810084024000E1825200FA
:10D58000E3826200501A810040C6B300501A89003D
:10D590004A23F800F5FF9F004A23F900601A810032
:10D5A00000C0B300601A890028D502007F00000087
:10D5B000302EEF00540EA90064062000841A890062
:10D5C0005023F800340EF900550EA90000000000A9
:10D5D000550EA80000000000540EA800D0188100CD
:10D5E00080027800F503B200E41881000003EB002C
:10D5F0000500E00006003A000600E00004003A00E2
:10D6000004042000F418890084EB04007F0000006B
:10D61000D0188100FF026000E41881000003EB00D5
:10D620000500E00006003A000600E00004003A00B1
:10D6300004022000F418890084EB04007F0000003D
:10D64000D0188100EF026000E41881000003EB00B5
:10D650000500E00006003A000600E00004003A0081
:10D6600004012000F418890084EB04007F0000000E
:10D67000D0188100E7026000E41881000003EB008D
:10D680000500E00006003A000600E00004003A0051
:10D6900084002000F418890084EB04007F0000005F
:10D6A000D0188100E3026000E41881000003EB0061
:10D6B0000500E00006003A000600E00004003A0021
:10D6C00044002000F418890084EB04007F0000006F
:10D6D000D0188100E1026000E41881000003EB0033
:10D6E0000500E00006003A000600E00004003A00F1
:10D6F00024002000F418890084EB04007F0000005F
:10D7000014002000F418890004002000B4188900D7
:10D7100004002000C4188900F01881000084B200C1
:10D720000B0032000086B200100232000083B2000B
:10D73000140332008081B20098033200C080B2002E
:10D74000DC0332006080B20000043200270437009E
:10D75000A0188100801F78000080E800A0188900D0
:10D760004F00780090027800851F7800351A8900F4
:10D770004623F800340EF900550EA9000000000001
:10D78000550EA8000D00090000000000CF0278002F
:10D79000A0188100801F78000080E800A018890090
:10D7A0004F00780090027800851F7800351A8900B4
:10D7B0004623F800340EF900550EA90000000000C1
:10D7C000550EA8000D00090000000000CF027800EF
:10D7D000A0188100801F78000080E800A018890050
:10D7E0004F00780090027800851F7800351A890074
:10D7F0004623F800340EF900550EA9000000000081
:10D80000550EA8000D00090000000000CF027800AE
:10D81000A0188100801F78000080E800A01889000F
:10D820004F00780090027800851F7800351A890033
:10D830004623F800340EF900550EA9000000000040
:10D84000550EA8000D00090000000000CF0278006E
:10D85000A0188100801F78000080E800A0188900CF
:10D860004F00780090027800851F7800351A8900F3
:10D870004623F800340EF900550EA9000000000000
:10D88000550EA8000D00090000000000CF0278002E
:10D89000A0188100801F78000080E800A01889008F
:10D8A0004F00780090027800851F7800351A8900B3
:10D8B0004623F800340EF900550EA90000000000C0
:10D8C000550EA8000D00090000000000CF027800EE
:10D8D000A0188100801F78000080E800A01889004F
:10D8E0004F00780090027800851F7800351A890073
:10D8F0004623F800340EF900550EA9000000000080
:10D90000550EA8000D00090000000000CF027800AD
:10D91000A0188100801F78000080E800A01889000E
:10D920004F00780090027800851F7800351A890032
:10D930004623F800340EF900550EA900000000003F
:10D94000550EA8000D00090000000000CF0278006D
:10D95000A0188100801F78000080E800A0188900CE
:10D960004F00780090027800851F7800351A8900F2
:10D970004623F800340EF900550EA90000000000FF
:10D98000550EA8000D00090000000000CF0278002D
:10D99000A0188100801F78000080E800A01889008E
:10D9A0004F00780090027800851F7800351A8900B2
:10D9B0004623F800340EF900550EA90000000000BF
:10D9C000550EA8000D00090000000000CF027800ED
:10D9D000A0188100801F78000080E800A01889004E
:10D9E0004F00780090027800851F7800351A890072
:10D9F0004623F800340EF900550EA900000000007F
:10DA0000550EA8000D00090000000000CF027800AC
:10DA1000A0188100801F78000080E800A01889000D
:10DA20004F00780090027800851F7800351A890031
:10DA30004623F800340EF900550EA900000000003E
:10DA4000550EA8000D00090000000000CF0278006C
:10DA5000A0188100801F78000080E800A0188900CD
:10DA60004F00780090027800851F7800351A8900F1
:10DA70004623F800340EF900550EA90000000000FE
:10DA8000550EA8000D00090000000000CF0278002C
:10DA9000A0188100801F78000080E800A01889008D
:10DAA0004F00780090027800851F7800351A8900B1
:10DAB0004623F800340EF900550EA90000000000BE
:10DAC000550EA8000D00090000000000CF027800EC
:10DAD000A0188100801F78000080E800A01889004D
