:08000000C4060400000000002A
:04000C000C080000DC
:100010001008000014080000180800001C08000068
:100020002008000024080000280800002C08000018
:100030003008000034080000380800003C080000C8
:100040004008000044080000480800004C08000078
:100050005008000054080000580800005C08000028
:100060006008000064080000680800006C080000D8
:100070007008000074080000780800007C08000088
:100080008008000084080000880800008C08000038
:100090009008000094080000980800009C080000E8
:1000A000A0080000A4080000A8080000AC08000098
:1000B000B0080000B4080000B8080000BC08000048
:1000C000C0080000C4080000C8080000CC080000F8
:1000D000D0080000D4080000D8080000DC080000A8
:1000E000E0080000E4080000E8080000EC08000058
:1000F000F0080000F4080000F8080000FC08000008
:100100000009000004090000080900000C090000B3
:100110001009000014090000180900001C09000063
:100120002009000024090000280900002C09000013
:100130003009000034090000380900003C090000C3
:100140004009000044090000480900004C09000073
:100150005009000054090000580900005C09000023
:100160006009000064090000680900006C090000D3
:100170007009000074090000780900007C09000083
:100180008009000084090000880900008C09000033
:100190009009000094090000980900009C090000E3
:1001A000A0090000A4090000A8090000AC09000093
:1001B000B0090000B4090000B8090000BC09000043
:1001C000C0090000C4090000C8090000CC090000F3
:1001D000D0090000D4090000D8090000DC090000A3
:1001E000E0090000E4090000E8090000EC09000053
:1001F000F0090000F4090000F8090000FC09000003
:100400003220EF00C3202000008041001040BA00DD
:100410000160EF0000000600426F00006F740000F2
:100420006C6F0000616400006572000020520000E3
:1004300065610000647900000D0A00000000000002
:100440004200F8003600F8003200F800801F780003
:10045000200020000C000900B01F7800A00120003F
:100460000C0009004F1078004F0078003200F900AE
:100470003600F9004200F900004006000000E000EC
:100480004220AF00040037000B27090000000000E5
:100490000000E900FCFF3A00000006007CD0BF002D
:1004A0002322AF00FEFF370024E2B7002562EF00F1
:1004B00000000600F0FF2F00F1FF2F0044A8B70056
:1004C00031428800000006008460AE00070037005B
:1004D0004830EC000081BF000000E8004220AF007F
:1004E0000021EF008460A900090037000081BF00EF
:1004F0008460AE00070037004830EC000081BF0088
:100500000000E8004220AF000021EF008460A90055
:100510000081BF0041828000920020008180D300D2
:100520000080D3000201E900FCFF3A000000060051
:100530002202AE00FEFF37002202F8000008F90098
:10054000301180002222A90000000600851F7800DB
:100550008270EF008430EF00248480006220E1008C
:1005600021003D008090BF00140420001024E10011
:100570000D003E0082D0BF000160EF00C402DD002C
:100580008090BF0000027800144078000080FB00DB
:10059000850240001504B1006AC0420082F0B70035
:1005A000EA0204000000000082D0BF000160EF00FA
:1005B000C402DD008090BF00000278001440780083
:1005C0000080FB00850240000403200004C05200AC
:1005D00082F0B7008490BF008430EC008030EC00E3
:1005E000AC0204000000000082D0BF0000E0B700B1
:1005F000CF027800000006004200F800801F78005B
:1006000081E0A90014028000040EB30014028800E7
:1006100081E0A800013B880054052000343B88009D
:10062000A40A2000343B880061E7A8000000000015
:10063000000000004F00780081E0A9004200F900AE
:1006400081E0A80000000600851F7800C50020009A
:1006500003000900B51F78000300A1000310A100EA
:100660000300E000340032000000A1000200A100FD
:100670009101880080007800F4FF2F00F00720002F
:100680000100600008003200811F7800C708DE000A
:10069000C708DD008408BB008498BB0062005000DE
:1006A000FCFF3A00CF007800F03F2000010060001E
:1006B00006003A008008BB00811F78002104240056
:1006C000FC02020000000000CF007800B208BB006E
:1006D000B298BB000100E0004220AF003220EC00E5
:1006E000F00720000080600005003A00811F7800BC
:1006F00011002400FC02020000000000CF0078007E
:10070000E4815100E8FF3A00F0072000008060001B
:1007100009003200F4FF2F008408BB008498BB005E
:10072000F007200000806000FBFF3A001100240069
:10073000FC02020000000000250120000300090067
:10074000CF127800CF02780000000600244280001B
:10075000F3FF2F000418E10004003A003442800047
:10076000F3FF2F000418E100120032004488BF009C
:1007700031428000910188000008BB002104240060
:10078000FC020200000000000060FE004488BF0080
:100790003142800082842000038020002403020074
:1007A00000000000F0FF2F00F1FF2F0044A8B70069
:1007B0003142880000000600910188000300E0003B
:1007C000130032000000AF00060037003059BA00B5
:1007D0008301E9000E0032001059BA008301E900DC
:1007E0000B0032000000E90030D9BA008301E900B3
:1007F000070032000059EB008301E9000000E80027
:100800000000E0004220AF003220EC00EBFF370098
:1008100000000600851F7800861F78008210F8000F
:100820008A10F90000C02F008A30B6008410F8004A
:100830008C10F9001484800053848000030052005F
:100840008EB0B7008810E2003E0032008A90BF00F0
:100850004408E30003003A008C90BF004608E30020
:100860000C003200A6030200000000008A10F8000D
:100870004408F9008C10F8004608F9008A90BF007F
:10088000618480008284200003802000DC03020059
:10089000000000008E90BF004100DD0004802000B9
:1008A00000005200448480000020E1000700360070
:1008B0008E90BF004100DD00048020000000520047
:1008C00090B0B7006A040400000000008810F8002F
:1008D0009010F90075848000C12ADD008484200016
:1008E0000483420086007800328480009090BF002C
:1008F0000000E9000200390000800900B2587800C9
:100900008690BF009010B40086B0B700044020006D
:1009100053848000048041008AB0B7006484800062
:1009200060004A008CB0B7008E30EF004484800035
:10093000838480000300520088B0B70022040400C2
:10094000000000004F037800CF027800000006008E
:10095000851F7800861F78004C30A9005230EF00C8
:100960005A020200000000006402020000000000C1
:100970004AB0B7002202AF001B0037006402020039
:1009800000000000800278005482800084825200BF
:10099000440E20000520E10011003E00010020006F
:1009A000010078000160EF0000020200000000007A
:1009B0008100E800811F78007CF0B7004E02020041
:1009C00000000000CF007800100120000008E600C1
:1009D000F3FF370064020200000000004AB0B700D5
:1009E000BA040400000000004C30AF00D80037000B
:1009F0000268EF00144080000960EF00338020009F
:100A0000848241009802020000000000804A7800C1
:100A100002C8BF000268EC000080FB0034802000A8
:100A200004004000104278006D24E100050032000F
:100A30001440800003042000041CE1000100390080
:100A4000ECFF370030C1B3007CF0B7004E0202006B
:100A5000000000004C10A800144080004822DE0076
:100A6000A4C3B200AE003A00448020000484880091
:100A7000A60202000000000059F0B70064802000C8
:100A800004848800A6020200000000008042780072
:100A90008480200004848800A60202000000000078
:100AA000004378005010F800E6FF9F005010F90056
:100AB0000540780051F0B700A4802000048488002D
:100AC000A6020200000000004EF0B7005210F8002D
:100AD0005610F9005010F8005410F9005630D500A7
:100AE00054B0D7004D70EF0010C0B30058F0B700FD
:100AF000144080000960EF0063005200C48280004F
:100B00000960EF000020E1000F003100C482800086
:100B10000960EF0033802000848241000584880052
:100B2000A602020000000000804278000540780024
:100B30004D70B400C48280006240420058F0B7009B
:100B40007805040000000000648280004822DE0076
:100B5000F30F20008482510061C042004DF0B700C5
:100B6000144080000960EF00E3025200348020004E
:100B70000483420006848800A602020000000000F0
:100B80004D50E300030032004C10A9009006040011
:100B900000000000748280006124E10003003A003C
:100BA0004C30A80090060400000000007482800011
:100BB0006424E10011003A00C4802000048488000D
:100BC000A60202000000000080427800E4802000BD
:100BD00004848800A60202000000000000437800A0
:100BE0005210F800E6FF9F005210F900054078000F
:100BF00053F0B70090060400000000004E50E200E1
:100C000047003A0090C0B30058F0B7004F70EF00B3
:100C1000144080000960EF0063005200C48280002D
:100C20000960EF000020E100120031004FD0BF004A
:100C30004F70EC000080FB00A405210084024000FE
:100C4000C48280000960EF003380200004834100EB
:100C500006848800A602020000000000804A780096
:100C6000C48280006240420058F0B70008060400C9
:100C700000000000B48280006020E10028003900FC
:100C800004003E00A4828000038020000418E100DC
:100C900023003E0059D0BF00804278000B60EF0077
:100CA00006002000140020000960EF000500780015
:100CB000860078000402E8000402E9000300320024
:100CC0008100D1000080D300FBFF3700A4828000A8
:100CD00084024000B4828000048348006230E10056
:100CE0000F003E000300390004402A000520E10007
:100CF0000B00390059D0BF0088F0B7008970EF00B1
:100D00005410F8008210F9005610F8008410F90011
:100D1000A4052100348488000A04020000000000B9
:100D20004C10AE000400370060C0B3007CF0B70088
:100D30004E0202000000000010C1B3007CF0B700BA
:100D40004E02020000000000F40404000000000055
:100D5000A60302000000000060C0B3007CF0B700F2
:100D60004E0202000000000010C1B3007CF0B7008A
:100D70004E020200000000000000FE004F03780059
:100D8000CF027800000006000F782400F07F2400D6
:100D900020A0B7000000000081E0A8000600FC00D1
:100DA000217420006204200073052000824878002E
:100DB0008348780042C7A900E0F12300A4A6B70049
:100DC000A0F02300A6A6B70030502000D0A6B700A0
:100DD0000600FC002174200062042000730520003E
:100DE000824878008348780042C7A8004427EF0073
:100DF0000028EF00F0FF2F00F1FF2F0044A8B700FC
:100E0000314288004830EF000021EF000421EF005C
:100E100002A1EF0004032800240888008460A900D0
:100E20002CA3EF00E4FF2F00641988002223EF00B9
:100E3000E8C2A800EAC2AF001D0037000009200088
:100E40003E02020000000000040028000411880097
:100E500004402000141188002062A800140820001B
:100E600044118800900120003E02020000000000B2
:100E700001002000010078000160EF000002020084
:100E8000000000008100E800811F78007CF0B700BE
:100E90004E02020000000000CF0078001001200088
:100EA0000008E600F3FF3700A8040200000000007D
:0C0EB00000080400000000000040FE00EC
:0C100000000804000000000000000600D2
:020000040005F5
:1057F000000000FF001E00FFEA8200FF5A3F00FF8A
:00000001FF
;PIC24FJ256GA106
;CRC=BCB4  CREATED="06-Jan-16 09:18"
