:1000000000308A0004280000FF238316900000308F
:100010008A000A2884011F308305073083169F0059
:1000200083129F00201007309900831691018312DC
:1000300000230030831685008312051505111D2845
:0200400063005B
:10060000831603175711031957155713031B571751
:10061000D712831AD716DD006430D70503089B393B
:10062000D7040408DE000A08DF0003308A000E0841
:10063000DB005808DA000313851405108312051037
:10064000851C242B6400202B183083160317DC0034
:10065000831203138518302B64000317282B031310
:10066000831605100317DB1B3A2B831203130510A7
:1006700083160317DB1F412B831203130514831604
:10068000031783120313851C492B64000317412BA6
:100690000313831605140317D80DDA0DDB0D58105C
:1006A00083120313051C592B831603175814831246
:1006B0000313831603175C08113C031D732B5808A2
:1006C000F839D9005908083C031D692B0230D900BC
:1006D000732BD908031D6F2BD901752B732B013098
:1006E000D9000930DC00DC0B282BD908031D7F2B37
:1006F000D808031D7E2B0008DB00840AB52B590B9C
:10070000B52B5A08603C031D892B58088000840AC9
:10071000B52B5A08103C031DA42BDC010313051054
:10072000831205108518962B6400922B0514023055
:10073000FF3E031D982B83160000DC0B972B8312C2
:100740000510B32B831603175A1FB12B58088400CA
:1007500083135A1CAC2B83175A1AB12B0008DB00E9
:10076000840A831203138316031703131D2B8312AA
:02077000003453
:0207FE000034C5
:02400800002B8B
:02400E00B43FBD
:00000001FF
;PIC16F676