:1000000000308A00102800002730840000080319FF
:100010000F285230A000A00B0B28800B09280034B9
:1000200084011F30830583161F149F141F159F1111
:10003000FF308312A5000030A50083168700213011
:10004000831287003C30A600FA30A7000420A60BDC
:1000500024280030A5008316870011308312870002
:100060000830A600FA30A7000420A60B3228003082
:10007000A500831687000C30831287003C30A60051
:10008000FA30A7000420A60B40280030A5008316F4
:1000900087000A30831287000830A600FA30A700D4
:0A00A0000420A60B4E281B28630065
:02400E00F93F78
:00000001FF
;PIC16F874
