:1000000000308A00102800002730840000080319FF
:100010000F285230A000A00B0B28800B09280034B9
:1000200084011F30830583161F149F141F159F1111
:10003000003088002130831288007830A600FA3022
:10004000A7000420A60B1F2800308316880011305B
:10005000831288001030A600FA30A7000420A60BF7
:100060002C280030831688000C30831288007830EA
:10007000A600FA30A7000420A60B3928003083160A
:1000800088000A30831288001030A600FA30A700DA
:0C0090000420A60B4628831618286300E5
:02400E00F13F80
:00000001FF
;PIC16F874
