:1000000000308A00102800002730840000080319FF
:100010000F285230A000A00B0B28800B09280034B9
:1000200084011F30830583161F149F141F159F1111
:10003000C83083128B040030831688000C30831282
:1000400088007830A600FA30A7000420A60B2328E9
:100050000030831688000A30831288001030A60012
:10006000FA30A7000420A60B302800308316880041
:100070000930831288000830A600FA30A700042057
:10008000A60B3D280030831688002130831288009B
:100090007830A600FA30A7000420A60B4A280030CA
:1000A000831688001130831288001030A600FA30C1
:1000B000A7000420A60B57280030831688000930BB
:1000C000831288000830A600FA30A7000420A60B8F
:0600D00064281B286300F8
:02400E00F93F78
:00000001FF
;PIC16F874
