:1000000000308A000B2A0000FF00030E8301A600C7
:100010007F08A5000A08AD008A01A50E0408A70004
:100020002008A8002108A9002208AA002308AB0084
:100030002408AC00831383128B1D20280B1833284F
:10004000270884002808A0002908A1002A08A20087
:100050002B08A3002C08A4002D088A00260E83007C
:10006000FF0E7F0E09008A11352883160616003010
:100070008312061A0130003A031D4128300B412833
:10008000AE0A8316861600308312861A0130003AB3
:10009000031D4D28310B4D28AF0A0B108A11202863
:1000A00034308400000803195B285230A000A00BF4
:1000B0005728800B552800348E30A0003E08A10040
:1000C0003D08A200A301A108031D70282208A10079
:1000D000A2010830A002A108031D7028A001782801
:1000E0000310A11B7728A20DA10DA0037028A11356
:1000F0000000003439080319EA28C1003D0803193B
:10010000EA28C10703188B287F30C102031CEA28A4
:100110000319EA288F288130C1070318EA2841080B
:10012000A000A101A201A3013A08C500C5173B0820
:10013000C4003C08C3001830C100C201431CB828E9
:100140004008A307031CAA28A20A031DAA28A10A83
:100150000319C2173F08A207031CB128A10A0319FB
:10016000C2173E08BB00BB173B08A1070318C21704
:10017000C20DA10CA20CA30CC50CC40CC30C031023
:10018000C10B9D280130A0070318EA28A11BCF2826
:10019000C50DA30DA20DA10DA0030319EA28C51FCB
:1001A000E028A30A031DE028A20A031DE028A10AF3
:1001B000031DE028A10CA20CA30CA00A0319EA2835
:1001C0003A08C2003E08C206C21FE828A117EE285E
:1001D000A113EE28A001A101A201A3010000003497
:1001E0003E08C5004208C506C51FFB2803110310C1
:1001F000BE1B03142E293E08C5004108C6003D0859
:10020000C60203190929C51F2E290308013A8300D4
:100210002E294208C6003E08C60203191529C51F2B
:100220002E290308013A83002E294308C6003F08FF
:10023000C60203192129C51F2E290308013A83008C
:100240002E294408C6004008C60203192D29C51FDF
:100250002E290308013A83002E2903100034BE0121
:100260003408BD005C206630BC00BB002630BA00FC
:100270007F30B9002308C0002208BF002108BE005B
:100280002008BD007A202008B5002108B600220809
:10029000B7002308B800BE013308BD005C20230866
:1002A000C0002208BF002108BE002008BD00380899
:1002B000C4003708C3003608C2003508C100F0206A
:1002C00003186429031D67290030A1000A2ABE0112
:1002D0003408BD005C206630BC00BB002630BA008C
:1002E0007F30B9002308C0002208BF002108BE00EB
:1002F0002008BD007A202008B5002108B600220899
:10030000B7002308B800BE013308BD005C203808E0
:10031000C0003708BF003608BE003508BD002308FE
:10032000C4002208C3002108C2002008C100F02038
:10033000031CD329BE013408BD005C20CD30BC00B5
:10034000CC30BB004C30BA007F30B9002308C0006D
:100350002208BF002108BE002008BD007A20200826
:10036000B9002108BA002208BB002308BC00BE0166
:100370003308BD005C202308C0002208BF0021080C
:10038000BE002008BD003C08C4003B08C3003A087A
:10039000C2003908C100F0200318D029031DD32959
:1003A0000130A1000A2ABE013408BD005C20CD3016
:1003B000BC00CC30BB004C30BA007F30B900230801
:1003C000C0002208BF002108BE002008BD007A201E
:1003D0002008B5002108B6002208B7002308B8009D
:1003E000BE013308BD005C203808C0003708BF00DC
:1003F0003608BE003508BD002308C4002208C3002B
:100400002108C2002008C100F020031C0A2A023083
:10041000A1000A2A003484011F30830583161F14AB
:100420009F141F159F118312AE01AF01B001B101DE
:10043000B201C8308B040030831688000C30831260
:1004400088000130B0003C30B300FA30B4005020D6
:10045000B30B252AB0012E08B3002F08B4002F21BA
:100460002108B200AF01B208031D3D2A3C30B300A1
:10047000FA30B4005020B30B382A320B462A5030E1
:10048000B300FA30B4005020B30B412A3208023CCA
:10049000031D512A6430B300FA30B4005020B30B6E
:1004A0004C2A0030831688000A30831288001030EE
:1004B000B300FA30B4005020B30B592A0030831631
:1004C00088002130831288000130B1003C30B30035
:1004D000FA30B4005020B30B682AB1012F08B300E2
:1004E0002E08B4002F212108B200AE01B208031D6E
:1004F000802A3C30B300FA30B4005020B30B7B2A82
:10050000320B892A5030B300FA30B4005020B30BBC
:10051000842A3208023C031D942A6430B300FA3066
:10052000B4005020B30B8F2A00308316880011309E
:10053000831288001030B300FA30B4005020B30B9F
:060540009C2A1B2A630047
:02400E00F93F78
:00000001FF
;PIC16F874
