:1000000000308A0062280000FF00030E8301A60072
:100010007F08A5000A08AD008A01A50E0408A70004
:100020002008A8002108A9002208AA002308AB0084
:100030002408AC00831383128B1D20280B1833284F
:10004000270884002808A0002908A1002A08A20087
:100050002B08A3002C08A4002D088A00260E83007C
:10006000FF0E7F0E09008A114228353084000008F7
:10007000031940285230A000A00B3C28800B3A28DE
:100080008A114F28001C5A28B310330883168700A2
:10009000831287140430B400FA30B5003528B40B4D
:1000A0004C28B31033088316870083128710310B56
:1000B0005A28AF0A001C5F28320B5F28B00A0B10C9
:1000C0008A11202884011F30830583161F149F1472
:1000D0001F159F118312AF01B001B101B201FF30B2
:1000E000B300C8308B04003083168800213083129F
:0600F00088007328630084
:02400E00F93F78
:00000001FF
;PIC16F874
